:020000040800F2
:10000000706D0020450100083D4200080D02000807
:1000100039420008B51D00084D82000800000000AC
:10002000000000000000000000000000E14F000898
:10003000051E00080000000097010008F175000887
:100040005F0100085F0100085F0100085F01000810
:100050005F0100085F0100085F0100085F01000800
:100060005F0100085F0100085F0100085F010008F0
:10007000B91D00085F0100085F0100085F0100086A
:100080005F0100085F0100085F0100085F010008D0
:100090005F0100085F0100085F010008632300089A
:1000A0005F0100085F0100085F0100085F010008B0
:1000B000A7760008A9760008AB7600085F01000863
:1000C0005F0100085F0100085F0100085F01000890
:1000D0005F010008D981000801820008258200081C
:1000E000612300085F0100085F0100085F0100084C
:1000F0005F0100085F0100085F0100085F01000860
:100100005F0100085F010008AD7600085F0100088C
:10011000017E00081D7E0008AF760008B176000859
:100120005F0100085F0100085F0100085F0100082F
:10013000DFF80CD001F072F800480047C51600083F
:10014000706D00200648804706480047FEE7FEE73E
:10015000FEE7FEE7FEE7FEE7FEE7FEE7FEE7FEE777
:10016000A576000831010008EFF3108072B67047E1
:1001700080F310887047324A1368012B04D04FF087
:10018000010313602F4A10602F4A11602F484FF06F
:10019000805101607047EFF3108272B62848016801
:1001A00091B14FF0000101602648016829B1EFF3D9
:1001B000098121E9F00F0068016023490968096895
:1001C000B1E8F00F81F3098882F310884EF0040E35
:1001D00070471D4908601B494FF00000086018492E
:1001E0004FF0010008601A481A49D0F8002041EA8F
:1001F0000201016015484FF0805101601648006807
:10020000006880F3088861B662B670471EF0040F7C
:100210000CBFEFF30880EFF3098020E9F00F40F8FE
:1002200004ED1EF0040F0CBF80F3088880F30988EA
:1002300000B509F0DBF95DF804EB4EF0040E7047F1
:1002400070120020681200206C12002004ED00E003
:1002500020ED00E00000FFFF08ED00E02DE9F04197
:100260000024061B254671F1000605DA012400274B
:10027000D0EB070067EB0101161E73F1000605DAEB
:100280000027D2EB0702012567EB030300F054FEC1
:1002900086460E4617469C46AC4204D00025D0EB5D
:1002A000050E65EB010624B10020D2EB000760EBE0
:1002B000030C704631463A466346BDE8F081202A79
:1002C00004DB203A21FA02F00021704721FA02F300
:1002D000D040C2F12002914008431946704740EADD
:1002E00001039B0703D009E008C9121F08C0042AB4
:1002F000FAD203E011F8013B00F8013B521EF9D29B
:100300007047D2B201E000F8012B491EFBD27047C2
:100310000022F6E710B513460A4604461946FFF7D1
:10032000F0FF204610BD10B5002200E0521C835C97
:100330008C5CA34201D1002BF8D1D8B2E1B2401AB3
:1003400010BD30B505460020034600E05B1C93421B
:1003500005D2EC5CC85C201A01D1002CF6D130BD6E
:1003600010B54843044608F0D7FE002805D0002108
:10037000002C02D0641E0155FAE710BD0FB400B581
:100380008DB010A909900B9000914FF0FF300A90AA
:1003900000200C9005480690054807906A4609A879
:1003A0000F9900F02FFE0DB05DF814FB211000082E
:1003B0003F1000082DE9FF5F1D464FF0FF3BD5E9D8
:1003C000014691465F464FF00008A9697F1C0198DD
:1003D0008847296A824688470028F6D1BAF1FF3F4C
:1003E0000CD024F4C064002E19DD600614D5BAF1D7
:1003F0002B0F09D0BAF12D0F0ED103E0584604B0EF
:10040000BDE8F09F44F48064A9697F1C0198884787
:10041000761E8246002E02DDBAF1300F03D0B9F10C
:10042000000F26D032E0A969761E44F400747F1CC8
:10043000019888478246002E05DDBAF1780F06D074
:10044000BAF1580F03D0B9F1000F10D01EE0B9F186
:10045000000F02D0B9F1100F18D1A969761E24F44B
:1004600000747F1C019888478246102002E0082013
:1004700000E00A20814609E008FB0908A969761E08
:1004800044F400747F1C019888478246002E05DDE5
:100490004946504600F0A2FD0028EDDAE9690198CE
:1004A0008847A00502D46FF00100A8E7E00725D136
:1004B000600613D5600502D5C8F1000000E0404693
:1004C00029680A1D2A600968220501D5087015E00F
:1004D000220701D5088011E008600FE02868011D9F
:1004E00029600068210502D580F8008006E0210718
:1004F00002D5A0F8008001E0C0F8008038467EE711
:100500002DE9FF5FD2E901A74FF0000891699946F4
:100510001446DDF838B0464601988847054659EA42
:100520000B0005D009E0A169761C019888470546B3
:10053000216A284688470028F5D1681C03D05FEA65
:10054000CA7005D015E04FF0FF3004B0BDE8F09F51
:100550002068011D2160D0F800800AE05FEACA70BF
:1005600001D108F8015BA169761C7F1E01988847BC
:100570000546002F1ADD681C18D0B9F1000F0DD008
:10058000E81705EBD060421120F01F0059F8221047
:100590002A1A012090400142E0D107E0BBF1000F90
:1005A000DCD1216A284688470028D7D0E169019824
:1005B0008847BBF1000F07D1002E05DD5FEACA7046
:1005C00002D1002188F80010A068B84203DDBBF119
:1005D000000F03D017B16FF00100B6E73046B4E763
:1005E0002DE9FF4F087883B09946FF2805D0491CB4
:1005F0002D2804D00024002008E000200BE0012476
:10060000F9E700EB800003EB4000491C0B78FF2B5F
:10061000F7D104B1404200230293147819461D46D5
:100620002D2C01D02B2C04D1521C2D2C13D00024A6
:100630000294AA461478FF2C0FD00A25A3FB057854
:1006400001FB05814FF0000C03FB0C11521CE31958
:100650004AEB0101EEE70124EAE7814453EA010095
:1006600002D019F5C87F06DA03980021C0E900110D
:1006700007B0BDE8F08F0025AE4E2F46DFF8B882F8
:10068000184600F08EFDCDE90001B9F1000002DA54
:10069000C9F1000400E004460023A74A1AEB030B4B
:1006A00042EB045A12E0E00707D02A4633463846A8
:1006B000414600F0B4FA074688462A4633461046BB
:1006C000194600F0ACFA05460E466410002CEAD13B
:1006D000DDE90001B9F1000F5A46534606DA00F091
:1006E00010FB3A46434600F00CFB05E000F097FA99
:1006F0003A46434600F093FA029A0AB181F000416B
:10070000039AC2E90001B3E72DE9FF4F1F468DB000
:10071000D7E901464FF0FF382E2045464FF000093B
:100720000B90B9696D1C0E988847396A82468847D4
:100730000028F6D1BAF1FF3F0AD024F4D064002E8D
:1007400011DDBAF12B0F08D0BAF12D0F0BD102E059
:10075000404611B08DE744F48064B9696D1C0E9871
:1007600088478246761E6946600501D52D2000E047
:100770002B208DF8000001F1010B0DF1200809E09C
:10078000B9696D1C0E98884782460F9844F400742E
:10079000761E0560002E02DDBAF1300FF0D00B9905
:1007A0008A453ED144F0800406E00F99681CA9F107
:1007B000010944F400740860B9696D1C761E0E9836
:1007C000884782463028F0D02BE00B998A4505D126
:1007D000200603D444F08004761E18E0504607F04B
:1007E000DDFF08B30DF11301761E44F400748B4550
:1007F00008D2AAF130000BF8010B200607D5A9F1A9
:10080000010003E0200602D409F101008146A005A1
:1008100002D50F99681C0860B9696D1C0E9888474D
:100820008246002ED1DC53E0002E51DDBAF1650F77
:1008300002D0BAF1450F4BD1A00549D5B9696D1C5D
:1008400024F44074761E0E9888478246002E0CDDF4
:100850002B2804D0BAF12D0F07D144F48074B96964
:100860006D1C0E9888478246761EE00501D52D2125
:1008700000E02B2108F8011BCDF82C8021E00DF1C0
:100880002901761E44F4007488450CD2AAF1300088
:1008900010F0FF0088F8000002D10B99884509D9B3
:1008A00008F1010806E0E00501D5244801E042F224
:1008B0000F708146B9696D1C0E98884782460F9863
:1008C0000560002E04DD504607F068FF0028D6D1F1
:1008D000F9690E988847FF208BF8000088F800001F
:1008E0000020069007904B466A4608A906A8FFF725
:1008F00077FEA00502D46FF001002AE714F0240F60
:100900000AD0E00714D1DDE906123868031D3B6008
:100910000068C0E900120BE0DDE9060100F0D0FA42
:100920000146E00704D13868021D3A6000680160A2
:1009300028460EE7000014400000F03FF1D8FFFF0A
:10094000F0B480EA0102D40F4200B2EB410F02D2B0
:100950000246084611464A0042D0C30DDDB2C1F33B
:10096000C752AD1A202D35DAC1F3160141F4000249
:1009700004B15242C5F1200602FA06F12A411044A0
:10098000B3EBD05F23D0C4B1012DA0EBC35009DC81
:10099000F0BC4FF0004202EAC352DBB200F50000A7
:1009A00000F074BB400000F1807000EBC350A0F178
:1009B000807040EAD170490009E0490841EAC071FD
:1009C000A0EBC35000F50000400800EBC350F0BCA2
:1009D00000F053BB6142012202EB4101001BF6E72C
:1009E000F0BC704781F00041AAE780F00040A7E723
:1009F00080EA010210B502F00043400022D04A0014
:100A00001FD0010E01EB1261C0F35600C2F3560273
:100A100040F4000042F40002A0FB022000047F39F1
:100A2000140400D0401C50EA124001D44000491E7A
:100A3000C2B20C0604EBD010401C4008802A02D041
:100A400003E0002010BD20F00100002900DA0020A2
:100A5000184310BD30B480EA010202F0004530F0C6
:100A6000004221F0004013D090B1C30DD40DC2F369
:100A70001601C0F31600E41A41F4000140F400022C
:100A80007D34914201D3641C00E04900002C02DA5D
:100A900030BC002070474FF400000023914201D386
:100AA000891A034340084FEA4101F7D151B19142FD
:100AB00002D14FF0004105E002D24FF0010101E008
:100AC0006FF0010103EBC450284430BC00F0D5BAEC
:100AD0002DE9FE4F804681EA0300C00F0C460090CE
:100AE00021F0004123F00045B8EB0200A94105D2F6
:100AF0004046214690461C460B46024623F00040E5
:100B0000104347D0270DC7F30A00C3F30A510290E0
:100B1000401A019040286BDAC3F3130040F4801BA5
:100B20000098924620B10023D2EB030A63EB0B0B33
:100B300001985946C0F14002504600F02EFA064690
:100B40000D4650465946019A00F036FA10EB08005F
:100B50006141002487EA115284EAE7731A4340D0C6
:100B6000009A62B3019A012A4FEA075215DC001B72
:100B700061EB02014FF0004202EA0752CDE9004268
:100B8000001C41F5801132462B4600F0BCFA03B040
:100B9000BDE8F08F40462146F9E7001B61EB0201FA
:100BA000001C41F5801300185B412018A2F50017C6
:100BB00047EB030140EAD570B6196D4111E06D08AD
:100BC0004FEA360645EAC0754FEA0752001B61EB53
:100BD0000201001C41F5801149084FEA300000195C
:100BE000514132462B4603B0BDE8F04F00F07CBACD
:100BF0000098012240000023D0EB020263EBE07377
:100C0000009821464FEAE074B8EB000061EB040164
:100C1000E9E783F000435BE781F0004158E72DE905
:100C2000FE4F81EA030404F0004421F000410094E7
:100C30004FF0000B23F0004350EA01045ED052EA6B
:100C400003045BD0C3F30A54C1F30A552C44A4F245
:100C5000F3340194A0FB0254C1F3130141F4801159
:100C6000C3F3130343F4801301FB024400FB034E60
:100C7000840A970A44EA815447EA8357A4FB076829
:100C800002958D0A05FB07854FEA932C04FB0C5453
:100C90002705029D4FEA065847EA1637B5EB0805C7
:100CA0006EEB070C870E920E47EA811742EA831219
:100CB000A7FB0201B6EB0B0164EB00042B0D43EA2A
:100CC0000C335E1844EB1C50DA465146E7FB020138
:100CD000C5F313044FEA0B3343EA14534FEA0432CB
:100CE000019C43EA0603A4F10C040294009CCDE9A4
:100CF00000B400F008FA03B0BDE8F08F0020014610
:100D0000F9E72DE9F04D81EA030404F0004B21F0EE
:100D1000004514464FF0000A23F0004150EA050256
:100D200020D054EA01021DD0C5F30A570246C5F38C
:100D30001303C1F31300C1F30A5640F4801543F4C2
:100D40008013A7EB0608101BD64608F2FD3873EB9C
:100D5000050002D308F1010801E092185B41B8F1E7
:100D6000000F03DA00200146BDE8F08D00204FF4AB
:100D70008011064684460EE0171B73EB050705D36A
:100D8000121B63EB050306434CEA010C49084FEACA
:100D9000300092185B4150EA0107EDD152EA03009E
:100DA00012D082EA040083EA0501084305D0101B33
:100DB000AB4106D20122002306E000224FF000439F
:100DC00002E06FF0010253101AEB06004CEB0851E1
:100DD00010EB0A0041EB0B01BDE8F04D00F084B9C7
:100DE000C10F80EAE0700844CA079623002100F092
:100DF0004DB996230022114600F048B9F0B4CA1745
:100E0000CB0F50405140C61841F100054FEAC37264
:100E1000314628004FF0960303D0B623F0BC00F013
:100E200035B930460021F9E70EB540F23341029161
:100E30000021CDE900110A460B4600F064F903B029
:100E400000BD20F00040C10DC0F3160040F40000CA
:100E50007F2901DA00207047962903DCC1F1960151
:100E6000C840704796398840704700F0004230F023
:100E700000400AD0C10D01F56071C0F3160042EACE
:100E80000151C208400711437047002001467047D6
:100E900030B5041E71F1000404DB4FF00044404201
:100EA00064EB0101141E73F1000405DB1C464FF0D6
:100EB0000043524263EB04038B4208BF824230BDC1
:100EC00001F0004330B421F0004150EA010206D0A5
:100ED0000A0DA2F56072C1F31301002A02DC30BCD6
:100EE00000207047440F44EAC104C100E01830BC40
:100EF00000EBC25000F0C1B8002801DBC0F1004097
:100F0000002901DBC1F100418142704730B50B4639
:100F1000014600202022012409E021FA02F59D4229
:100F200005D303FA02F5491B04FA02F52844151EFD
:100F3000A2F10102F1DC30BD2DE9F05F0546002091
:100F400092469B4688460646814640241BE028463A
:100F5000414647462246FFF7B2F953465A46C01A61
:100F6000914110D311461846224600F016F82D1A6A
:100F700067EB01084F4622460120002100F00DF8E2
:100F800017EB00094E41201EA4F10104DFDC4846A6
:100F900031462A464346BDE8F09F202A04DB203A2A
:100FA00000FA02F1002070479140C2F1200320FABC
:100FB00003F3194390407047202A06DBCB17203AF1
:100FC00041FA02F043EAE07306E041FA02F3D0404E
:100FD000C2F1200291400843194670473A2800D2D6
:100FE000303820F02002412A01D3A2F13700884294
:100FF00001D34FF0FF30704702681144137801604D
:1010000018467047D16004495161044911620021BA
:101010001161114600F01AB9F90F000841120008D9
:10102000426842B1016811F8013B23B1521EC0E988
:101030000012184670470121C160881E704742683F
:101040005AB1C368016843B983688B4205D0491E11
:10105000521CC0E90012002070474FF0FF3070476B
:101060007CB50023CDE900330546684600F09FFAC1
:101070006946284607F02EFA7CBD0029A8BF7047B4
:10108000401C490008BF20F00100704710B4B0FABE
:1010900080FC00FA0CF050EA010404BF10BC704759
:1010A00049B1CCF1200421FA04F411FA0CF118BF73
:1010B000012121430843A3EB0C01CB1D4FEA006142
:1010C0004FEA102042BF002010BC704700EBC35015
:1010D00010440029A4BF10BC7047401C490008BF41
:1010E00020F0010010BC704710B5141E73F100040D
:1010F00008DA401C41F1000192185B411A4301D10A
:1011000020F0010010BD2DE9F04D92469B4611B133
:10111000B1FA81F202E0B0FA80F220329046FFF795
:101120003CFF04460F4640EA0A0041EA0B015346E1
:101130005A46084313D0114653EA010019D0C8F1AA
:1011400040025046FFF7BBF805460E46504659464A
:101150004246FFF722FF084305D0012004E0204665
:101160003946BDE8F08D0020054346EAE0762C4381
:1011700037430A986305E40AA0EB08000022FD0A41
:1011800044EA47540A3002D500200146E9E7010548
:1011900010196941DDE9084500196941BDE8F04DC4
:1011A000A2E70EB540F2334202920022CDE90022BE
:1011B0001346FFF7A8FF03B000BDC1F30A52C1F305
:1011C000130140F2FF3341F480119A4202DA002009
:1011D0000146704740F233439A42A2F2334202DCA6
:1011E0005242FFF76CB8FFF7D8BE000030B5041EBE
:1011F00071F1000404DB4FF00044404264EB010154
:10120000141E73F1000405DB1C464FF000435242EC
:1012100063EB0403994208BF904230BD064C074D72
:1012200006E0E06840F0010394E8070098471034B6
:10123000AC42F6D3FEF780FF38B1000858B1000881
:10124000C0B24FF4F05100F0E5B900002DE9F34FC2
:101250008BB04FF0000801F10C000C464FF0010B71
:1012600046460DF1080A01906269012101989047F4
:10127000051E2DD0252D2CD0216A8847C0B162696A
:10128000012101989047216A88470028F7D1411E23
:1012900062690198904700E0761CA1690B98884725
:1012A000216A88470028F7D1E1690B988847DBE776
:1012B000A1690B9888470746A84201D1761CD3E75D
:1012C000E1690B9888477F1C02D1B8F1000F6FD0FD
:1012D00046E1002762693D463946019890472A2831
:1012E00004D162690121019890470125DFF88492B9
:1012F0006269012101989047A0F130010A290AD2C0
:101300004F45E5DC07EB870100EB4107303FDFD4B9
:1013100045F01005ECE7E90601D46FF000476C28B2
:101320000AD04C2814D0682815D06A280DD074280B
:101330001CD07A281AD01DE06269012101989047DB
:101340006C2802D045F0040514E045F002050DE0DC
:1013500045F020050AE0626901210198904768285C
:1013600002D045F0080505E045F4006562690121F9
:1013700001989047C4E9015765283DD019DC5828E9
:101380007AD00CDC452837D004DC252826D041282B
:1013900031D131E046282FD047282CD12CE05B28D2
:1013A00077D0612828D063287CD0642823D15AE0E4
:1013B000D0E06F2848D008DC66281DD067281BD0F5
:1013C000692821D06E2816D127E0702845D07328CF
:1013D00068D0752847D078280DD14DE0A1690B98C9
:1013E0008847054625283FF469AFE1690B9888478F
:1013F0006D1C3FF46AAFB3E023466A466FF001000C
:101400000B99FFF781F99EE045F040006060A80766
:1014100023464FF0000236D43EE0E8077FF447AFA2
:101420002068011D21600068290501D506701BE7B1
:10143000290701D5068017E7A90703D5F117C0E9E9
:10144000006111E706600FE745F040006060A80703
:1014500023464FF0080216D41EE040F60E0125EA9E
:101460000100606016E045F040006060A807234678
:101470004FF00A0207D40FE045F040006060A80773
:1014800008D5234610226FF001000B99AFF30080BE
:1014900059E007E0234610226FF001000B99FEF798
:1014A00089FF50E04FF000094F464B46632802D0B9
:1014B0005B2806D040E0E80601D40120A0600127A7
:1014C0003AE062690121019890475E2805D14FF00A
:1014D00001096269494601989047216939B900219B
:1014E0000A46534643F82120491C0829FADBB0B3C9
:1014F000216969B9C11700EBD16253110AEB83016D
:1015000022F01F02821A01200B68904003430B60F7
:1015100062690121019890475D28E8D1B9F1000F77
:1015200009D00020514651F82020D24341F8202014
:10153000401C0828F7DB02AB224600976FF0010041
:101540000B99FEF7DDFF00280CDA401C08D1BBF137
:10155000000F05D04FF0FF300DB0BDE8F08FFFE772
:101560004046F9E7E90701D108F1010806444FF0C8
:10157000000B79E6CCCCCC0C0FB4002300B589B0BD
:101580000CA900910B996FF00042CB601E4B0693A3
:101590001E4B07930423CDE901321D4A08920246EF
:1015A0006B460020FFF7B0F809B05DF814FB70B58A
:1015B00086B006464FF0FF300091CDE901010020D2
:1015C00015460C4604903246694604A8FFF7D4FF3E
:1015D00002460498211825B108B1084600E02046CB
:1015E0002860049800280DD0002A02DD0098884267
:1015F00008D0081B0094CDE901043246694604A8CE
:10160000FFF7BAFF06B070BD211000083F100008B8
:10161000411200087F2801D9002208E0064A02EBA7
:101620005002C007127800D1120902F00F02012007
:101630009040084070470000E1B00008002070476B
:1016400070B521F0004303430CD0C1F30A550024C8
:10165000D5EB040564EB0403D617AD1AB34102DBE6
:101660000020014670BD201841EB025170BD70B5DD
:101670008C1810F8015B15F0070301D110F8013B3D
:101680002A1106D110F8012B03E010F8016B01F8C4
:10169000016B5B1EF9D12B0705D40023521E0DD41C
:1016A00001F8013BFAE710F8013BCB1A921C03E06A
:1016B00013F8015B01F8015B521EF9D5A142D8D3A2
:1016C000002070BD10B509F0CFFB002010BD30B573
:1016D00002460023002018E0802311E014781C400B
:1016E0000CB1012400E00024C0F3C015AC4204D0CA
:1016F0004406200E80F0070001E04406200E5B1037
:10170000002BEBD1521C4C1EE1B20029E4D130BDBC
:101710000246002004E013785840521C4B1ED9B2F8
:101720000029F8D170472DE9F0410646002700BF97
:1017300056E106F1C00000EB471090F8018006F179
:10174000C00000EB47100578B8F1100F73D2DFE846
:1017500008F0081B2E4154677B8EA1B4C7DAF1EF65
:10176000EEED012D08D11021304600F040F904467D
:1017700048F21000606006E01021304600F037F9B2
:1017800004461020606029E1012D08D11121304666
:1017900000F02DF9044648F23000606006E01121A7
:1017A000304600F024F904463020606016E1012D37
:1017B00008D11221304600F01AF9044648F25000D0
:1017C000606006E01221304600F011F90446502016
:1017D000606003E1012D08D11321304600F007F9C4
:1017E000044648F27000606006E01321304600F0C5
:1017F000FEF8044670206060F0E0012D08D114214D
:10180000304600F0F4F8044648F29000606006E0CC
:101810001421304600F0EBF8044690206060DDE0D3
:10182000012D09D11521304600F0E1F8044648F2B7
:10183000B000606007E0CDE01521304600F0D7F839
:101840000446B0206060C9E0012D08D11621304661
:1018500000F0CDF8044648F2D000606006E01621A2
:10186000304600F0C4F80446D0206060B6E0012D98
:1018700008D11721304600F0BAF8044648F2F000CB
:10188000606006E01721304600F0B1F80446F02011
:101890006060A3E0012D08D11821304600F0A7F8C0
:1018A000044648F22000606006E01821304600F04F
:1018B0009EF804462020606090E0012D08D1192197
:1018C000304600F094F8044648F26200606006E09A
:1018D0001921304600F08BF80446622060607DE0FC
:1018E000012D08D11A21304600F081F8044648F253
:1018F000A400606006E01A21304600F078F8044643
:10190000A42060606AE0012D08D11B21304600F060
:101910006EF8044648F2E600606006E01B2130469F
:1019200000F065F80446E620606057E03EE029E0FC
:1019300014E0FFE7012D08D11C21304600F057F8D4
:10194000044648F2E810606007E01C21304600F0D1
:101950004EF804464FF4F47060603FE0012D08D16A
:101960001D21304600F043F8044648F2C91060607B
:1019700007E01D21304600F03AF8044640F2C91055
:1019800060602BE0012D08D11E21304600F02FF8B9
:10199000044648F2AA10606007E01E21304600F0BD
:1019A00026F804464FF4D570606017E0012D08D189
:1019B0001F21304600F01BF8044648F28B1060608F
:1019C00007E01F21304600F012F8044640F28B1069
:1019D000606003E06FF01A00BDE8F08100BF7F1C7B
:1019E00096F84002B8423FF7A4AE0020F4E730B5C5
:1019F00002460B46002412B1D2F8B80008B9002004
:101A000030BD002110E001EB4105D2F8B80050F8DC
:101A10002500984206D101EB4105D2F8B80000EB51
:101A2000850405E0481CC1B292F8BC008842EADC9B
:101A300000BF2046E4E7000070B5054600240721FA
:101A4000284600F015F804460CB1204670BD074842
:101A5000C06C4FF6F071084043F2D001884201D1CA
:101A60000020F3E74FF0FF30F0E70000781200208D
:101A70002DE9FF4706468846002700200290039084
:101A8000002581468246009001901EB9401E04B098
:101A9000BDE8F08741463046FFF7A9FF044614B978
:101AA0004FF0FF30F3E7207800F03F0040F04000B7
:101AB0008DF808009DF80810304600F06FFB47B223
:101AC00017B16FF00100E2E796F8BD0020B1207A6F
:101AD000801C00F0FF0903E0207A401C00F0FF09A1
:101AE000002508E00021304600F064FB02AA691CD2
:101AF0005054681CC5B24D45F4DB96F8BD00012872
:101B000019D1207800F03F0040F040008DF800002F
:101B1000012505E002A8405D0DF80500681CC5B26E
:101B2000A068801CA842F5DC207A801CC1B26846FF
:101B3000FFF7CDFD824696F8BD00022819D1207826
:101B400000F03F0040F040008DF80000012505E066
:101B500002A8405D0DF80500681CC5B2A068801C95
:101B6000A842F5DC207A801CC1B26846FFF7D0FDA0
:101B70008246BAF1000F02D06FF0010087E7002023
:101B80006060012509E060680002606002A9495DAB
:101B9000606808446060681CC5B2A068401CA84228
:101BA000F1DC384673E770B50446002500260CB911
:101BB000681E70BD002505E0FF21204600F0EEFA0A
:101BC00006466D1C092DF7DB3046F2E730B50446BA
:101BD00014B1D4F8B80010B94FF0FF3030BD022175
:101BE0002046FFF704FF054615B94FF0FF30F5E733
:101BF000287900F00800082803D1012084F8BD00EE
:101C00000BE0287900F00400042803D1022084F8B6
:101C1000BD0002E0002084F8BD000020DEE72DE9D1
:101C2000F04105460E464FF0000815B1D5F8B80052
:101C300018B94FF0FF30BDE8F08100212846FFF7CA
:101C4000D6FE044614B94FF0FF30F4E70DE0002152
:101C50002846FFF70DFF07460FB13846EBE720791E
:101C600000F0800008B94FF00108B8F1000F03D16F
:101C70003000A6F10106EAD10EB10020DBE76FF0DB
:101C80000200D8E72DE9FC5F064689464FF0000ABE
:101C9000002700200090019000258346804616B959
:101CA000401EBDE8FC9F49463046FFF7A0FE0446B3
:101CB00014B94FF0FF30F4E7207800F03F008DF8C2
:101CC00000006768002507E0F8B2A168491B0DF81D
:101CD00001003F12681CC5B2A068A842F4DC207A5B
:101CE000401C00F0FF0B96F8BD0001280ED1207AB1
:101CF000401CC1B26846FFF7EAFC8046A068401C61
:101D00000DF80080207A801C00F0FF0B96F8BD00D3
:101D100002280ED1207A401CC1B26846FFF7F8FCB9
:101D20008046A068401C0DF80080207A801C00F0DE
:101D3000FF0B002507E01DF80510304600F02EFAD5
:101D40008246681CC5B25D45F5DB5046A9E705F043
:101D50002DFE05E005F0EAFD4FF4FA7000F053F8AF
:101D6000F8E7000038B50546C821284602F0F4FA25
:101D7000C4B234B103A30E220B490CA0009400F0AE
:101D8000F3F838BD4F43445F414432346269745FB5
:101D9000476574526573756C74206572726F723A20
:101DA00025640D0A0000000089AF00084552524F1B
:101DB0005200000000BFFEE710B5024800F057FADD
:101DC00010BD00005C03002030B590F840500124A5
:101DD000AC40C56B6C60046863604468102C04D12F
:101DE0000468A2600468E16003E00468A16004681C
:101DF000E26030BD05E005F0E7FD4FF47A7000F0D9
:101E000002F8F8E7704710B50446204608F0A8FB32
:101E100010BD32280AD2002105E0002200E0521C49
:101E2000082AFCDB491C8142F7D319E000EBC00211
:101E30004FF0E0235A6100229A6101221A6100BF2B
:101E40004FF0E022116901F001021AB101F4803271
:101E5000002AF5D000224FF0E0231A619A6100BFFA
:101E60007047000070B505460E4600242BE004EBD9
:101E7000440105EBC10003F0C3F904EB440105EB99
:101E8000C10003F0C6FA04EB440005EBC000406853
:101E90000E4988420FD004EB440005EBC0004068B7
:101EA0000B49884207D004EB440005EBC0004068B2
:101EB0000849884205D104EB440105EBC10003F059
:101EC0002FFA601CC4B2B442D1DB70BD00002110F7
:101ED000000011100000311010B50446228891B2A4
:101EE0000022206900F04AFF10BD10B50446228888
:101EF00091B20122206900F041FF10BD70B5044687
:101F00000D4604A006F0A4FA2A46214606A006F0D3
:101F10009FFA70BD2D3E48617070656E20457272EB
:101F20006F722121210D0A002D3E4572726F7220C1
:101F3000506172616D65746572732056616C756570
:101F40003A2066696C65202573206F6E206C696E7F
:101F5000652025640D0A000010B500F01BFF03F09A
:101F60005FFA03F090FA10BD0FB47CB504460D463D
:101F700016460AA801904FF480710948019B099AFE
:101F800006F076FA064833462A462146009005A018
:101F900006F05EFA002001907CBC5DF814FB0000A6
:101FA000801600205B25735D5B257328293A253058
:101FB00034645D2025730D0A0000000010B504464E
:101FC00002212046FFF74EFF10BD2DE9F0410746E4
:101FD0000D460024384603F092FA002615E03846F4
:101FE00003F07BFA022003F061FA384603F06CFA42
:101FF0006006040E384603F05FFA08B1601CC4B2F4
:10200000012003F053FA701CC6B2082EE7DB1DB1A5
:10201000384603F0A4FA02E0384603F0B8FA204646
:10202000BDE8F08170B506460C46304603F083FAF1
:10203000304603F052FA00251CE004F0800018B18D
:10204000304603F053FA02E0304603F06BFA6006C4
:10205000040E022003F02AFA304603F035FA02207B
:1020600003F024FA304603F038FA022003F01EFA97
:10207000681CC5B2082DE0DB70BD10B504462046D3
:1020800003F059FA204603F031FA204603F01CFA17
:10209000042003F00BFA204603F044FA042003F076
:1020A00005FA204603F019FA10BD10B50446204683
:1020B00003F041FA204603F010FA204603F032FA0A
:1020C000042003F0F3F9204603F0FEF9204603F064
:1020D0000DFA042003F0EAF910BD70B5054600249E
:1020E000284603F00CFA284603F000FA012003F01A
:1020F000DDF9284603F0E8F9012003F0D7F908E0FC
:10210000601CC4B2FA2C04DD2846FFF7CEFF012084
:1021100070BD284603F0D0F90028F1D1284603F01D
:10212000DCF90020F4E7000070B505460E461821E2
:102130000020FEF715F912490860002419E004EBAD
:10214000041105EBC10003F04FFE04EB041105EB95
:10215000C10003F059FC04EB041105EBC10003F0CE
:10216000CDFC04EB041105EBC10003F0E1FD601CA4
:10217000C4B2B442E3DB0248006806F05FFF70BD02
:102180003811002010B50446204604F0F1FB20462B
:1021900004F02EFC204604F065FC10BD73B5044627
:1021A0004FF47A73012201A9204601F0ABFA0546EB
:1021B00028467CBD13B582B00446002001904FF440
:1021C0007A70012301AA03A90090204601F071FB57
:1021D0009DF8040004B010BD10B5044604F0A8FD3D
:1021E000204605F063F8204604F03CFE204604F04B
:1021F000ABFE204604F006FE204604F09BFD204680
:1022000004F02CFF204604F0DDFF204605F032F8F4
:1022100094F8C900012819D100BF04F1840060635B
:10222000A820045100BFDE21085B06F075FFE02105
:1022300008512068C06840F010002168C860DE20A6
:10224000025BE0200159204601F0BAFE94F8C80074
:1022500001280BD100BF04F140002063646600BF79
:10226000EA21085B06F058FFEC21085110BD10B5BB
:10227000044694F8C80018B104F1400000F076F963
:1022800094F8C90018B104F1840000F06FF910BD92
:1022900038B5044620680068C0F30010C8B100BF1C
:1022A000002000902068006800902068406800903E
:1022B00000BF00BF204601F06BFDDE20005B616BBC
:1022C00009684968401A81B2DC2001530121E520E8
:1022D0000155DE20025BE0200159204601F070FE2E
:1022E00038BD10B50446204601F086FD10BD70B51E
:1022F00004460E46E520005D012801D0002070BD97
:10230000DC20055B29463046FEF702F8E020015943
:102310002A463046FDF7E3FF0021E5200155284617
:10232000EDE770B504460D461646FF2332462946B2
:10233000204601F0A9FE70BD70B504460E46154654
:1023400000BF04F1400000F00DF90128F9D1A4F814
:10235000E850B4F8E8203146204601F0FFFE70BD99
:10236000704770470146002291F82100022808D0EA
:102370000420886300BF002081F8200000BF0120F6
:1023800070470868006820F00E000B681860086845
:10239000006820F001000B68186091F840300120BF
:1023A0009840CB6B5860012081F8210000BF0020CD
:1023B00081F8200000BF1046E2E7000070B5044637
:1023C000002594F82100022803D00420A0630125F1
:1023D000C1E02068006820F00E00216808602068D5
:1023E000006820F00100216808605C49206888428C
:1023F00052D95A4978392068884201D1012047E0F2
:10240000564964392068884201D1102040E0534980
:1024100050392068884201D1801539E04F493C3954
:102420002068884201D1801432E04C492839206864
:10243000884202D14FF480302AE04849143920689C
:10244000884202D14FF4801022E04449206888423B
:1024500001D140041CE042492068884201D101209A
:1024600016E03F4914312068884201D110200FE066
:102470003B4928312068884201D1801508E038495D
:102480003C312068884201D1801401E04FF4803053
:102490003349091F086051E0304978392068884283
:1024A00001D1012047E02D4964392068884201D1DB
:1024B000102040E0294950392068884201D1801518
:1024C00039E026493C392068884201D1801432E045
:1024D000224928392068884202D14FF480302AE00E
:1024E0001E4914392068884202D14FF4801022E03E
:1024F0001A492068884201D140041CE0184920682C
:10250000884201D1012016E0154914312068884223
:1025100001D110200FE0124928312068884201D1F2
:10252000801508E00E493C312068884201D18014B2
:1025300001E04FF48030094980394860012084F877
:10254000210000BF002084F8200000BF606B10B1A4
:102550002046616B8847284670BD0000800002401D
:1025600008040240014691F82100704770B5044606
:10257000E06B05682068066894F8401004208840E5
:102580002840002875D006F004000028FAD0206802
:10259000006800F0200028B92068006820F00400DE
:1025A00021680860D5492068884254D9D3497839D0
:1025B0002068884201D1042049E0D049643920686C
:1025C000884201D1402042E0CC49503920688842FD
:1025D00001D100153BE0C9493C392068884202D14D
:1025E0004FF4804033E0C54928392068884202D141
:1025F0004FF480202BE0C14914392068884202D171
:102600004FF4800023E0BD492068884201D1C00416
:102610001DE0BB492068884201D1042017E0B84979
:1026200014312068884201D1402010E0B44928319B
:102630002068884201D1001509E0B1493C31206889
:10264000884202D14FF4804001E04FF48020AC4931
:10265000091F086054E0A94978392068884201D1EF
:1026600004204AE0A54964392068884202D140200C
:1026700043E04CE0A14950392068884201D100155F
:102680003BE09E493C392068884202D14FF48040AB
:1026900033E09A4928392068884202D14FF48020DB
:1026A0002BE0964914392068884202D14FF480000B
:1026B00023E092492068884201D1C0041DE090497E
:1026C0002068884201D1042017E08D491431206828
:1026D000884201D1402010E0894928312068884291
:1026E00001D1001509E086493C312068884202D1B9
:1026F0004FF4804001E04FF48020804980394860E9
:10270000E06A002802D02046E16A8847F4E094F8A5
:102710004010022088402840002871D006F00200B6
:102720000028FAD02068006800F0200040B9206836
:10273000006820F00A0021680860012084F8210068
:102740006E492068884254D96C497839206888429B
:1027500001D1022049E0694964392068884201D1E9
:10276000202042E0654950392068884201D1401557
:102770003BE062493C392068884202D14FF4005066
:1027800033E05E4928392068884202D14FF4003096
:102790002BE05A4914392068884202D14FF40010C6
:1027A00023E056492068884201D180041DE0544945
:1027B0002068884201D1022017E051491431206875
:1027C000884201D1202010E04D49283120688842FC
:1027D00001D1401509E04A493C312068884202D1C4
:1027E0004FF4005001E04FF400304549091F0860E4
:1027F00054E0424978392068884202D102204AE0F8
:1028000057E03E4964392068884201D1202042E0E7
:102810003A4950392068884201D140153BE0374998
:102820003C392068884202D14FF4005033E03349EC
:1028300028392068884202D14FF400302BE02F491C
:1028400014392068884202D14FF4001023E02B494C
:102850002068884201D180041DE02949206888420F
:1028600001D1022017E0264914312068884201D1A5
:10287000202010E0224928312068884201D14015EB
:1028800009E01F493C312068884202D14FF40050D2
:1028900001E04FF4003019498039486000BF002042
:1028A00084F8200000BFA06A30B32046A16A8847A0
:1028B00022E094F84010082088402840E0B106F05B
:1028C0000800C8B12068006820F00E002168086088
:1028D00094F8401001208840E16B48600120A0631B
:1028E00084F8210000BF002084F8200000BF206B86
:1028F00010B12046216B884770BD00008000024067
:10290000080402400146002209B9012070471E4B0D
:10291000086898420BD21D4B0868C01A1423B0FBFC
:10292000F3F08000086419480838C8630AE0164BC1
:102930000868C01A1423B0FBF3F080000864124842
:102940000838C863022081F821000868026843F64D
:10295000F0708243D1E901031843CB6818430B6937
:1029600018434B6918438B691843CB6918430243DA
:102970000868026000208863012081F8210000209F
:1029800081F8200000BFC1E70804024008000240AF
:102990002DE9F04104460D4616461F464FF000084B
:1029A00000BF94F82000012802D10220BDE8F08188
:1029B000012084F8200000BF94F8210001282CD1C8
:1029C000022084F821000020A0632068006820F025
:1029D0000100216808603B46324629462046FFF741
:1029E000F3F9E06A30B12068006840F00E00216819
:1029F00008600BE02068006820F00400216808608F
:102A00002068006840F00A002168086020680068BB
:102A100040F001002168086006E000BF002084F853
:102A2000200000BF4FF002084046BFE72DE9F847FD
:102A3000024600239C467BE14FF0010808FA03F4AC
:102A4000D1F8008008EA0400A0427DD1DFF8F4A2AA
:102A5000D1F80480A8EB0A09D0453AD014DCB8F1CB
:102A6000030F50D009DCB8F1000F31D0B8F1010FDD
:102A70001CD0B8F1020F49D120E0B8F1110F18D0E5
:102A8000B8F1120F42D11EE0B9F5881F25D006DC3F
:102A9000B9F5803F20D0B9F5801F37D11AE0B9F5DC
:102AA000001F18D0B9F5041F30D117E0D1F80CC0C1
:102AB0002DE0D1F80C8008F1040C28E0D1F80C804E
:102AC00008F1080C23E0D1F80C8008F10C0C1EE092
:102AD00000BF00BF00BF00BF00BF00BFD1F808802B
:102AE000B8F1000F02D14FF0040C0BE0D1F80880D0
:102AF000B8F1010F03D14FF0080C146102E04FF060
:102B0000080C546103E04FF0000C00E000BF00BF70
:102B1000FF2801D8904601E002F104084646FF284C
:102B200002D84FEA830803E0A3F108084FEA8808B7
:102B30004746D6F800804FF00F0909FA07F928EA4E
:102B400009080CFA07F900E07AE048EA0908C6F833
:102B50000080D1F8048008F08058B8F1805F6FD110
:102B600000BFDFF8E481D8F8188048F00108DFF8EA
:102B7000D891C9F81880C846D8F8188008F001081C
:102B8000CDF8008000BF00BF4FEAB9384FEA930983
:102B900058F829504FEA83784FEA18794FF00F0818
:102BA00008FA09F825EA0805DFF8A081424502D1B4
:102BB0004FF0000824E0DFF89881424502D14FF041
:102BC00001081DE0DFF88C81424502D14FF0020878
:102BD00016E0DFF88481424502D14FF003080FE090
:102BE000DFF87881424502D14FF0040808E0DFF8B1
:102BF0007081424502D14FF0050801E04FF0060810
:102C00004FEA83794FEA197908FA09F848EA050585
:102C1000DFF850814FEA930948F82950D1F8048031
:102C200008F48038B8F5803F0BD1DFF83C81D8F844
:102C3000008048EA0008DFF83091C9F800800AE017
:102C400075E0DFF82481D8F8008028EA0008DFF872
:102C50001891C9F80080D1F8048008F40038B8F55C
:102C6000003F0ED1DFF8008108F10408D8F8008099
:102C700048EA0008DFF8F09009F10409C9F800807B
:102C80000DE0DFF8E48008F10408D8F8008028EAB5
:102C90000008DFF8D49009F10409C9F80080D1F8E0
:102CA000048008F48018B8F5801F0ED1DFF8B880D2
:102CB00008F10808D8F8008048EA0008DFF8A89072
:102CC00009F10809C9F800800DE0DFF89C8008F1DF
:102CD0000808D8F8008028EA0008DFF88C9009F18D
:102CE0000809C9F80080D1F8048008F40018B8F584
:102CF000001F0ED1DFF8708008F10C08D8F80080B2
:102D000048EA0008DFF8609009F10C09C9F8008072
:102D10000DE0DFF8548008F10C08D8F8008028EAAC
:102D20000008DFF8449009F10C09C9F800805B1C29
:102D3000D1F8008028FA03F8B8F1000F7FF47CAED8
:102D4000BDE8F887000011100010024000080140A3
:102D5000000C014000100140001401400018014027
:102D6000001C014008000140000401400246936835
:102D70000B400BB1012000E0002070470AB1016157
:102D800001E00B04036170470148006870470000D0
:102D90003C11002010B50848006840F010000649BA
:102DA0000860032000F0D2F8002000F007F800F0DF
:102DB0002BF8002010BD00000020024070B5044632
:102DC0000E4800784FF47A71B1FBF0F00C490968B5
:102DD000B1FBF0F5284600F095FE08B1012070BD6A
:102DE000102C07D200222146501E00F071F8054831
:102DF000046001E00120F2E70020F0E74411002028
:102E0000481100204011002008B5032000F09EF872
:102E100000BF2548806940F00100234988610846C9
:102E2000806900F00100009000BF00BF00BF0846AD
:102E3000C06940F08050C8610846C06900F0805009
:102E4000009000BF00BF002211466FF00B0000F0A1
:102E50003FF8002211466FF00A0000F039F8002216
:102E600011466FF0090000F033F800221146501FA0
:102E700000F02EF800221146101F00F029F8002261
:102E80000F21901E00F024F800220F21501E00F0A8
:102E90001FF800BF0549486820F0E06040F000706E
:102EA000486000BF08BD0000001002400000014063
:102EB00001460846002809DB00F01F0301229A4062
:102EC00043099B0003F1E023C3F8002100BF7047D2
:102ED0002DE9F05F80460D461646002705F0DEFA24
:102EE000074639462A46334601F00700C0F1070A73
:102EF000BAF1040F02D94FF0040A01E0C0F1070A49
:102F0000D14600F1040ABAF1070F02D24FF0000ACD
:102F100001E0A0F1030AD4464FF0010A0AFA09FAC7
:102F2000AAF1010A0AEA020A0AFA0CFA4FF0010BA6
:102F30000BFA0CFBABF1010B0BEA030B4AEA0B0497
:102F40002146404605F0B2FABDE8F09F00BF00F010
:102F50000702064B19684FF6FF031940044B0B4359
:102F600043EA0221014B196000BF70470CED00E0FD
:102F70000000FA0570B504460D460CB9012070BD7D
:102F80005A48006800F00700A8420ED2574800686F
:102F900020F007002843554908600846006800F003
:102FA0000700A84201D00120E9E7207800F00200E4
:102FB00002281DD1207800F00400042805D14C48D7
:102FC000406840F4E0604A494860207800F008001A
:102FD000082805D14648406840F46050444948609C
:102FE0004348406820F0F000A16808434049486029
:102FF000207800F0010078B36068012806D13C48D1
:10300000006800F4003090B90120B8E76068022839
:1030100006D13748006800F0007040B90120AEE7E3
:103020003348006800F0020008B90120A7E73048E3
:10303000406820F00300616808432D494860FFF7AD
:10304000A3FE064609E0FFF79FFE801B41F2883190
:10305000884202D9032092E707E02548406800F043
:103060000C006168B0EB810FEDD12048006800F0E2
:103070000700A8420ED91D48006820F00700284329
:103080001A4908600846006800F00700A84201D00D
:10309000012074E7207800F00400042807D11448C8
:1030A000406820F4E060E1680843114948602078F6
:1030B00000F00800082808D10D48406820F460504E
:1030C000216940EAC1000A49486000F03FF8084918
:1030D0004968C1F30311074A515CC84006490860BA
:1030E00006480068FFF76AFE002048E7002002401B
:1030F00000100240A7AF0008481100204011002036
:1031000001480068704700004811002000B5FFF733
:10311000F7FF04494968C1F30221034A515CC840E2
:1031200000BD000000100240B7AF000800B5FFF777
:10313000E7FF04494968C1F3C221034A515CC84012
:1031400000BD000000100240B7AF0008F0B585B028
:103150000FF26C0C9CE8E01001A8A0E8E0101CA5A0
:103160002D68009500210022002300240020194D25
:10317000696801F00C05F5B1042D02D0082D19D1B4
:1031800001E0154819E001ADC1F38346AC5D01F4DF
:10319000803555B10F4D6D68C5F340451DF80520CC
:1031A0000D4D6543B5FBF2F302E00C4D04FB05F356
:1031B000184602E000BF084800BF00BF05B0F0BDE0
:1031C00002030405060708090A0B0C0D0E0F101068
:1031D000010200000010024000127A0000093D00C8
:1031E000F8B504460CB90120F8BD207800F00100C4
:1031F000002878D0F848406800F00C0004280CD073
:10320000F548406800F00C00082811D1F2484068E9
:1032100000F48030B0F5803F0AD1EF48006800F438
:10322000003000285FD0606800285CD10120DBE717
:1032300000BF6068B0F5803F06D1E748006840F401
:103240008030E549086028E0606858B9E2480068C5
:1032500020F48030E04908600846006820F48020AF
:1032600008601AE06068B0F5A02F0BD1DA4800685A
:1032700040F48020D84908600846006840F4803057
:1032800008600AE0D448006820F48030D249086021
:103290000846006820F48020086000BF606888B19C
:1032A000FFF772FD054606E0FFF76EFD401B642840
:1032B00001D9032098E7C848006800F400300028CE
:1032C000F2D010E0FFF760FD054606E0FFF75CFD79
:1032D000401B642801D9032086E7BF48006800F43A
:1032E00000300028F2D1207800F00200022857D1E7
:1032F000B948406800F00C0050B1B748406800F091
:103300000C00082818D1B448406800F4803098B9FF
:10331000B148006800F0020020B12069012801D006
:10332000012061E7AC48006820F0F800616940EADC
:10333000C100A949086033E02069E8B10120A7492C
:103340000860FFF721FD054606E0FFF71DFD401B65
:10335000022801D9032047E79F48006800F00200D7
:103360000028F2D09C48006820F0F800616940EA2B
:10337000C1009949086013E0002098490860FFF7F0
:1033800003FD054606E0FFF7FFFC401B022801D9BC
:10339000032029E79048006800F002000028F2D1DD
:1033A000207800F0080008282DD1A069B8B10120CC
:1033B0008B490860FFF7E8FC054606E0FFF7E4FCF0
:1033C000401B022801D903200EE78348406A00F021
:1033D00002000028F2D0012001F068FD13E0002077
:1033E0007F490860FFF7D0FC054606E0FFF7CCFCFC
:1033F000401B022801D90320F6E67748406A00F016
:1034000002000028F2D1207800F00400042873D1D3
:1034100000277148C06900F0805070B900BF6E4845
:10342000C06940F080506C49C8610846C06900F02E
:103430008050009000BF00BF01276A48006800F478
:103440008070B0B96748006840F4807065490860D2
:10345000FFF79AFC054606E0FFF796FC401B642840
:1034600001D90320C0E65F48006800F4807000289E
:10347000F2D000BFE068012806D15748006A40F04A
:1034800001005549086227E0E06858B95248006ACF
:1034900020F00100504908620846006A20F004004C
:1034A000086219E0E06805280BD14B48006A40F03B
:1034B0000400494908620846006A40F001000862B9
:1034C0000AE04548006A20F00100434908620846C6
:1034D000006A20F00400086200BFE068A0B1FFF7B6
:1034E00053FC054609E0FFF74FFC401B41F28831D1
:1034F000884202D9032077E622E03748006A00F0CC
:1035000002000028EFD012E0FFF73EFC054608E07D
:10351000FFF73AFC401B41F28831884201D9032071
:1035200062E62D48006A00F002000028F0D1012F69
:1035300005D12948C06920F080502749C86100BFE3
:10354000E069C8B32448406800F00C00082860D047
:10355000E069022848D1002020490866FFF714FCE2
:10356000054606E0FFF710FC401B022801D90320A6
:103570003AE61948006800F000700028F2D1206A8D
:10358000B0F5803F07D11448406820F40030A168AE
:10359000084311494860D4E9080108430E494968C5
:1035A00021F4741108430C49486001200B49086656
:1035B000FFF7EAFB054607E03DE0FFF7E5FB401BB0
:1035C000022801D903200FE60348006800F00070CC
:1035D0000028F2D02FE0000000100240000042421C
:1035E0008004424200700040002014490866FFF742
:1035F000CBFB054606E0FFF7C7FB401B022801D9BD
:103600000320F1E50E48006800F000700028F2D1B8
:1036100011E0E069012800D1E6E50948466806F4B2
:103620008031206A814204D106F47011606A8142BF
:1036300001D00120D8E50020D6E50000000042427C
:103640000010024010B504460CB9012010BD606A9C
:1036500038B96068B0F5827F00D105E00021E161F2
:1036600002E00021216161610021A16294F8510012
:1036700028B9002084F85000204600F042F80220CB
:1036800084F851002068006820F04000216808603C
:10369000A08800F48270218901F404410843A189C3
:1036A00001F400610843217C01F002010843217DFF
:1036B00001F001010843218B01F400710843217FCF
:1036C00001F0380108432021095D01F08001084321
:1036D000218D01F400510843216808600421A0698C
:1036E00001EA1040216848602068C06920F4006049
:1036F0002168C86100206065012084F85100002025
:10370000A4E770472DE9F84F0446884616461D4643
:103710004FF0000A00BF94F85000012802D10220A7
:10372000BDE8F88F012084F8500000BFFFF72CFBA4
:103730000746B14694F85100012802D04FF0020A22
:10374000ADE0B8F1000F00D016B94FF0010AA6E0C5
:10375000032084F8510000206065C4F83080A686FC
:10376000E686A063A087E08760642064A068B0F567
:10377000004F0BD12068006820F0400021680860ED
:103780002068006840F48040216808602068006874
:1037900000F04000402805D02068006840F040005C
:1037A00021680860E068B0F5006F2FD1606810B143
:1037B000B9F1010F09D1206B00882168C860206B26
:1037C000801C2063E08E401EE0861BE0206880683D
:1037D00000F0020002280AD1206B00882168C8602E
:1037E000206B801C2063E08E401EE0860AE0FFF71D
:1037F000CBFAC01BA84201D3681C00B915B94FF021
:10380000030A4CE0E08E0028E0D12EE0606810B1A1
:10381000B9F1010F09D1206B007821680873206B82
:10382000401C2063E08E401EE0861BE0206880681C
:1038300000F0020002280AD1206B0078216808738A
:10384000206B401C2063E08E401EE0860AE0FFF7FC
:103850009BFAC01BA84201D3681C00B915B94FF0F0
:10386000030A1CE0E08E0028E0D13A4629462046B3
:1038700001F035FB08B120206065A06850B900BF99
:10388000002000902068C068009020688068009048
:1038900000BF00BF606D08B14FF0010A00BF0120FA
:1038A00084F8510000BF002084F8500000BF50464B
:1038B00036E72DE9FF5F0446884691461D460E9E79
:1038C000012002900020019000BF94F850000128D0
:1038D00003D1022004B0BDE8F09F012084F850001D
:1038E00000BFFFF751FA074694F851B060680390A3
:1038F000AA46BBF1010F0BD00398B0F5827F04D12B
:10390000A06810B9BBF1040F02D002200190DBE0E7
:10391000B8F1000F03D0B9F1000F00D015B90120A4
:103920000190D1E094F85100042802D0052084F8D9
:10393000510000206065C4F83890E587A587C4F879
:103940003080E586A586206460642068006800F009
:103950004000402805D02068006840F04000216801
:103960000860E068B0F5006F4AD1606810B1BAF144
:10397000010F09D1206B00882168C860206B801C72
:103980002063E08E401EE08633E02068806800F00F
:103990000200022810D1E08E70B1029801280BD1EC
:1039A000206B00882168C860206B801C2063E08E3B
:1039B000401EE086002002902068806800F0010030
:1039C00068B1E08F58B12068C068A16B0880A06B17
:1039D000801CA063E08F401EE08701200290FFF76B
:1039E000D3F9C01BB04204D3701C10B10320019066
:1039F0006AE0E08E0028C8D1E08F0028C5D14AE0F7
:103A0000606810B1BAF1010F09D1206B007821680C
:103A10000873206B401C2063E08E401EE08634E07B
:103A20002068806800F00200022810D1E08E70B19A
:103A3000029801280BD1206B007821680873206B55
:103A4000401C2063E08E401EE0860020029020682B
:103A5000806800F0010068B1E08F58B12068C0684C
:103A6000A16B0870A06B401CA063E08F401EE08734
:103A700001200290FFF788F9C01BB04201D3701CEF
:103A800000B916B9032001901EE0E08E0028C7D1CE
:103A9000E08F0028C4D13A463146204601F01FFA93
:103AA00020B101200190202060650DE0A06850B990
:103AB00000BF002000902068C068009020688068E7
:103AC000009000BF00BF00BF012084F8510000BF7C
:103AD000002084F8500000BF0198FBE6042808D1BC
:103AE0004FF0E021096941F004014FF0E02211613B
:103AF00007E04FF0E021096921F004014FF0E022D6
:103B00001161704770B504462546681EB0F1807F8C
:103B100001D301200FE0681E4FF0E02148610F2122
:103B20004FF0FF3004F0C2FC00204FF0E02188612C
:103B300007200861002070BD70B504460D4616468A
:103B400000BF94F83C00012801D1022070BD012083
:103B500084F83C0000BF36B1042E1BD0082E31D0B3
:103B60000C2E5ED145E02946206803F003FE206854
:103B7000806940F00800216888612068806920F031
:103B800004002168886120688069296908432168E8
:103B9000886147E02946206803F024FE2068806998
:103BA00040F40060216888612068806920F48060AA
:103BB0002168886120688069296940EA01202168BC
:103BC00088612FE02946206803F04AFE2068C0691A
:103BD00040F008002168C8612068C06920F0040036
:103BE0002168C8612068C069296908432168C861E3
:103BF00018E02946206803F06FFE2068C06940F491
:103C000000602168C8612068C06920F48060216874
:103C1000C8612068C069296940EA01202168C8613B
:103C200000E000BF00BF00BF002084F83C0000BFE0
:103C300000BF8BE710B504460CB9012010BD94F805
:103C40003D0028B9002084F83C00204600F025F80B
:103C5000022084F83D00211D206803F02BFD012087
:103C600084F8460000BF84F83E0001213F20015542
:103C7000402001554120015500BF00BF012084F8BC
:103C8000420043200155442001554520015500BF05
:103C9000012084F83D000020D0E7704770B504464D
:103CA0000D4615B994F83E000BE0042D02D13F20DB
:103CB000005D06E0082D02D14020005D01E04120BA
:103CC000005D012801D0012070BD1DB9022084F8DB
:103CD0003E000EE0042D03D102213F20015508E0F3
:103CE000082D03D102214020015502E0022141208C
:103CF000015501222946206803F02AFD1F4920684A
:103D0000884203D01E492068884201D1012000E08A
:103D1000002028B12068406C40F4004021684864CD
:103D200016492068884213D01549206888420FD070
:103D30002068B0F1804F0BD012492068884207D02C
:103D400011492068884203D01049206888420CD16C
:103D50002068806800F00706062E0CD020680068F6
:103D600040F001002168086005E02068006840F02C
:103D70000100216808600020A6E70000002C014037
:103D8000003401400004004000080040000C0040E6
:103D900070B50446002520684069C0F3C01594F84A
:103DA000390021280ED16DB12068406920F08000D3
:103DB00021684861206B10B1206BFEF7D3FA2046D2
:103DC00004F0CBF820684069C0F3801594F83A00FD
:103DD00022280ED16DB12068406920F04000216892
:103DE0004861606B10B1606BFEF7BCFA204604F0CE
:103DF00094F8002070BD70472DE9F0470446206814
:103E000005682068C668206847694FF00008C14609
:103E100005F00F08B8F1000F0AD105F0200038B105
:103E200006F0200020B1204604F0A1F8BDE8F0879C
:103E3000B8F1000F71D007F0010018B906F49070C6
:103E400000286AD005F0010030B106F4807018B186
:103E5000E06B40F00100E06305F0040030B107F0D2
:103E6000010018B1E06B40F00200E06305F00200D1
:103E700030B107F0010018B1E06B40F00400E063DE
:103E800005F0080048B106F0200010B907F0010065
:103E900018B1E06B40F00800E063E06B68B305F038
:103EA000200028B106F0200010B1204604F05FF891
:103EB00020684069C0F38019E06B00F0080010B979
:103EC000B9F1000F22D0204604F027F8206840699D
:103ED00000F04000B0B12068406920F04000216847
:103EE0004861606B50B11848616B4863606BFEF7C6
:103EF00065FA10B1606B416B88470CE02046FFF714
:103F00007AFF08E02046FFF776FF04E02046FFF73F
:103F100072FF0020E06389E7FFE705F0800030B121
:103F200006F0800018B1204604F0F0F87EE705F0B6
:103F3000400030B106F0400018B1204603F0FDFF0C
:103F400074E700BF72E700001F7E000810B504464A
:103F50000CB9012010BDA06900B100E000BF94F8C9
:103F6000390028B9002084F83800204600F027F8EE
:103F7000242084F839002068C06820F400502168AB
:103F8000C860204604F044F82068006920F490409E
:103F9000216808612068406920F02A002168486192
:103FA0002068C06840F400502168C8600020E063C9
:103FB000202084F8390084F83A000020CAE77047CE
:103FC00077B581B00446154694F83A00202850D1C0
:103FD000029800B115B9012004B070BD00BF94F87B
:103FE0003800012801D10220F6E7012084F83800CA
:103FF00000BF0298A062A5850020E063222084F81B
:104000003A001D48616B88621C48616BC8621C489D
:10401000616B08630020616B486302AE32682368FD
:10402000191D2B46606BFEF7B3FC00BF002000900B
:1040300020680068009020684068009000BF00BFC2
:1040400000BF002084F8380000BF2068C06840F43A
:1040500080702168C8602068406940F001002168D4
:1040600048612068406940F04000216848610020B4
:10407000B2E70220B0E70000837E0008C97E000896
:10408000337E0008704770472DE9F84F04460E460E
:10409000174699464FF0000A94F8390020285AD163
:1040A00006B117B90120BDE8F88F00BF94F83800B9
:1040B000012801D10220F6E7012084F8380000BF72
:1040C0000020E063212084F83900FEF75DFE82467F
:1040D000A784E784A068B0F5805F04D1206910B997
:1040E0000025B04602E035464FF0000800BF002032
:1040F00084F8380000BF1BE0534600228021204690
:10410000CDF8009004F032F808B10320CBE745B9B0
:10411000B8F80000C0F308002168486008F1020800
:1041200003E02878216848606D1CE08C401EE08424
:10413000E08C0028E0D15346002240212046CDF8F3
:10414000009004F013F808B10320ACE7202084F8B5
:1041500039000020A7E70220A5E70000F7B50446D4
:10416000154694F8390020283DD1019800B10DB9C9
:104170000120FEBD00BF94F83800012801D10220C3
:10418000F7E7012084F8380000BF01982062A58479
:10419000E5840020E063212084F839001348216B76
:1041A00088621348216BC8621248216B08630020A3
:1041B000216B486301AE23681A1D31682B46206BC2
:1041C000FEF7E6FB6FF040002168086000BF0020AA
:1041D00084F8380000BF2068406940F08000216802
:1041E00048610020C5E70220C3E70000D77E000831
:1041F0000D7F0008337E00087047704704E003F02D
:1042000015FC0120FDF7FFFDF9E704E003F094FC45
:104210000120FDF7F8FDF9E705E003F001FD4FF49B
:10422000C870FDF7F0FDF8E705E003F02FFD4FF44F
:104230001670FDF7E8FDF8E700BFFEE700BFFEE7F8
:1042400070B5044614B94FF0FF3070BD4148C4F852
:10425000B800372084F8BC00002084F8BD004FF47B
:10426000827060600021A160E16002212161012172
:1042700061614902A1610021E16121626162A16283
:104280000721E1622046FDF77DFF00F0AAFE2046EF
:10429000FDF789FC05460DB12846D6E700F0A1FEE2
:1042A0002046FDF7C9FB054615B16FF01400CCE7B9
:1042B00002212046FDF7E6FC05460DB12846C4E77D
:1042C00000F08FFE2046FDF781FC05460DB1284623
:1042D000BBE700F086FE06212046FDF788FB064678
:1042E00016B94FF0FF30B0E72046FDF71CFA05463F
:1042F00015B14FF0FF30A8E70FE03068072801D173
:104300000C360AE000F06DFE31782046FDF7BAFC6D
:10431000054605B105E00C3600BF16B130683028FF
:10432000EBD100BF00F05DFE38212046FDF7AAFC6E
:1043300005460DB1284688E700F053FE01212046CE
:10434000FDF7A0FC05460DB128467EE700F049FECA
:1043500028467AE7781200202DE9F04F95B0044600
:104360008B460025002009900890079014B1D4F8DE
:10437000B80020B96FF0150015B0BDE8F08FFEF75A
:1043800003FD089000260CE0002104F1C00000EBC2
:104390004610416004F1C00202EB46129161D16106
:1043A000761C94F84002B042EEDC00BF00263FE0ED
:1043B00041F288312046FDF732FC1390139810B17A
:1043C0006FF01900D8E704212046FDF710FB824664
:1043D000BAF1000F02D16FF01500CDE7042120469D
:1043E000FDF746FB139908431390139810B16FF033
:1043F0001600C1E7DAF8049009F0FF0012904FEAC6
:10440000192900BF00250EE004F1C00000EB4510A3
:1044100041781298814205D104F1C00000EB4510AB
:10442000C0F804906D1C94F84002A842ECDC761CA5
:1044300094F84002B042BBDC002573E004F1C000F8
:1044400000EB4510D0F80490B9F1000F0BD1FEF746
:104450009BFC0899401A07900798584502D96FF0BD
:104460001B0089E7A2E704F1C00000EB451040788B
:104470000C2817DA4846FCF7D7FC0022324BCDE96E
:104480000001FCF7CCFB0022304BCDE90201FCF728
:1044900038FC00222C4BCDE90401FCF7BAFB07469F
:1044A000884616E04846FCF7BFFC294A294BCDE96F
:1044B0000001FCF7B4FB0022244BCDE90201FCF71C
:1044C00020FC234A234BCDE90401FCF7A2FB07465D
:1044D000884604F1C00000EB4510C1688068CDE952
:1044E0000C0104F1C00000EB451041690069CDE901
:1044F0000E01DDE90C013A464346CDE90201FCF725
:104500008EFBCDE90401DDE90E01CDE90201DDE913
:104510000423FCF7DDFA04F1C00202EB4512C2E904
:1045200006016D1C94F84002A84287DCFEF72CFCC3
:104530000899401A07900798584502D96FF01B0058
:104540001AE7002018E70000000039400000604131
:104550009A9999999999A93F10B504462046FDF773
:104560002DFDC820FDF74FFC04230E22D02120464C
:1045700000F014FEC820FDF746FC00230F22D021D6
:10458000204600F00BFEC820FDF73DFC10BD70B5C5
:1045900005460C460622D021284600F0C4FD2070B6
:1045A0000522D021284600F0BEFD60700422D021F3
:1045B000284600F0B8FDA0700222D021284600F065
:1045C000B2FDE0700122D021284600F0ACFD207140
:1045D0000022D021284600F0A6FD60710322D021E0
:1045E000284600F0A0FDA071012070BD70B5054601
:1045F0000C4600BF23780622D021284600F0CEFDCD
:1046000008B9002070BD63780522D021284600F04B
:10461000C5FD08B90020F5E7A3780422D02128467B
:1046200000F0BCFD08B90020ECE7E3780222D021BD
:10463000284600F0B3FD08B90020E3E72379012202
:10464000D021284600F0AAFD08B90020DAE76379F6
:104650000022D021284600F0A1FD08B90020D1E7B2
:10466000A3790322D021284600F098FD08B9002044
:10467000C8E700BF0120C5E71CB5044606A103C971
:10468000CDE9000140F22D10005D8DF80300694670
:10469000204601F00BF81CBDFFAA2400000000001A
:1046A00010B50446204600F08FFF2046FDF794FD2C
:1046B000204600F0B7F9204600F0C8F9204600F087
:1046C000D9F9204600F09AF92046FFF7D5FF0021DE
:1046D000204600F081F910BD70B504464FF4957086
:1046E000005B00F4007090B3B4F93801FCF778FB7C
:1046F00006464FF08E41FCF7ADF905464FF0834179
:10470000FCF776F94FF4A0710851B4F93A01FCF7BF
:1047100067FB06464FF08E41FCF79CF905464FF0CB
:104720008341FCF765F94FF4A2710851B4F93C01DB
:10473000FCF756FB06464FF08E41FCF78BF9054619
:104740004FF08341FCF754F94FF4A47108514FF432
:104750009570005B00F4806078B3B4F94C01FCF70D
:104760003FFB06464FF08E41FCF774F9054657496A
:10477000FCF73EF94FF4AA710851B4F94E01FCF769
:104780002FFB06464FF08E41FCF764F905464F4972
:10479000FCF72EF94FF4AC710851B4F95001FCF755
:1047A0001FFB06464FF08E41FCF754F9054647497A
:1047B000FCF71EF94FF4AE7108514FF49570005B91
:1047C00000F4006078B3B4F96001FCF709FB064619
:1047D0004FF08E41FCF73EF905463D49FCF708F9DC
:1047E0004FF4B4710851B4F96201FCF7F9FA0646C6
:1047F0004FF08E41FCF72EF905463549FCF7F8F8E5
:104800004FF4B6710851B4F96401FCF7E9FA0646B1
:104810004FF08E41FCF71EF905462D49FCF7E8F8EC
:104820004FF4B87108514FF49570005B00F480505C
:10483000A0B1B4F97401FCF7D3FA4FF4BE7108517A
:10484000B4F97601FCF7CCFA4FF4C0710851B4F911
:104850007801FCF7C5FA4FF4C27108514FF4957016
:10486000005D00F0020078B3B4F98801FCF7B8FAF3
:1048700005464FF08E41FCF7EDF84FF4C871085132
:10488000B4F98A01FCF7ACFA05464FF08E41FCF70B
:10489000E1F84FF4CA710851B4F98C01FCF7A0FAA1
:1048A00005464FF08E41FCF7D5F84FF4CC71085116
:1048B000B4F98E01FCF794FA05464FF08E41FCF7EF
:1048C000C9F84FF4CE71085170BD00000000FA44E1
:1048D0000000344330B50146E520405C002879D023
:1048E00000206DE0E0225258125C552A66D1002368
:1048F000002206E0E02464588518645D1C44E3B29D
:10490000521C0A2AF6DBE022545800F10A02A25C8B
:104910009A4251D1E0225458421CA25C503A0A2AD1
:1049200048D2DFE802F005101B2631474747473CD5
:10493000E0225458821C14442568C1F82E51646842
:10494000C1F8324137E0E0225458821C14442568F3
:10495000C1F838516468C1F83C412CE0E022545859
:10496000821C14442568C1F84C516468C1F8504158
:1049700021E0E0225458821C14442568C1F860519B
:104980006468C1F8644116E0E0225458821C144463
:104990002568C1F874516468C1F878410BE0E022E1
:1049A0005458821C14442568C1F888516468C1F8C1
:1049B0008C4100E000BF00E001E000BF00BF401CF0
:1049C000DC22525A82428DDC0022E5204254012032
:1049D00030BDFFE70020FBE77CB505460C4605A18E
:1049E00003C9CDE900018DF803406946284600F06F
:1049F0005DFE7CBDFFAA6300000000001CB50446FC
:104A000006A103C9CDE900014FF49670005D8DF851
:104A100003006946204600F049FE1CBDFFAA2300A2
:104A2000000000001CB5044606A103C9CDE9000141
:104A300094F828018DF803006946204600F036FE00
:104A40001CBD0000FFAA0400000000001CB50446C5
:104A500006A103C9CDE9000140F22910005D8DF8DF
:104A600003006946204600F021FE1CBDFFAA03009A
:104A7000000000001CB5044609A103C9CDE90001EE
:104A80004FF49570005B00128DF803004FF49570A1
:104A9000005D8DF804006946204600F007FE1CBD4D
:104AA000FFAA0200000000002DE9FC5F82469AF890
:104AB0001800062852D2DFE800F003101D2A374400
:104AC0004021504600F0B6FEDA49086050215046B9
:104AD00000F0B0FED849086040E04221504600F0A6
:104AE000A9FED44908605221504600F0A3FED249E5
:104AF000086033E04421504600F09CFECD49086038
:104B00005421504600F096FECB49086026E046212D
:104B1000504600F08FFEC74908605621504600F00D
:104B200089FEC549086019E04821504600F082FE20
:104B3000C04908605821504600F07CFEBE4908601C
:104B40000CE04A21504600F075FEBA4908605A212F
:104B5000504600F06FFEB849086000BF00BFB6497C
:104B6000DAF830000968A1EB0020B449086000239E
:104B7000DAF834000968CE17A0FB014703FB017186
:104B800000FB06114FF400022046FBF767FB4FF4D1
:104B9000FA614018AA4908604FF00003A748DAF804
:104BA000281000684FEAE076A1FB004703FB007085
:104BB00001FB06014FF480722046FBF74FFB4FF4D8
:104BC0000043DAF82020A2FB0323801859419D4AB4
:104BD00003C200239949DAF82C000968CE17A0FB1C
:104BE000014703FB017100FB061180222046FBF701
:104BF00035FB4FF48033DAF82420A2FB032380181E
:104C00005941914A03C28E480068642190FBF1F437
:104C10002046FCF7E5F8CAF8000086480068002343
:104C2000884AD2E9001CA0FB016B03FB01B100FB29
:104C30000C114FF400123046FBF710FB824B0CCBEB
:104C4000801A61EB03014FF400520023CDE900010B
:104C5000FBF704FB04460A220023FBF7FFFA804619
:104C6000FCF7CCF8CAF8040075480068B0F5FA6F94
:104C70005CDA03207149096880FB01236F480068F2
:104C8000C117A2FB004703FB007001FB02010022D9
:104C900002232046FBF7E2FA6C490860684909687C
:104CA000A1F5FA6101EB4101654A1268A2F5FA62C9
:104CB00001FB02F000EBD0714910654A11606049B8
:104CC0000968A1F5FA6101EB81015D4A1268A2F55C
:104CD000FA6201FB02F0C11700EB5171C9105D4A85
:104CE0001160574800685C4988423EDA54480068C1
:104CF00000F2DC50C0EBC0015148006800F2DC500B
:104D0000534A126801FB0020514908604C48006872
:104D100000F2DC5081004A48006800F2DC504D4A45
:104D2000126801FB00204B4908601EE04348006800
:104D300040434000C117044600222023FBF78EFAAF
:104D4000424908603E490968A1F5FA613C4A126887
:104D5000A2F5FA6201FB02F0C11700EB1171091113
:104D60003B4A116000203B4908603748D0E90030D9
:104D700037490968CA17591A60EB0200374AC2E975
:104D800000103048D0E9003032490968CA17591A72
:104D900060EB0200324AC2E9001026480068002297
:104DA0002F49D1E90031A0FB036B02FB03B201FBE9
:104DB00000214FF4001200233046FBF74FFA274A38
:104DC000D2E90032C41A61EB02012046FCF716F862
:104DD00081464FF08C41FBF73DFE80462149FBF7B1
:104DE00039FECAF80C0016490968184A1268881A70
:104DF000FBF7F6FF04461C49FBF72CFECAF8080037
:104E0000DAF80800CAF814001849DAF80C00FBF7C1
:104E1000E9FD06461649FBF71DFE05461549FBF759
:104E2000E7FD04461049FBF7E3FDCAF81000BDE8B2
:104E3000FC9F0000081100200C110020EC10002045
:104E4000F010002000110020F810002018110020A0
:104E5000101100201411002024FAFFFF201100205F
:104E600028110020000020410000C84200407D447D
:104E700000007A44CDCC1C4110B5044604F1380042
:104E8000FDF79CF8204600F042FD1420FCF7BBFF24
:104E9000204600F076FC1420FCF7B5FF204600F019
:104EA00023FC08B9002010BD0120FCE708B5084923
:104EB0000968C9084FF47A72B1FBF2F141430091DD
:104EC00000BF00BF00994A1E00920029F9D108BD19
:104ED0004811002010B5044602F0F6FE10BDF8B5EA
:104EE00004460D4616462B46002280212046009699
:104EF00000F00AF828B1606D40F0200060650320E2
:104F0000F8BD0020FCE700002DE9F84F04460D46EF
:104F100090461E46DDF82890FDF736FFA0EB09000D
:104F2000371AFDF731FF82462C480068C0F3CB30BA
:104F30007843009045E0701C002842D0FDF724FF24
:104F4000A0EB0A00B84200D2A7BB2068406820F05E
:104F5000E000216848606068B0F5827F0DD1A068EC
:104F6000B0F5004F03D0A068B0F5806F05D1206880
:104F7000006820F0400021680860A06AB0F5005F7A
:104F80000DD100BF2068006820F40050216808603F
:104F90002068006840F400502168086000BF0120CC
:104FA00084F8510000BF002084F8500000BF0320A7
:104FB000BDE8F88FFFE7009800B900270098401E71
:104FC0000090206880682840A84201D1012000E0BC
:104FD00000204045AFD10020EAE700004811002042
:104FE0007047002005E0002100E0491C0A29FCDB95
:104FF000401C42F210729042F5DB70472DE9F04FF1
:105000008FB08246C8215046FFF7A6F900F0FF0B8B
:10501000BBF1000F07D024A320222C492CA0CDF8EF
:1050200000B0FCF7A1FF0AF1C000D0E90623CDE9EA
:105030000C23D0E90E45D0E91667D0E91E23CDE94F
:105040000A23DAF85C91DAF85881A030C1698069E6
:10505000CDE908010AF5C070D0E90623CDE90623A1
:105060002030C1698069CDE904018DE8F0001AA003
:10507000DDE90C2303F0ECF9DDE90801CDE9008955
:10508000CDE9020119A0DDE90A2303F0E1F9DDE928
:105090000401CDE900011AA0DDE9062303F0D8F9E7
:1050A0000FB0BDE8F08F00004F43445F41443234FD
:1050B0006269745F476574526573756C74206572BC
:1050C000726F723A25640D0A0000000078AF000884
:1050D0004552524F5200000056302025662056316E
:1050E0002025662056322025660D0A0056332025DD
:1050F000662056342025662056352025660D0A0088
:1051000056362025662056372025660D0A0D0A00E2
:10511000002105E0002200E0521C0C2AFCDB491CA7
:105120008142F7DB70472DE9F04106460C461546F3
:1051300000273046FCF7A1FF21463046FCF772FFFE
:105140003046FCF7CAFF00B123E029463046FCF7A1
:1051500069FF3046FCF7C1FF00B11AE03046FCF7AA
:105160008CFF0120FFF7D4FF44F001013046FCF72B
:1051700059FF3046FCF7B1FF00B10AE0012130468B
:10518000FCF723FF07463046FCF78FFF3846BDE8A3
:10519000F0813046FCF789FF0020F8E72DE9F04167
:1051A00007460C4615461E463846FCF766FF04F0D7
:1051B000FE0421463846FCF735FF3846FCF78DFFE4
:1051C00000B117E029463846FCF72CFF3846FCF7BB
:1051D00084FF00B10EE031463846FCF723FF384625
:1051E000FCF77BFF00B105E03846FCF75EFF0120CD
:1051F000BDE8F0813846FCF758FF0020F8E70000D2
:1052000008B53F4A016991420DD100BF3D49896906
:1052100041F004013B4A91611146896901F00401A2
:10522000009100BF6BE0384A016991420DD100BF87
:105230003449896941F00801324A9161114689690E
:1052400001F00801009100BF59E0304A0169914224
:105250000DD100BF2B49896941F01001294A9161A4
:105260001146896901F01001009100BF47E0284A0A
:10527000016991420DD100BF2249896941F02001A5
:10528000204A91611146896901F02001009100BF17
:1052900035E0204A016991420DD100BF1949896961
:1052A00041F04001174A91611146896901F04001BE
:1052B000009100BF23E0184A016991420DD100BF5F
:1052C0001049896941F080010E4A9161114689694E
:1052D00001F08001009100BF11E0104A0169914284
:1052E0000DD100BF0749896941F48071054A916178
:1052F0001146896901F48071009100BF00BF08BDAB
:105300000008014000100240000C01400010014064
:105310000014014000180140001C01400020014021
:1053200010B504462068012808D1627D217D062041
:10533000FDF7CEFD0620FDF7BBFD69E020680228E1
:1053400008D1627D217D0720FDF7C2FD0720FDF712
:10535000AFFD5DE02068042808D1627D217D082032
:10536000FDF7B6FD0820FDF7A3FD51E020680828F1
:1053700008D1627D217D0920FDF7AAFD0920FDF7F6
:1053800097FD45E02068102808D1627D217D0A2024
:10539000FDF79EFD0A20FDF78BFD39E020682028EF
:1053A0000DD0206840280AD02068802807D02068C7
:1053B000B0F5807F03D02068B0F5007F08D1627D12
:1053C000217D1720FDF784FD1720FDF771FD1FE0FB
:1053D0002068B0F5806F13D02068B0F5006F0FD053
:1053E0002068B0F5805F0BD02068B0F5005F07D073
:1053F0002068B0F5804F03D02068B0F5004F07D18A
:10540000627D217D2820FDF763FD2820FDF750FDFA
:1054100010BD10B5044621462069FDF707FB10BDFD
:1054200000B58FB0282105A8FAF772FF142168464D
:10543000FAF76EFF01200590000406900020079007
:105440000120099002200C90C1030D914FF4E0114E
:105450000E9105A8FDF7C4FE08B100BFFEE70F20BE
:10546000009002200190002002904FF48060039091
:105470000020049002216846FDF77CFD08B100BFC2
:10548000FEE70FB000BD10B5FDF73AFE4FF47A719C
:10549000B0FBF1F42046FEF735FB0420FEF71EFBBF
:1054A00000220F21501EFDF713FD10BD10B504465C
:1054B0002046FCF7AEFC10BD10B50446228B91B21D
:1054C000A06AFDF753FC10BD10B50446228891B2C6
:1054D00001222069FDF752FC10BD10B50446228858
:1054E00091B200222069FDF749FC10BD10B50446B9
:1054F000228B91B20122A06AFDF740FC10BD1FB5BE
:10550000044600200090019002900390A069009052
:10551000002001900290032003906946A06AFDF7E5
:1055200085FA1FBD10B50446228B91B20022A06AF5
:10553000FDF724FC10BD1FB504460020009001902B
:1055400002900390A0690090012001900020029039
:10555000032003906946A06AFDF768FA1FBD10B5E5
:1055600004462046FFF7B9FF2046FFF7E4FF204638
:10557000FFF7D8FF0220FFF799FF2046FFF7A4FFAF
:105580000220FFF793FF2046FFF7A7FF10BD10B5DD
:1055900004462046FFF7A1FF2046FFF7CCFF204638
:1055A000FFF7A4FF0220FFF781FF2046FFF78CFFE3
:1055B0000220FFF77BFF2046FFF78FFF10BD10B5DD
:1055C0001420FCF720FC10BD90F828110A292ED2D7
:1055D000DFE801F005090D1115191D2125294FF4EA
:1055E0001661416023E04FF4965141601FE04FF493
:1055F000165141601BE04FF49641416017E04FF4B3
:105600001641416013E04FF4614141600FE04FF4F7
:10561000E13141600BE04FF46131416007E04FF44C
:10562000E121416003E04FF46121416000BF00BF10
:1056300000BF016809B90849016000BF074A016855
:10564000914207D000BF90F8C91011B9012280F82B
:10565000C92000BF704700000044004000500040D7
:105660007CB505460C460FA103C9CDE9000124B164
:10567000012C06D0FF2C0CD107E000208DF8030090
:1056800008E001208DF8030004E0FF208DF80300FE
:1056900000BF00BF00BF052269462846FCF741FE57
:1056A0007CBD0000FFAA00000000000070B50446A9
:1056B0000D46204600F00EF8FFF781FF052229462F
:1056C0002046FCF72EFEFFF77AFF00212046FFF769
:1056D000C7FF70BD10B50446052202492046FCF7FD
:1056E00020FE10BD98AF0008F0B588B00446002138
:1056F00000260027002306E004F11C0050F82300D8
:105700004DF823005B1C072BF6DB0098C0F30B0061
:10571000009000200790002224E0104602EBD07C8D
:105720004FEA6C0CA2EB4C0CBCF1010F04D15010F1
:105730001DF82000414005E050105DF82000C0F346
:105740000F20414008250AE001F4004020B14FF449
:10575000405080EA410100E04900681EC5B2002DBA
:10576000F2DC521C102AD8DBC1F303310E46E0698B
:10577000C0F30737BE4202D1012008B0F0BD0020BF
:10578000FBE72DE9F0410446204600F0C0F8142064
:10579000FCF739FB002549E004F13800FCF76DFC0B
:1057A000EC2104F13800FCF73DFC04F13800FCF773
:1057B00094FCA02000EB4500C1B204F13800FCF7D6
:1057C00031FC04F13800FCF788FC04F13800FCF7E8
:1057D0006CFC0520FCF71DFB04F13800FCF74DFCC8
:1057E000ED2104F13800FCF71DFC0520FCF711FB4E
:1057F00004F13800FCF771FC012104F13800FCF7DA
:10580000E4FB06460520FCF704FB002104F1380008
:10581000FCF7DBFB074604F13800FCF746FC47EADF
:10582000062104F11C0040F825106D1C072DB3DB88
:10583000BDE8F081F8B504460E46002504F13800B5
:10584000FCF71BFCEC2104F13800FCF7EBFB04F146
:105850003800FCF742FC314604F13800FCF7E2FB6B
:1058600004F13800FCF739FC04F13800FCF71DFCAA
:105870000A20FCF7C8FA04F13800FCF7FEFBEC2123
:1058800004F13800FCF7CEFB04F13800FCF725FCEE
:10589000002104F13800FCF7C5FB04F13800FCF7E7
:1058A0001CFC04F13800FCF700FC04F13800FCF7A4
:1058B000E4FBED2104F13800FCF7B4FB04F13800FF
:1058C000FCF70BFC012104F13800FCF77EFB8DF89E
:1058D0000000012104F13800FCF777FB8DF801008E
:1058E000002104F13800FCF770FB8DF8020004F190
:1058F0003800FCF7DAFB9DF800509DF8010000EB42
:1059000005259DF8020000EB05252846F8BD10B5D9
:10591000044604F13800FCF7B0FBEC2104F1380038
:10592000FCF780FB04F13800FCF7D7FB1E2104F1E3
:105930003800FCF777FB04F13800FCF7CEFB04F1EC
:105940003800FCF7B2FB10BD25480068C06B254944
:1059500008802348D0F81001C06B234908802048F4
:10596000D0F82002406B214908801D48D0F8300350
:10597000C06B1F4908801A48D0F88800006C1D4988
:1059800008801748D0F89801006C1B49088014481B
:10599000D0F8A802806B194908801148D0F8B803E4
:1059A000006C1749088017480E49098881860E49FE
:1059B0000988C1860D49098801870D4909884187F1
:1059C0000C49098881870C490988C1870B490988D6
:1059D000A0F840100A490988A0F84210704700005A
:1059E000400A0020BC100020BE100020C010002083
:1059F000C2100020C4100020C6100020C8100020D3
:105A0000CA1000207C15002008B5364A0168914272
:105A10000DD100BF3449896941F40061324A916176
:105A20001146896901F40061009100BF59E00168E5
:105A3000B1F1804F0DD100BF2B49C96941F001017F
:105A4000294AD1611146C96901F00101009100BFE5
:105A500047E0264A016891420DD100BF2249C96939
:105A600041F00201204AD1611146C96901F00201E9
:105A7000009100BF35E01E4A016891420DD100BF80
:105A80001949C96941F00401174AD1611146C96930
:105A900001F00401009100BF23E0164A0168914221
:105AA0000DD100BF1049C96941F008010E4AD1610A
:105AB0001146C96901F00801009100BF11E00E4ACA
:105AC000016891420DD100BF0749896941F4005135
:105AD000054A91611146896901F40051009100BFA6
