:020000040800F2
:10000000B04A002045010008671700080D020008EB
:10001000631700081F080008FF2200080000000006
:10002000000000000000000000000000951700081C
:10003000230800080000000097010008AD20000818
:100040005F0100085F0100085F0100085F01000810
:100050005F0100085F0100085F0100085F01000800
:100060005F0100085F0100085F0100085F010008F0
:100070005F0100085F0100085F0100085F010008E0
:100080005F0100085F0100085F0100085F010008D0
:100090005F0100085F0100085F01000851090008C6
:1000A0005F0100085F0100085F0100085F010008B0
:1000B0006321000865210008672100085F0100082E
:1000C0005F0100085F0100085F0100085F01000890
:1000D0005F010008F9220008FB220008FD22000849
:1000E0004F0900085F0100085F0100085F01000878
:1000F0005F0100085F0100085F0100085F01000860
:100100005F0100085F010008692100085F01000825
:100110008D2100088F2100086B2100086D21000847
:100120005F0100085F0100085F0100085F0100082F
:10013000DFF80CD000F010FB00480047150800085D
:10014000B04A00200648804706480047FEE7FEE721
:10015000FEE7FEE7FEE7FEE7FEE7FEE7FEE7FEE777
:100160006121000831010008EFF3108072B670477A
:1001700080F310887047324A1368012B04D04FF087
:10018000010313602F4A10602F4A11602F484FF06F
:10019000805101607047EFF3108272B62848016801
:1001A00091B14FF0000101602648016829B1EFF3D9
:1001B000098121E9F00F0068016023490968096895
:1001C000B1E8F00F81F3098882F310884EF0040E35
:1001D00070471D4908601B494FF00000086018492E
:1001E0004FF0010008601A481A49D0F8002041EA8F
:1001F0000201016015484FF0805101601648006807
:10020000006880F3088861B662B670471EF0040F7C
:100210000CBFEFF30880EFF3098020E9F00F40F8FE
:1002200004ED1EF0040F0CBF80F3088880F30988EA
:1002300000B503F05DF85DF804EB4EF0040E704776
:10024000B0020020A8020020AC02002004ED00E073
:1002500020ED00E00000FFFF08ED00E0202A04DBB5
:10026000203A21FA02F00021704721FA02F3D0402F
:10027000C2F120029140084319467047D2B201E012
:1002800000F8012B491EFBD270470022F6E710B59B
:1002900013460A4604461946FFF7F0FF204610BDF4
:1002A0002DE9FE4F81EA030404F0004421F00041EF
:1002B00000944FF0000B23F0004350EA01045ED09D
:1002C00052EA03045BD0C3F30A54C1F30A552C4429
:1002D000A4F2F3340194A0FB0254C1F3130141F4DE
:1002E0008011C3F3130343F4801301FB024400FBAA
:1002F000034E840A970A44EA815447EA8357A4FBD1
:10030000076802958D0A05FB07854FEA932C04FBCD
:100310000C542705029D4FEA065847EA1637B5EBFD
:1003200008056EEB070C870E920E47EA811742EA2A
:100330008312A7FB0201B6EB0B0164EB00042B0D4B
:1003400043EA0C335E1844EB1C50DA465146E7FB97
:100350000201C5F313044FEA0B3343EA14534FEA87
:100360000432019C43EA0603A4F10C040294009CAD
:10037000CDE900B400F05CF803B0BDE8F08F0020D8
:100380000146F9E730B50B46014600202022012442
:1003900009E021FA02F59D4205D303FA02F5491B53
:1003A00004FA02F52844151EA2F10102F1DC30BD69
:1003B0002DE9F05F0546002092469B46884606469A
:1003C000814640241BE02846414647462246FFF727
:1003D00045FF53465A46C01A914110D3114618465C
:1003E000224600F0CBF92D1A67EB01084F46224652
:1003F0000120002100F0C2F917EB00094E41201E38
:10040000A4F10104DFDC484631462A464346BDE8F4
:10041000F09F10B5141E73F1000408DA401C41F17E
:10042000000192185B411A4301D120F0010010BD78
:100430002DE9F04D92469B4611B1B1FA81F202E0EE
:10044000B0FA80F22032904600F098F904460F4648
:1004500040EA0A0041EA0B0153465A46084313D0CA
:10046000114653EA010019D0C8F140025046FFF787
:10047000F5FE05460E4650465946424600F07EF9C6
:10048000084305D0012004E020463946BDE8F08D40
:100490000020054346EAE0762C4337430A9863057B
:1004A000E40AA0EB08000022FD0A44EA47540A309F
:1004B00002D500200146E9E7010510196941DDE98F
:1004C000084500196941BDE8F04DA2E72DE9FE4F4E
:1004D000804681EA0300C00F0C46009021F00041E5
:1004E00023F00045B8EB0200A94105D24046214661
:1004F00090461C460B46024623F00040104347D06E
:10050000270DC7F30A00C3F30A510290401A019065
:1005100040286BDAC3F3130040F4801B0098924626
:1005200020B10023D2EB030A63EB0B0B0198594671
:10053000C0F14002504600F021F906460D465046F3
:100540005946019A00F029F910EB08006141002496
:1005500087EA115284EAE7731A4340D0009A62B3E3
:10056000019A012A4FEA075215DC001B61EB0201D8
:100570004FF0004202EA0752CDE90042001C41F56B
:10058000801132462B46FFF753FF03B0BDE8F08FD2
:1005900040462146F9E7001B61EB0201001C41F5D2
:1005A000801300185B412018A2F5001747EB0301E8
:1005B00040EAD570B6196D4111E06D084FEA360674
:1005C00045EAC0754FEA0752001B61EB0201001CAF
:1005D00041F5801149084FEA300000195141324677
:1005E0002B4603B0BDE8F04FFFF713BF0098012280
:1005F00040000023D0EB020263EBE0730098214639
:100600004FEAE074B8EB000061EB0401E9E783F026
:1006100000435BE781F0004158E72DE9F04D81EAA6
:10062000030404F0004B21F0004514464FF0000A8B
:1006300023F0004150EA050220D054EA01021DD007
:10064000C5F30A570246C5F31303C1F31300C1F300
:100650000A5640F4801543F48013A7EB0608101BDC
:10066000D64608F2FD3873EB050002D308F1010805
:1006700001E092185B41B8F1000F03DA0020014657
:10068000BDE8F08D00204FF48011064684460EE050
:10069000171B73EB050705D3121B63EB050306431A
:1006A0004CEA010C49084FEA300092185B4150EACD
:1006B0000107EDD152EA030012D082EA040083EA76
:1006C0000501084305D0101BAB4106D201220023CF
:1006D00006E000224FF0004302E06FF001025310E9
:1006E0001AEB06004CEB085110EB0A0041EB0B0132
:1006F000BDE8F04DFFF78DBEC1F30A52C1F31301FF
:1007000040F2FF3341F480119A4202DA00200146A0
:10071000704740F233439A42A2F2334202DC524223
:10072000FFF79CBD00F02AB830B5041E71F100043B
:1007300004DB4FF00044404264EB0101141E73F1EE
:10074000000405DB1C464FF00043524263EB0403F8
:10075000994208BF904230BD064C074D06E0E06864
:1007600040F0010394E8070098471034AC42F6D3F8
:10077000FFF7E2FC904D0008B04D0008202A04DB92
:10078000203A00FA02F1002070479140C2F12003A4
:1007900020FA03F3194390407047202A06DBCB1759
:1007A000203A41FA02F043EAE07306E041FA02F32C
:1007B000D040C2F12002914008431946704770B5FD
:1007C0008C1810F8015B15F0070301D110F8013BFC
:1007D0002A1106D110F8012B03E010F8016B01F883
:1007E000016B5B1EF9D12B0705D40023521E0DD4DB
:1007F00001F8013BFAE710F8013BCB1A921C03E029
:1008000013F8015B01F8015B521EF9D5A142D8D360
:10081000002070BD10B504F095F9002010BD00BF98
:10082000FEE7704710B50446204603F007FD10BDF3
:1008300070B505460E4600242BE004EB440105EBA1
:10084000C10000F0A9FF04EB440105EBC10001F079
:10085000ACF804EB440005EBC00040680E49884248
:100860000FD004EB440005EBC00040680B49884200
:1008700007D004EB440005EBC000406808498842FB
:1008800005D104EB440105EBC10001F015F8601C33
:10089000C4B2B442D1DB70BD0000211000001110C1
:1008A0000000311070B504460D4604A001F03AFD79
:1008B0002A46214606A001F035FD70BD2D3E486157
:1008C0007070656E204572726F722121210D0A00D1
:1008D0002D3E4572726F7220506172616D65746554
:1008E00072732056616C75653A2066696C652025C7
:1008F00073206F6E206C696E652025640D0A000000
:1009000010B500F0CDF901F057F801F088F810BDEE
:1009100010B5044601F096F8204601F025FA20466D
:1009200001F092F8204601F0F7F8204601F000FAB5
:10093000204601F0A5F9642002F070FAD821085190
:10094000012204F1D401204600F06AFE10BD704778
:10095000704700002DE9F847024600239C467BE1E2
:100960004FF0010808FA03F4D1F8008008EA040007
:10097000A0427DD1DFF8F4A2D1F80480A8EB0A09E7
:10098000D0453AD014DCB8F1030F50D009DCB8F1EF
:10099000000F31D0B8F1010F1CD0B8F1020F49D1CE
:1009A00020E0B8F1110F18D0B8F1120F42D11EE0BB
:1009B000B9F5881F25D006DCB9F5803F20D0B9F500
:1009C000801F37D11AE0B9F5001F18D0B9F5041F00
:1009D00030D117E0D1F80CC02DE0D1F80C8008F12F
:1009E000040C28E0D1F80C8008F1080C23E0D1F8C1
:1009F0000C8008F10C0C1EE000BF00BF00BF00BF60
:100A000000BF00BFD1F80880B8F1000F02D14FF04D
:100A1000040C0BE0D1F80880B8F1010F03D14FF0BE
:100A2000080C146102E04FF0080C546103E04FF031
:100A3000000C00E000BF00BFFF2801D8904601E095
:100A400002F104084646FF2802D84FEA830803E073
:100A5000A3F108084FEA88084746D6F800804FF00F
:100A60000F0909FA07F928EA09080CFA07F900E062
:100A70007AE048EA0908C6F80080D1F8048008F056
:100A80008058B8F1805F6FD100BFDFF8E481D8F8FB
:100A9000188048F00108DFF8D891C9F81880C846D6
:100AA000D8F8188008F00108CDF8008000BF00BF1A
:100AB0004FEAB9384FEA930958F829504FEA83783A
:100AC0004FEA18794FF00F0808FA09F825EA0805E7
:100AD000DFF8A081424502D14FF0000824E0DFF8A2
:100AE0009881424502D14FF001081DE0DFF88C816A
:100AF000424502D14FF0020816E0DFF884814245FA
:100B000002D14FF003080FE0DFF87881424502D1AF
:100B10004FF0040808E0DFF87081424502D14FF041
:100B2000050801E04FF006084FEA83794FEA19798A
:100B300008FA09F848EA0505DFF850814FEA9309F9
:100B400048F82950D1F8048008F48038B8F5803F7F
:100B50000BD1DFF83C81D8F8008048EA0008DFF8C4
:100B60003091C9F800800AE075E0DFF82481D8F8F8
:100B7000008028EA0008DFF81891C9F80080D1F851
:100B8000048008F40038B8F5003F0ED1DFF800818A
:100B900008F10408D8F8008048EA0008DFF8F0906F
:100BA00009F10409C9F800800DE0DFF8E48008F1DC
:100BB0000408D8F8008028EA0008DFF8D49009F18A
:100BC0000409C9F80080D1F8048008F48018B8F549
:100BD000801F0ED1DFF8B88008F10808D8F800802F
:100BE00048EA0008DFF8A89009F10809C9F8008070
:100BF0000DE0DFF89C8008F10808D8F8008028EAAA
:100C00000008DFF88C9009F10809C9F80080D1F8D4
:100C1000048008F40018B8F5001F0ED1DFF87080CA
:100C200008F10C08D8F8008048EA0008DFF8609066
:100C300009F10C09C9F800800DE0DFF8548008F1D3
:100C40000C08D8F8008028EA0008DFF8449009F181
:100C50000C09C9F800805B1CD1F8008028FA03F861
:100C6000B8F1000F7FF47CAEBDE8F88700001110EA
:100C70000010024000080140000C0140001001403B
:100C80000014014000180140001C01400800014010
:100C90000004014001480068704700007C0100200A
:100CA00010B50848006840F01000064908600320AD
:100CB00000F0D2F8002000F007F800F02BF8002038
:100CC00010BD00000020024070B504460E480078B8
:100CD0004FF47A71B1FBF0F00C490968B1FBF0F503
:100CE000284600F049FC08B1012070BD102C07D245
:100CF00000222146501E00F071F80548046001E012
:100D00000120F2E70020F0E78401002088010020A4
:100D10008001002008B5032000F09EF800BF2548A0
:100D2000806940F00100234988610846806900F02D
:100D30000100009000BF00BF00BF0846C06940F03E
:100D40008050C8610846C06900F08050009000BF24
:100D500000BF002211466FF00B0000F03FF80022A8
:100D600011466FF00A0000F039F8002211466FF0CA
:100D7000090000F033F800221146501F00F02EF851
:100D800000221146101F00F029F800220F21901EAA
:100D900000F024F800220F21501E00F01FF800BFC1
:100DA0000549486820F0E06040F00070486000BFEE
:100DB00008BD000000100240000001400146084646
:100DC000002809DB00F01F0301229A4043099B0021
:100DD00003F1E023C3F8002100BF70472DE9F05F65
:100DE00080460D461646002701F0ACFA0746394604
:100DF0002A46334601F00700C0F1070ABAF1040F92
:100E000002D94FF0040A01E0C0F1070AD14600F10F
:100E1000040ABAF1070F02D24FF0000A01E0A0F174
:100E2000030AD4464FF0010A0AFA09FAAAF1010AA4
:100E30000AEA020A0AFA0CFA4FF0010B0BFA0CFB51
:100E4000ABF1010B0BEA030B4AEA0B0421464046C7
:100E500001F080FABDE8F09F00BF00F00702064BEA
:100E600019684FF6FF031940044B0B4343EA022174
:100E7000014B196000BF70470CED00E00000FA055F
:100E800070B504460D460CB9012070BD5A48006883
:100E900000F00700A8420ED25748006820F0070073
:100EA0002843554908600846006800F00700A8423A
:100EB00001D00120E9E7207800F0020002281DD1CE
:100EC000207800F00400042805D14C48406840F424
:100ED000E0604A494860207800F00800082805D101
:100EE0004648406840F46050444948604348406880
:100EF00020F0F000A168084340494860207800F0E5
:100F0000010078B36068012806D13C48006800F40D
:100F1000003090B90120B8E76068022806D1374850
:100F2000006800F0007040B90120AEE73348006867
:100F300000F0020008B90120A7E73048406820F01F
:100F40000300616808432D494860FFF7A3FE064689
:100F500009E0FFF79FFE801B41F28831884202D9E9
:100F6000032092E707E02548406800F00C00616824
:100F7000B0EB810FEDD12048006800F00700A842D7
:100F80000ED91D48006820F0070028431A49086060
:100F90000846006800F00700A84201D0012074E76D
:100FA000207800F00400042807D11448406820F499
:100FB000E060E168084311494860207800F00800CB
:100FC000082808D10D48406820F46050216940EAA3
:100FD000C1000A49486000F03FF808494968C1F378
:100FE0000311074A515CC84006490860064800687A
:100FF000FFF76AFE002048E7002002400010024090
:10100000404C000888010020800100200148006851
:10101000704700008801002000B5FFF7F7FF044982
:101020004968C1F30221034A515CC84000BD000079
:1010300000100240504C000800B5FFF7E7FF0449DC
:101040004968C1F3C221034A515CC84000BD000099
:1010500000100240504C0008F0B585B00FF26C0C47
:101060009CE8E01001A8A0E8E0101CA52D68009500
:1010700000210022002300240020194D696801F09E
:101080000C05F5B1042D02D0082D19D101E0154849
:1010900019E001ADC1F38346AC5D01F4803555B173
:1010A0000F4D6D68C5F340451DF805200D4D654396
:1010B000B5FBF2F302E00C4D04FB05F3184602E029
:1010C00000BF084800BF00BF05B0F0BD0203040523
:1010D000060708090A0B0C0D0E0F10100102000084
:1010E0000010024000127A0000093D00F8B50446E5
:1010F0000CB90120F8BD207800F00100002878D05C
:10110000F848406800F00C0004280CD0F54840680E
:1011100000F00C00082811D1F248406800F480303B
:10112000B0F5803F0AD1EF48006800F40030002895
:101130005FD0606800285CD10120DBE700BF6068F9
:10114000B0F5803F06D1E748006840F48030E549BB
:10115000086028E0606858B9E248006820F48030F0
:10116000E04908600846006820F4802008601AE022
:101170006068B0F5A02F0BD1DA48006840F48020F9
:10118000D84908600846006840F4803008600AE0EA
:10119000D448006820F48030D249086008460068CE
:1011A00020F48020086000BF606888B1FFF772FDFE
:1011B000054606E0FFF76EFD401B642801D90320B9
:1011C00098E7C848006800F400300028F2D010E02A
:1011D000FFF760FD054606E0FFF75CFD401B642855
:1011E00001D9032086E7BF48006800F400300028DA
:1011F000F2D1207800F00200022857D1B9484068A7
:1012000000F00C0050B1B748406800F00C0008280E
:1012100018D1B448406800F4803098B9B1480068EB
:1012200000F0020020B12069012801D0012061E70F
:10123000AC48006820F0F800616940EAC100A949A3
:10124000086033E02069E8B10120A7490860FFF792
:1012500021FD054606E0FFF71DFD401B022801D9D0
:10126000032047E79F48006800F002000028F2D002
:101270009C48006820F0F800616940EAC100994983
:10128000086013E0002098490860FFF703FD054659
:1012900006E0FFF7FFFC401B022801D9032029E7E5
:1012A0009048006800F002000028F2D1207800F099
:1012B000080008282DD1A069B8B101208B49086029
:1012C000FFF7E8FC054606E0FFF7E4FC401B0228B8
:1012D00001D903200EE78348406A00F0020000288D
:1012E000F2D0012000F042FA13E000207F490860AC
:1012F000FFF7D0FC054606E0FFF7CCFC401B0228B8
:1013000001D90320F6E67748406A00F00200002881
:10131000F2D1207800F00400042873D1002771482E
:10132000C06900F0805070B900BF6E48C06940F0DD
:1013300080506C49C8610846C06900F08050009038
:1013400000BF00BF01276A48006800F48070B0B990
:101350006748006840F4807065490860FFF79AFCB0
:10136000054606E0FFF796FC401B642801D90320E0
:10137000C0E65F48006800F480700028F2D000BF2B
:10138000E068012806D15748006A40F0010055493D
:10139000086227E0E06858B95248006A20F001006E
:1013A000504908620846006A20F00400086219E00B
:1013B000E06805280BD14B48006A40F00400494919
:1013C00008620846006A40F0010008620AE04548E9
:1013D000006A20F00100434908620846006A20F0D4
:1013E0000400086200BFE068A0B1FFF753FC0546A7
:1013F00009E0FFF74FFC401B41F28831884202D9D7
:10140000032077E622E03748006A00F00200002857
:10141000EFD012E0FFF73EFC054608E0FFF73AFC8C
:10142000401B41F28831884201D9032062E62D48F1
:10143000006A00F002000028F0D1012F05D12948F0
:10144000C06920F080502749C86100BFE069C8B377
:101450002448406800F00C00082860D0E0690228A9
:1014600048D1002020490866FFF714FC054606E035
:10147000FFF710FC401B022801D903203AE6194867
:10148000006800F000700028F2D1206AB0F5803FBB
:1014900007D11448406820F40030A168084311497E
:1014A0004860D4E9080108430E49496821F47411E1
:1014B00008430C49486001200B490866FFF7EAFB26
:1014C000054607E03DE0FFF7E5FB401B022801D998
:1014D00003200FE60348006800F000700028F2D0F7
:1014E0002FE000000010024000004242800442420F
:1014F00000700040002014490866FFF7CBFB05464A
:1015000006E0FFF7C7FB401B022801D90320F1E5E5
:101510000E48006800F000700028F2D111E0E06988
:10152000012800D1E6E50948466806F48031206AC2
:10153000814204D106F47011606A814201D0012019
:10154000D8E50020D6E5000000004242001002402D
:10155000042808D14FF0E021096941F004014FF05F
:10156000E022116107E04FF0E021096921F0040158
:101570004FF0E0221161704770B504462546681EA1
:10158000B0F1807F01D301200FE0681E4FF0E02111
:1015900048610F214FF0FF3000F0DCFE00204FF0DB
:1015A000E021886107200861002070BD10B5044665
:1015B0000CB9012010BDA06900B100E000BF94F893
:1015C000390028B9002084F83800204600F027F8B8
:1015D000242084F839002068C06820F40050216875
:1015E000C860204600F0D4FD2068006920F49040D7
:1015F000216808612068406920F02A00216848615C
:101600002068C06840F400502168C8600020E06392
:10161000202084F8390084F83A000020CAE7704797
:1016200010B5034693F83A0020282FD101B10AB92A
:10163000012010BD00BF93F83800012801D102201D
:10164000F7E7012083F8380000BF99629A85DA85B0
:101650000020D863222083F83A0000BF002083F8DE
:10166000380000BF1868C06840F480701C68E060F3
:101670001868406940F001001C6860611868C06823
:1016800040F020001C68E0600020D2E70220D0E794
:101690002DE9F84F04460E46174699464FF0000ACA
:1016A00094F8390020285AD106B117B90120BDE8B5
:1016B000F88F00BF94F83800012801D10220F6E726
:1016C000012084F8380000BF0020E063212084F866
:1016D0003900FFF7DFFA8246A784E784A068B0F5F7
:1016E000805F04D1206910B90025B04602E035467C
:1016F0004FF0000800BF002084F8380000BF1BE056
:101700005346002280212046CDF8009000F0BEFD17
:1017100008B10320CBE745B9B8F80000C0F30800D2
:101720002168486008F1020803E0287821684860D1
:101730006D1CE08C401EE084E08C0028E0D1534614
:10174000002240212046CDF8009000F09FFD08B116
:101750000320ACE7202084F839000020A7E702200E
:10176000A5E700BFFEE700BFFEE7000008B5084997
:101770000968C9084FF47A72B1FBF2F14143009154
:1017800000BF00BF00994A1E00920029F9D108BD90
:10179000880100207047000008B53F4A0169914266
:1017A0000DD100BF3D49896941F004013B4A916177
:1017B0001146896901F00401009100BF6BE0384ACD
:1017C000016991420DD100BF3449896941F0080196
:1017D000324A91611146896901F00801009100BF08
:1017E00059E0304A016991420DD100BF2B49896906
:1017F00041F01001294A91611146896901F01001F7
:10180000009100BF47E0284A016991420DD100BF15
:101810002249896941F02001204A91611146896974
:1018200001F02001009100BF35E0204A016991429A
:101830000DD100BF1949896941F04001174A9161F2
:101840001146896901F04001009100BF23E0184A68
:10185000016991420DD100BF1049896941F08001B1
:101860000E4A91611146896901F08001009100BF23
:1018700011E0104A016991420DD100BF0749896901
:1018800041F48071054A91611146896901F48071C2
:10189000009100BF00BF08BD0008014000100240D9
:1018A000000C0140001001400014014000180140EC
:1018B000001C01400020014010B5044620680128AA
:1018C00008D1627D217D0620FFF788FA0620FFF708
:1018D00075FA69E02068022808D1627D217D072021
:1018E000FFF77CFA0720FFF769FA5DE0206804281B
:1018F00008D1627D217D0820FFF770FA0820FFF7EC
:101900005DFA51E02068082808D1627D217D092018
:10191000FFF764FA0920FFF751FA45E02068102824
:1019200008D1627D217D0A20FFF758FA0A20FFF7CF
:1019300045FA39E0206820280DD0206840280AD0D8
:101940002068802807D02068B0F5807F03D0206809
:10195000B0F5007F08D1627D217D1720FFF73EFAA8
:101960001720FFF72BFA1FE02068B0F5806F13D027
:101970002068B0F5006F0FD02068B0F5805F0BD005
:101980002068B0F5005F07D02068B0F5804F03D025
:101990002068B0F5004F07D1627D217D2820FFF738
:1019A0001DFA2820FFF70AFA10BD10B5044621469B
:1019B0002069FEF7CFFF10BD00B58FB0282105A824
:1019C000FEF763FC14216846FEF75FFC01200590DA
:1019D00000040690002007900120099002200C903E
:1019E000C1030D914FF4E0110E9105A8FFF77EFBA6
:1019F00008B100BFFEE70F200090022001900020F8
:101A000002904FF480600390002004900221684609
:101A1000FFF736FA08B100BFFEE70FB000BD10B502
:101A2000FFF7F4FA4FF47A71B0FBF1F42046FFF7B8
:101A3000A3FD0420FFF78CFD00220F21501EFFF7AD
:101A4000CDF910BD7047000008B52D4A01689142DC
:101A50000DD100BF2B49896941F48041294A916128
:101A60001146896901F48041009100BF47E0264A90
:101A7000016891420DD100BF2249C96941F400318A
:101A8000204AD1611146C96901F40031009100BFBB
:101A900035E01E4A016891420DD100BF1949C9695C
:101AA00041F48021174AD1611146C96901F48021AE
:101AB000009100BF23E0164A016891420DD100BF9A
:101AC0001049C96941F400210E4AD1611146C96922
:101AD00001F40021009100BF11E00E4A016891421B
:101AE0000DD100BF0749C96941F48011054AD16190
:101AF0001146C96901F48011009100BF00BF08BD03
:101B000000380140001002400044004000480040FE
:101B1000004C00400050004038B5044600BF534818
:101B2000806940F00100514988610846806900F0F1
:101B30000100009000BF00BF4D492068884228D1B5
:101B40004FF48570005D40B900BF4A49486840F0D5
:101B5000E06020F00400486081E04FF48570005D93
:101B6000032808D100BF4349486840F0E06040F0D6
:101B70000400486073E04FF48570005D012801D1D6
:101B800000BFFEE74FF48570005D022867D100BFFB
:101B9000FEE739492068884228D14FF48570005DFE
:101BA00040B900BF3349486840F0E06020F00800C9
:101BB000486054E04FF48570005D012801D100BFFA
:101BC000FEE74FF48570005D022801D100BFFEE7FB
:101BD0004FF48570005D032841D100BF2549486856
:101BE00040F0E06040F00800486038E02349206899
:101BF000884234D14FF48570005D48B900BF1D495B
:101C0000486820F0300040F0E06000BF486026E007
:101C10004FF48570005D01280AD100BF154948685E
:101C200020F0300040F0E06040F01000486016E026
:101C30004FF48570005D022801D100BFFEE74FF42C
:101C40008570005D03280AD100BF0A49486820F06A
:101C5000300040F0E06040F03000486000BF0221FA
:101C600004F1F400FEF7E4FD38BD0000001002406E
:101C7000003801400000014000440040004800409E
:101C800010B504462549206888420AD194F82521D8
:101C900094F824112520FFF7A1F82520FFF78EF8EE
:101CA0003AE01F49206888420AD194F8252194F827
:101CB00024112620FFF792F82620FFF77FF82BE06B
:101CC0001849206888420AD194F8252194F82411F3
:101CD0002720FFF783F82720FFF770F81CE0124950
:101CE000206888420AD194F8252194F824113420E0
:101CF000FFF774F83420FFF761F80DE00B49206816
:101D0000884209D194F8252194F824113520FFF751
:101D100065F83520FFF752F810BD0000003801408B
:101D20000044004000480040004C0040005000408B
:101D300010B504462046FFF739FC18B1F82102A07F
:101D4000FEF7B0FD10BD00002E2E5C447269766572
:101D5000725C5372635C6472765F68616C5F75611C
:101D600072742E630000000000BF016809B9C44905
:101D7000016000BF00BF416811B94FF4E13141601B
:101D800000BF00BF416909B90C22426100BF00BF1A
:101D9000816809B90022826000BF00BFC16809B92B
:101DA0000022C26000BF00BF016909B900220261C0
:101DB00000BF00BF90F8241111B9012180F824114F
:101DC00000BF00BF90F8251111B9032180F825113B
:101DD00000BF90F8C81001295ED1A94A016891425C
:101DE00002D1A849016415E0A74A0168914203D1D4
:101DF000A4493C3101640DE0A44A0168914203D139
:101E0000A0492839016405E0A14A0168914201D145
:101E1000A049016400BF416C09B91022426400BFAF
:101E200000BF816C09B90022826400BF00BFC16C91
:101E300009B98022C26400BF00BF016D09B9002248
:101E4000026500BF00BF416D09B90022426500BFB5
:101E500000BF816D09B90022826500BF00BFC16D5E
:101E600009B90022C26500BF00BF90F8CC1011B9BB
:101E7000012280F8CC2000BF00BF90F8CD1011B92E
:101E8000012280F8CD2000BF00BFEA21095A11B914
:101E90006422EA210A5200BF90F8C910012972D1C8
:101EA000774A0168914204D1764A143284210A505B
:101EB00019E0754A0168914204D1724A283284219E
:101EC0000A5010E0714A0168914204D16D4A143AF7
:101ED00084210A5007E06E4A0168914203D16D4A9D
:101EE000283A84210A5000BF8821095811B90022DC
:101EF00088210A5000BF00BF8C21095811B9002267
:101F00008C210A5000BF00BF9021095811B98022CE
:101F100090210A5000BF00BF9421095811B9002236
:101F200094210A5000BF00BF9821095811B900221E
:101F300098210A5000BF00BF9C21095811B92022E6
:101F40009C210A5000BF00BFA021095811B90022EE
:101F5000A0210A5000BF00BF90F8CA1011B9012299
:101F600080F8CA2000BF00BF90F8CB1011B9012241
:101F700080F8CB2000BF00BFDE21095A11B96422CE
:101F8000DE210A5200BFD0F8F41021B14FF486715F
:101F9000095801B170473A4A016891420FD1491579
:101FA000C0F8F4103C4A4FF482710A5012154FF4F5
:101FB00086710A50384A4FF48E710A504EE0324A08
:101FC000016891420FD10421C0F8F410324A4FF455
:101FD00082710A5008224FF486710A502E4A4FF43B
:101FE0008E710A503AE0294A016891420FD10915D1
:101FF000C0F8F410294A4FF482710A50D2144FF4F9
:1020000086710A50254A4FF48E710A5026E0204A04
:10201000016891420FD10915C0F8F410204A4FF41D
:1020200082710A50D2144FF486710A501C4A4FF440
:102030008E710A5012E01B4A016891420ED1891438
:10204000C0F8F410164A4FF482710A5004224FF47B
:1020500086710A50144A4FF48E710A500222F821F8
:102060000A5000224FF488710A50FC210A500322C2
:10207000091D0A5000224FF485710A5400BF89E7F8
:102080000038014044000240004400400048004045
:10209000004C00405804024000080140000C014080
:1020A00000100140005000400014014010B501F044
:1020B00045FA02F0E9F901F05BFA10BD10B5002114
:1020C00000200022214B5B6803F00C0121B10429A0
:1020D00006D0082928D107E01D4B1E4C236027E0BD
:1020E0001B4B1C4C236023E0184B5B6803F47010FF
:1020F000164B5B6803F48032022303EB904022B955
:10210000154B4343134C23600DE0104B5B6803F405
:10211000003323B1104B43430E4C236003E00C4BC0
:1021200043430C4C236003E0094B0A4C236000BF7F
:1021300000BF064B5B68C3F30313084CE15C054B1F
:102140001B68CB40034C236010BD00000010024010
:1021500000127A008801002000093D00404C000870
:10216000704770477047704770477047704700006E
:1021700010B503210348FEF75BFB0348FEF7C8FBDD
:1021800010BD0000040000204C0000207047704784
:1021900070B504462168096921F44051E268114391
:1021A000226811612269A1681143626941EA02054E
:1021B0002168C96841F20C62914329432268D160C9
:1021C0002168496921F44071A26911432268516173
:1021D0002D4A2168914202D1FEF72EFF01E0FEF761
:1021E0001BFF00EBC00101EB001162689200B1FB24
:1021F000F2F100EBC00202EB001263689B00B2FB3D
:10220000F3F26423B2FBF3F202EBC20303EB02121C
:10221000A1EB8201322202EB01116422B1FBF2F147
:1022200001F0F00100EBC00202EB001263689B00BA
:10223000B2FBF3F26423B2FBF3F201EB021200EB08
:10224000C00101EB001163689B00B1FBF3F100EBEF
:10225000C00303EB00136668B600B3FBF6F3642615
:10226000B3FBF6F303EBC30606EB0313A1EB830109
:10227000322303EB01116423B1FBF3F101F00F01F1
:1022800011442268916070BD003801402DE9F04191
:1022900004460D4617469846069E21E0701CF8B18C
:1022A0002EB1FEF7F7FCA0EB0800B04218D9206869
:1022B000C06820F4D0702168C8602068406920F0B0
:1022C000010021684861202084F8390084F83A0030
:1022D00000BF002084F8380000BF0320BDE8F08173
:1022E000206800682840A84201D1012000E00020B9
:1022F000B842D3D00020F1E770477047704700BF65
:10230000FEE7000006E004A000F00CF84FF47A703D
:10231000FEF788FAF7E700005347415F44454D4F09
:102320000D0A00000FB4054B10B503A9044A02982A
:1023300000F01CF910BC5DF814FB0000B52D00087E
:102340007801002002480068C0F3022070470000B6
:102350000CED00E010B5002804DB0A07130E054A57
:10236000135406E00A07140E034A00F00F031B1F64
:10237000D45410BD00E400E018ED00E0014609B9B6
:1023800000207047C8B220B1C8B20E4A105C401C91
:10239000F7E701F47F4028B10A48C1F30722805CC7
:1023A0000930EEE701F47F0028B10648C1F3074287
:1023B000805C1130E5E7034800EB116000781930CC
:1023C000DFE70000584C000802E008C8121F08C1EF
:1023D000002AFAD170477047002001E001C1121FA6
:1023E000002AFBD1704700002DE9FF5F82B0002179
:1023F000DDE90430020DDDF840B0034318D044F6A7
:102400001050A2F2FF3242431514119801281FD038
:10241000A5EB0B00401C5FEA000A4FF000064E4F90
:10242000DFF83891B046504615D5CAF1000413E0E4
:10243000119801244AA3012801D16FEA0B010298E7
:10244000119AC0E90031C0E9024206B0BDE8F09F30
:10245000CBF10000DFE704460021404A491842EB77
:102460000450CDE9001012E0E00707D032463B46A9
:1024700040464946FDF714FF8046894632463B46B2
:1024800010461946FDF70CFF06460F466410002C57
:10249000EAD1DDE90401DDE90023BAF1000F06DA33
:1024A000FDF7FEFE42464B46FDF7FAFE05E0FEF75D
:1024B000B4F842464B46FEF7B0F804460E460022FA
:1024C000284BFEF731F903D84FF0FF30014607E003
:1024D0000022254B20463146FDF7F8FFFEF70CF9A8
:1024E000102409E0002C0ADB0A220023FDF760FF1C
:1024F000039B30321A55641E50EA0102F2D1641C6B
:10250000039AC4F111031444119A012A03D0012241
:1025100008430DD10AE0084304D000204FF0110B0E
:10252000119072E7A3EB0B056D1E0DE05B4504DD1A
:102530004FF0000205F1010504E003DA4FF000025C
:10254000A5F10105002AECD002981199C0E90231E9
:10255000C0E9004579E70000000014400000F03FAA
:10256000300000000000F0430000E03F2DE9FF4F85
:1025700095B09B468946064600250FE2252877D16F
:1025800000242746F84A0121059400E0044316F888
:10259000013F203B01FA03F01042F7D130782A289E
:1025A00011D06FF02F033078A0F13002092A16D82D
:1025B000059A44F0020402EB820203EB420210444B
:1025C000761C0590EFE759F8042B0592002A03DAF0
:1025D000504244F40054059044F00204761C3078D4
:1025E0002E2816D116F8010F44F004042A280DD025
:1025F0006FF02F023078A0F13003092B09D807EBD8
:10260000870302EB4303C718761CF3E759F8047BF2
:10261000761C30786C280FD006DC4C2817D0682840
:102620000DD06A2814D104E0742810D07A280FD174
:102630000DE044F400140AE044F4801401E044F492
:1026400040147278824202D104F58014761C761C04
:10265000307866280BD013DC582877D009DC0028A6
:1026600075D04528F6D04628F4D047281AD19DE1E8
:1026700018E0632835D0642879D0652812D195E117
:10268000702873D008DC6728F1D069286FD06E28D5
:102690000DD06F2806D1B5E073282CD0752875D0E1
:1026A000782874D05A46179990476D1C75E1C4F389
:1026B0000250022809D003280DD0D9F800100428B0
:1026C0000DD00D6009F1040967E1D9F80010EA178F
:1026D000C1E90052F6E7D9F800100D80F2E70D705D
:1026E000F0E719F8041B8DF8001000208DF80100A8
:1026F000EA46012003E059F804AB4FF0FF306107D0
:102700004FF0000102D40DE008F101018846B94202
:102710000FDA8045F8DB1AF808100029F4D108E038
:1027200008F1010188468142FADB1AF808100029F5
:10273000F6D105985B46A0EB080721463846179A64
:1027400000F094FA284400EB080507E04DE029E189
:102750000DE01AF8010B5A4617999047B8F1010895
:10276000F7D25B4621463846179A13E142E00A2227
:102770000092C4F302524FF0000A022A08D059F81E
:1027800004CB032A4FEAEC710AD00DE029E02AE0DD
:1027900009F1070121F00702F2E802C1914609E0C0
:1027A0000FFA8CFC4FEAEC71042A03D14FFA8CFC2F
:1027B0004FEAEC71002907DA0A460021DCF1000C2F
:1027C00061EB02012D2202E0220504D52B228DF8B7
:1027D0000420012203E0E20701D02022F7E790461F
:1027E00059E00A2102E010220DE010214FF0000A0A
:1027F00000910BE010224FF0000A44F00404082777
:10280000009203E008224FF0000A0092C4F3025243
:10281000022A05D059F804CB0021032A08D009E088
:1028200009F1070121F00702F2E802C1914605E033
:102830001FFA8CFC042A01D10CF0FF0C4FF00008A9
:10284000220728D5702806D0009B83F0100353EA96
:102850000A0305D00EE040228DF80420012208E092
:102860005CEA010206D030228DF804208DF80500C4
:1028700002229046009B83F0080353EA0A030AD120
:102880005CEA010201D1620705D530228DF80420EF
:102890004FF001087F1E582804D034A003900EA8E2
:1028A00002900DE036A0F9E753466046009AFDF726
:1028B0007FFD84460398825C0298401E029002705D
:1028C0005CEA0100F0D1029806A9081A00F1200A7A
:1028D000600702D524F4803400E00127574502DD6B
:1028E000A7EB0A0000E0002000EB0A010090059829
:1028F0004144401A0590E00306D45B462146179AEE
:10290000059800F0B3F90544002706E001A85A46EF
:10291000C05D179990476D1C7F1C4745F6DBE003AF
:102920000CD55B462146179A059800F09FF905449F
:1029300004E030205A46179990476D1C0099481EB4
:1029400000900029F5DC08E0029802995A460078C8
:10295000491C0291179990476D1CBAF10001AAF128
:10296000010AF1DC65E10000092801003031323351
:1029700034353637383961626364656600000000BB
:1029800030313233343536373839414243444546A5
:102990000000000000F058F90544761C307800284B
:1029A0007FF4ECAD19B02846BDE8F08F620700D483
:1029B000062709F1070222F0070CFCE80223E14692
:1029C00003F000485FEA080C02D00FF2702C0DE013
:1029D0005FEA045C02D50FF2682C07E05FEAC47C72
:1029E00002D00FF2602C01E0AFF2700C4FF0FF3814
:1029F00023F00043CDF850C065280CD006DC4528F4
:102A000009D046281DD047283DD13DE0662818D082
:102A100067287ED138E00021112F01DB112000E072
:102A2000781CCDE9000106A90EA8FFF7DDFCDDE961
:102A30000F010E9A03910021009207F1010A0491FF
:102A40004DE04FF000400097CDE9011006A90EA817
:102A5000FFF7CAFCDDE90F0203920E9B11990022D9
:102A6000DDF80CA00093049211B9791C00EB010A67
:102A7000B7EB0A0004D4C0F1FF3007F1010A04905B
:102A8000AAEB0700019044E0012F00DA01270021A2
:102A9000112F01DD112000E03846CDE9000106A923
:102AA0000EA8FFF7A1FCDDE90F010E9A03910021AA
:102AB00004910092BA4621070CD40399514500DADB
:102AC0008A46BAF1010F05DD009AAAF10101515CB5
:102AD000302908D0B84202DA10F1040F06DA0121D9
:102AE000CDE9011015E0AAF10101E9E7002805DCB4
:102AF000049901440491AAEB000102E0411C5145F4
:102B000000DD8A460499401A401C01904FF00040B5
:102B10000290200704D40198504501DBCDF80480D1
:102B200000208DF84F0002980DF14F07B0F1004FD3
:102B300025D02B200E9002984FF0020800280CDAC6
:102B4000404202902D200E9007E00A210298FDF7E6
:102B500019FC3031029007F8011DB8F10001A8F10D
:102B60000108F2DC02980028EFD1791E0E98087057
:102B7000307800F0200040F0450007F8020D12A860
:102B8000C01B00F107081498007800B1012000EB89
:102B90000A01019801EBE07105984144401A401E7A
:102BA0000590E00306D45B462146179A059800F08D
:102BB0005DF805441498007818B15A461799904763
:102BC0006D1CE00324D55B462146179A059800F05A
:102BD0004DF805441CE00498002807DBDDE90301FB
:102BE000884203DD0098405C179901E01799302076
:102BF0005A469047049805F10105401C049001983D
:102C0000401E019004D12E205A46179990476D1C02
:102C1000BAF10001AAF1010ADDDC05E017F8010BA9
:102C20005A46179990476D1CB8F10001A8F10108A8
:102C3000F4DC5B462146179A0598ABE62D000000B0
:102C40002B000000200000002DE9F0410446002583
:102C50001E461746880404D405E039462020B047B4
:102C60006D1C641EF9D52846BDE8F0812DE9F041C0
:102C7000044600251E469046C80301D5302700E0D3
:102C80002027880404D505E041463846B0476D1C2E
:102C9000641EF9D52846BDE8F08100002DE9FC5FEF
:102CA00004468B4615461E46DDE90C9ADDE90E7892
:102CB00004F114004060006000BF1C346560A66031
:102CC000C4F80C90C4F810A02321D4E9030200F04A
:102CD000DFFDD4E9033C63441A1F144BD4E901011E
:102CE00000F006FC2060A77667760020E061C4F85B
:102CF0002880C4F82C8060612076E06520661C3C4A
:102D0000009023460A4A2146019004F14C0001F04C
:102D100080FC00BF0748006818B1204605490968D3
:102D2000884700BF0020BDE8FC9F0000ED40000880
:102D30007D430008840200202DE9F04704460E463A
:102D400017469846DDF8209084F80990607A20F0C4
:102D500001006072E66127620020A062C4F824804E
:102D6000002506E004F1140101EBC50000F082FC2F
:102D70006D1C012DF6DBBDE8F08770B5054600241B
:102D800006E005F1140101EBC40000F0B4FC641C82
:102D9000012CF6DB70BD70B50446FDF7E5F905467C
:102DA000A06F10B12046A16F88472846FDF7E0F9D3
:102DB00070BD000010B50A46002107E00B464C1C10
:102DC000A1B24EF66024A34200DD05E0054B1B686E
:102DD00003F04003002BF1D000BFC3B2014C241D0F
:102DE000236010BD0038014010B5FFF7C1F903A002
:102DF00000F022FCFFF786FA002010BD5254542048
:102E00005374617274210D0A0000000010B504466D
:102E100000F068F9FFF7E8FF10BD0000F0B50B30D7
:102E2000154D20F007010024144A0FE003688B427F
:102E30000BD38B4205D95E1A43184768C3E9006774
:102E400000E04368136002C004E0021D106800281F
:102E5000ECD12046002802D1286808B10020F0BD3E
:102E6000064A07481060074A121A22F00702C0E912
:102E7000002401202860D7E7BC020020B80200200F
:102E8000B4440020B046002030B51A4C4368246892
:102E90001919884215D04B889BB9174B1B6899426A
:102EA0000FD0164B1B688B4201D1144B18604B6836
:102EB0004360104B1B68C31A0E4D4C682D682C44A0
:102EC000A3600C4C836824681A19824211D053887D
:102ED0007BB90A4B1B68834201D1084B1A604368D7
:102EE0005360044B1B68D31A024D44682D682C4470
:102EF000A36030BDA4010020A8010020AC01002087
:102F00002DE9F04F86B00D469C46DDE91064019630
:102F10000F9B04F04008B8F1000F02D0DFF8708179
:102F200001E0DFF87081CDF8008004F01008B8F1FE
:102F3000000F01D024F0010404F00108B8F1000FE3
:102F400002D04FF0300801E04FF02008C2460027C1
:102F500004F00208B8F1000F11D0002A02DA2D2780
:102F600052420CE004F00408B8F1000F01D02B2706
:102F700005E004F00808B8F1000F00D02027002178
:102F800042B94FF0300B8846491C0DF1080909F889
:102F900008B01DE01AE0E146B9F10A0F08D14FF080
:102FA0000A0BB2FBFBFE0BFB1E28B2FBFBF202E09E
:102FB00002F00F08120900BFDDF8009019F808B000
:102FC0008846491C0DF1080909F808B0002AE2D129
:102FD000B14200DD0E469B1B04F01108B8F1000F52
:102FE00010D117B1002B00DD5B1E06E0A84203D212
:102FF0004FF0200880F80080401CB3F10008A3F1D6
:103000000103F3DC27B1A84200D207705B1E401C0D
:1030100004F01008B8F1000F0AD104E0A84201D270
:1030200080F800A0401CB3F10008A3F10103F5DC17
:1030300006E0A84203D24FF0300880F80080401C20
:10304000B046761E8845F4DC08E0A84205D20DF1B2
:10305000080818F8018080F80080401CB1F10008D1
:10306000A1F1010104DDDDF80480B8F1000FECD11D
:1030700006E0A84203D24FF0200880F80080401CF0
:10308000B3F10008A3F10103F3DC06B0BDE8F08F53
:10309000694D0008584D00081CB514200A214FF452
:1030A00000730022CDE90010044905A000F0F0FFF4
:1030B0000446204601F01EF91CBD00000D2E00083C
:1030C0006D61696E0000000010B5044C02E02068DC
:1030D0008047241D02488442F9D310BD804D00086A
:1030E000884D000810B5044C02E020688047241D7C
:1030F00002488442F9D310BD884D00088C4D000869
:1031000010B5FDF731F8044604480088401C00B2B1
:10311000024908802046FDF72BF810BD640200200C
:1031200010B5FDF721F804460C480088401E00B297
:103130000A4908800846B0F9000000280ADC00208F
:1031400008802046FDF714F80548006828B100F013
:1031500085FC02E02046FDF70BF810BD640200205C
:103160006802002070B5054605B970BD00BF224851
:10317000006818B1284620490968884700BF1F48E1
:103180000068854203D31E480068854200D3ECE7FF
:10319000A5F10C044FF0FF311A4800F047FD60889C
:1031A00018B12088B0F5F55F08D017A000F044FAF8
:1031B0002388628821461BA000F03EFA0020608030
:1031C0004FF4F550208023480068844201D2214802
:1031D00004600A4960680968611A401A1E49096852
:1031E000081A1D4908602046FFF74EFE054800F00A
:1031F000E9FC00BFB9E70000A0010020A401002005
:10320000A801002010410020746F206672656520BF
:103210006120626164206461746120626C6F636B21
:103220003A0A00006D656D3A203078253038782CE8
:10323000207573656420666C61673A2025642C20D4
:103240006D6167696320636F64653A20307825306B
:1032500034780A00AC010020B40100200048704717
:10326000C002002000487047C03E002070B5FDF746
:1032700047FBFEF723FFFDF7C9FE4FF47A71B0FB61
:10328000F1F42046FEF778F9FFF71EFFFFF7EAFF9B
:103290000446FFF7E3FF0546214600F007FE70BD38
:1032A000F8B50546002400260D20009000BF002040
:1032B0000E4981F8380000BF284600F0D3FD0646CD
:1032C00000BF0FE0285D0A2805D101231A46694690
:1032D0000648FEF7DDF9291901231A460348FEF7CF
:1032E000D7F9641CB442EDD3F8BD0000C03E002005
:1032F00070B505462C1D2E48006838B128462C496B
:1033000009688847064606B970BD00BF29A0E16B71
:1033100000F092F92BA0216A00F08EF92DA0616ACD
:1033200000F08AF92FA0A16A00F086F931A0E16AC5
:1033300000F082F933A0216800F07EF935A06168C1
:1033400000F07AF937A0A16800F076F939A0E168B9
:1033500000F072F93BA0216900F06EF93DA06169AF
:1033600000F06AF93FA0A16900F066F941A0E169A7
:1033700000F062F943A0216B00F05EF945A0616B9B
:1033800000F05AF947A0A16B00F056F9287800F038
:10339000040038B100F086FF0646314645A000F033
:1033A0004BF902E04BA000F047F900BFFEE7000038
:1033B000B40200207073723A203078253038780AD1
:1033C000000000007230303A203078253038780A1A
:1033D000000000007230313A203078253038780A09
:1033E000000000007230323A203078253038780AF8
:1033F000000000007230333A203078253038780AE7
:10340000000000007230343A203078253038780AD5
:10341000000000007230353A203078253038780AC4
:10342000000000007230363A203078253038780AB3
:10343000000000007230373A203078253038780AA2
:10344000000000007230383A203078253038780A91
:10345000000000007230393A203078253038780A80
:10346000000000007231303A203078253038780A78
:10347000000000007231313A203078253038780A67
:10348000000000007231323A203078253038780A56
:1034900000000000206C723A203078253038780A1D
:1034A000000000002070633A203078253038780A18
:1034B0000000000068617264206661756C74206FA2
:1034C0006E207468726561643A2025730D0A0D0AD6
:1034D0000000000068617264206661756C74206F82
:1034E0006E2068616E646C65720D0A0D0A00000042
:1034F000F0B504460D461646301D20F00700403852
:103500000146002203E00C4F41F82270521C102AA1
:10351000F9D30D624FF0000CC1F824C0C1F828C0E7
:10352000C1F82CC0C1F830C04B638C634FF0807C75
:10353000C1F83CC0F0BD0000EFBEADDE10B5FCF739
:1035400013FE044608480078401C0749087000BF75
:103550000648006810B105480068804700BF204653
:10356000FCF706FE10BD000098010020900100202D
:1035700010B5FCF7F9FD044608480078401E0749DD
:10358000087000BF0648006810B105480068804711
:1035900000BF2046FCF7ECFD10BD000098010020A4
:1035A0009401002070B504462068A0F11405284657
:1035B00000F04EFE002070BD2DE9F04105460C469E
:1035C0009046204600F0ACFEB8F1000F03D0B8F1F1
:1035D000010F23D105E004F11401284600F062F840
:1035E0001DE02E680FE0A6F1140794F8350097F857
:1035F0003510884206DA04F1140107F1140000F0D6
:1036000051F802E03668AE42EDD100BFAE4204D1BF
:1036100004F11401284600F045F800E000BF00BFA7
:103620000020BDE8F08110B5044604F1140000F05C
:103630001BF8002010BD00000FB438B505A800909D
:103640007F210848009B049A01F0D4F804467F2C9F
:1036500000D97F240348FFF723FE0020009038BCE8
:103660005DF814FB904000204060006070474060AF
:1036700000607047406000607047026851600268F7
:103680000A600160486070470268516002680A6021
:103690000160486070470268516002680A6001601A
:1036A000486070474268116042684A604160086043
:1036B000704701460868884201D101207047002008
:1036C000FCE701460868884201D1012070470020CC
:1036D000FCE7D0E900215160D0E9001211604060A0
:1036E00000607047D0E900215160D0E900121160FC
:1036F000406000607047D0E900215160D0E90012BD
:1037000011604060006070472DE9F041054615B931
:103710000020BDE8F081E81C20F003055448006853
:10372000854201D90020F4E70C2D00D20C254FF082
:10373000FF31504800F07AFA4F4800684F49096855
:10374000461A8AE04D4800688419608800287CD1B8
:1037500006F10C006168081AA8427AD306F10C0041
:103760006168091A05F11800814230D306F10C0096
:1037700000EB05084148006800EB08074FF4F550DE
:1037800038800020788060687860BE60C4F804806B
:10379000012060803648796800680C30814205D08D
:1037A0003649786809680844C0F8088034480168D8
:1037B00005F10C0008443249086032480068096885
:1037C000884219D22E4800682E49086014E0012072
:1037D00060802A4960680968611A401A28490968A6
:1037E000084427490860274800680968884203D2CE
:1037F00023480068234908604FF4F55020801E4894
:103800000068844212D107E01B48006840681B49E9
:10381000096808441849086017480068408828B1BA
:1038200015480068184909688842EDD1114800F030
:10383000C9F900BF1548006828B1294604F10C00F9
:10384000124A1268904700BF00E002E004F10C0049
:103850005FE70A4800683044466805480068401B36
:10386000B0423FF66FAF034800F0ACF9002050E7DC
:10387000B001002010410020AC010020A401002074
:10388000B4010020B8010020A80100209C01002004
:10389000F0B50C460546E6B2042A15D300F003073E
:1038A00097B9014646EA062343EA034304E008C108
:1038B00008C108C108C1103A102AF8D201E008C1B5
:1038C000121F042AFBD20D4601E005F8016B171EFA
:1038D000A2F10102F9D1F0BD2DE9F04106460F46F3
:1038E000304600F067F80546E868FFF70DFF04462C
:1038F00014B90020BDE8F08100212046EA68FFF7F6
:10390000C7FF26720020607208223946204600F068
:10391000B2FA00BF0A48006818B120460849096891
:10392000884700BFFCF720FC804604F10C01281DED
:10393000FFF7A3FE4046FCF71BFC2046DAE7000039
:103940004C02002070B5044600BF0C48006818B156
:1039500020460A490968884700BF00202072FCF70A
:1039600003FC054604F10C00FFF7B3FE2846FCF704
:10397000FFFB2046FFF7F6FB70BD00005002002061
:1039800070B5044600BF0A48006818B120460849CF
:103990000968884700BF00202072FCF7E5FB054658
:1039A00004F10C00FFF795FE2846FCF7E1FB70BD23
:1039B00050020020024600210AE0074800EB0110F7
:1039C0000078904203D1044800EB01107047491C75
:1039D0000929F2DB0020F9E7BC0100202DE9F047BE
:1039E00004460D46904600262846FFF7E3FF0746AB
:1039F000FFF786FB7E6802E0A6F10C003668381DF2
:103A00008642F9D1FFF78CFB45F080002072082236
:103A10004146204600F02FFA00BF0A48006818B15E
:103A2000204608490968884700BFFCF79DFB81468E
:103A300004F10C01381DFFF720FE4846FCF798FB07
:103A4000BDE8F0874C0200200146087A00F08000B3
:103A500008B1012070470020FCE700002DE9F0418B
:103A6000FCF782FB07461D48008888BB1C4800689D
:103A7000FEF784FC461E1B4850F83600A0F11404E3
:103A800019480068844222D018490E70164805680B
:103A9000046000BF1648006820B121462846144A39
:103AA0001268904700BF1348007850B904F11C0118
:103AB00005F11C00FCF75FFB3846FCF759FBBDE83D
:103AC000F08104F11C0105F11C00FCF754FB00BF60
:103AD0003846FCF74DFB00BFF1E700006402002010
:103AE0006002002030410020680200206C020020AB
:103AF000780200209801002070B50446FCF734FBE2
:103B0000054614F8340F20F00F0040F0010020703B
:103B10006278343C0A4B03EBC20004F114014268A2
:103B2000116042684A604160086000BF0549A06BAF
:103B300009680843034908602846FCF719FB70BD73
:103B4000304100206002002070B50446FCF70CFBF9
:103B5000054604F11400D0E900215160D0E90012BB
:103B600011604060006000BF94F83510094A02EB14
:103B7000C1000168814201D1012100E0002129B189
:103B80000548A16B00688843034908602846FCF794
:103B9000EFFA70BD30410020600200202DE9F041B5
:103BA00004460D4616461F462A4602212046FFF7C8
:103BB00015FF2046FFF737FDA68367720020BDE89A
:103BC000F081000070B5044600BF1748006818B1C6
:103BD000204615490968884700BF0025FCF7C4FA4C
:103BE000064604F11400FFF764FD28B904F114003F
:103BF000FFF7D8FC01250EE0A08B4FF6FF7188423D
:103C000003DAA08B401CA08305E03046FCF7B0FA35
:103C10006FF0020070BD3046FCF7AAFA012D01D109
:103C2000FFF71CFF0020F5E75C02002073B5054696
:103C300000BF2448006818B128462249096888470F
:103C400000BFFCF791FA0646A88B002806DDA88B7A
:103C5000401EA8833046FCF78BFA28E0019828B96B
:103C60003046FCF785FA6FF001007CBD00F01AFBCE
:103C70000446002020636A7A214605F11400FFF70C
:103C80009BFC0198002809DD01AA002104F14C00E9
:103C900000F07AFC04F14C0000F0E8FC3046FCF740
:103CA00067FAFFF7DBFE206B08B1206BDDE700BF92
:103CB0000548006818B1284603490968884700BFCD
:103CC0000020D2E7540200205802002008B509A0C5
:103CD000FFF7B2FC0AA0FFF7AFFC12A005230122F8
:103CE0000321009012A0FFF7A7FC19A0FFF7A4FC86
:103CF00008BD00000A205C207C202F0A0000000084
:103D00002D205254202D20202020205468726561DF
:103D100064204F7065726174696E672053797374A3
:103D2000656D0A004A756C2031352032303234001E
:103D3000202F207C205C202020202025642E25643C
:103D40002E2564206275696C642025730A000000CA
:103D50002032303036202D203230323020436F7008
:103D60007972696768742062792072742D74687240
:103D7000656164207465616D0A0000007CB5684669
:103D8000FFF778FCFCF7F0F9064658E03148006888
:103D9000A0F1140400F072FB0546A06A281A6FF027
:103DA0000041884249D200BF2B48006818B1204624
:103DB00029490968884700BF2046FEF7DEFF607A80
:103DC00000F0020018B9607A20F00100607204F17E
:103DD00014016846FFF75FFC002020490870304658
:103DE000FCF7C6F9D4E90710884700BF1C480068F3
:103DF00018B120461A490968884700BFFCF7B4F992
:103E000006460120154908706846FFF75AFC00B1C4
:103E100015E004F11400FFF76EFC607A00F0020078
:103E200060B1607A00F0010040B1607A20F00100DA
:103E30006072204600F01AFC00E005E000BF054873
:103E4000FFF73FFC0028A1D000BF3046FCF790F9F7
:103E50007CBD0000940200209C0200209002002003
:103E6000A002002001460A4600E0521C10780028FB
:103E7000FBD1501A704770B50346A2B118460C46E4
:103E800000BF14F8016B00F8016B3EB902E0002599
:103E900000F8015B551E2A1EF9D102E0551E2A1EAC
:103EA000EFD100BF00BF184670BD00002DE9F04102
:103EB00005460E46E81C20F0030726F00308B8F17B
:103EC000180F09D9A8F11800B84205D3A8EB0700CC
:103ED00018381E49086006E0324629461CA0FFF744
:103EE000ABFBBDE8F0812948076004684FF4F5504A
:103EF0002080164800680C3060600020A060608060
:103F00002249606809680844214908604FF4F55067
:103F10000968088001201E49096848800B4800682C
:103F20000C301B4909684860084800680C30184983
:103F3000096888600023012216A11848FFF72EFEA9
:103F4000124800681649086000BFCAE7B0010020A7
:103F50006D656D20696E69742C206572726F7220B8
:103F6000626567696E20616464726573732030787E
:103F700025782C20616E6420656E64206164647213
:103F800065737320307825780A000000A4010020B2
:103F9000A801002068656170000000001041002049
:103FA000AC01002010B500200B490880002405E07A
:103FB0000A4901EBC400FFF75AFB641C202CF7DB15
:103FC0001F2007490870002006490860064908605C
:103FD0000648FFF74CFB10BD640200203041002072
:103FE0006C020020680200206002002070020020A5
:103FF00070B508480068FEF7C1F9451E064850F83C
:104000003500A0F114040548046004F11C00FCF71D
:10401000E0F870BD600200203041002068020020FE
:1040200010B5002405E0044901EBC400FFF722FBB2
:10403000641C002CF7D010BD880200201FB500249E
:1040400005E00D4901EBC400FFF714FB641C002CD4
:10405000F7D00A200421CA01084BCDE90032CDE98E
:1040600002100023064A07A1084800F0CDF80748CF
:1040700000F040F91FBD000094020020B042002073
:104080009D43000874696D65720000003042002095
:104090002DE9FF5F06460F4690461D46DDE90EAB53
:1040A00031460120FFF718FC8146B9F1000F03D11A
:1040B000002004B0BDE8F09F2846FFF725FB04462A
:1040C00024B94846FFF73EFC0020F2E743463A4653
:1040D000314648468DE8300CFEF7E0FD4846E8E7FB
:1040E00010B50446204600F0E3F810BD70B5134843
:1040F0000468FCF739F805462046FEF74CFE2046DA
:10410000FFF722FD042084F8340004F14C0000F095
:104110006CFA2046FFF798FC012803D12046FFF7F0
:104120002FFC04E004F114010548FFF7ADFAFFF796
:1041300095FC2846FCF71CF870BD000068020020C2
:10414000700200200FE0002408E0074850F8240027
:1041500018B1054951F824008047641C042CF4D39D
:1041600000F004F800BFEEE78040002070B528E0C2
:10417000FBF7FAFF054600BF13480168814201D0F2
:10418000012100E0002119B92846FBF7F1FF19E0F1
:104190000D480068A0F1140404F11400D0E90021D6
:1041A0005160D0E9001211604060006000BFA06A59
:1041B000FEF7D8FF2046FFF7C5FB2846FBF7D8FFE0
:1041C00000BFD5E700BF70BD700200201FB52020E2
:1041D0001F21C200074BCDE90032CDE902100023B8
:1041E000054A06A1074800F00FF8064800F082F8DB
:1041F0001FBD0000803F0020454100087469646CC9
:1042000065000000003F00202DE9FF5F05460C46D9
:1042100016461F46DDE910ABDDE90E892246012175
:104220002846FFF7DBFB3B463246214628468DE811
:10423000000FFEF733FD04B0BDE8F09F70B50446F3
:10424000204600F0FFF80546284600F031F870BD22
:1042500070B5044694F8340000F00F00022802D034
:104260004FF0FF3070BDFBF77FFF054604F11400EF
:10427000FFF738FA04F14C0000F098FA2846FBF7F3
:1042800077FF2046FFF738FC00BF0548006818B1EB
:10429000204603490968884700BF0020E2E7000084
:1042A000800200200148006870470000680200207A
:1042B00031B5FBF759FF05460D480468204600F06C
:1042C0002FF86A46002104F14C0000F05DF904F17A
:1042D0004C0000F0CBF92846FBF74AFFFFF7BEFB86
:1042E000206B801C08B900202063002038BD00002E
:1042F0006802002010B504463434A07860706178FC
:10430000012088406060022004F834092046FFF74D
:104310009FFFFFF7C7FF08B1FFF7A0FB002010BD0C
:1043200070B5044694F8340000F00F00012802D064
:104330004FF0FF3070BDFBF717FF05462046FFF733
:1043400003FC94F8340020F00F0040F0020084F8E1
:10435000340004F14C0000F029FA2846FBF708FF6E
:1043600000BF0548006818B120460349096888471E
:1043700000BF0020DEE700007C02002070B504468C
:1043800025466FF00100286305F11400FFF7AAF934
:104390002846FFF7B1FBFFF761FB70BD1CE00F483B
:1043A00000F04EF90446601C38B9FFF77BFF054664
:1043B000FFF7B6FFFFF752FB0CE000F05FF8054691
:1043C000601B6FF00041884203D2641B2046FFF758
:1043D00087FE00BFFFF7D2FCE1E700009402002057
:1043E00070B5FBF7C1FE05461448046894F8340024
:1043F00000F00F0001281CD1D4E90510814218D02B
:1044000004F11400FFF76EF994F835200C4B03EB20
:10441000C20004F114014268116042684A604160C0
:10442000086000BF2846FBF7A3FEFFF717FB00203C
:1044300070BD2846FBF79CFE0020F9E768020020CB
:10444000304100200146002902DA4FF0FF3014E02D
:104450004FF47A7291FBF2F24FF47A7302FB03F09D
:104460001A4691FBF2F302FB13124FF47A735A438C
:1044700002F2E73292FBF3F2104470470148006801
:10448000704700008C01002010B50A480068401CED
:1044900008490860FFF706FF0446A06C401EA064B0
:1044A000A06C18B9606CA064FFF79AFF00F004F8E4
:1044B00010BD00008C0100207CB56846FFF7DAF8DB
:1044C000FFF7DCFF0546FBF74FFE06464CE02B48A6
:1044D0000068A0F11404A06A281A6FF00041884215
:1044E00040D200BF2648006818B120462449096818
:1044F000884700BF2046FEF740FC607A00F00200CB
:1045000018B9607A20F00100607204F11401684665
:10451000FFF7C1F8D4E907108847FFF7AFFF05465A
:1045200000BF1848006818B1204616490968884736
:1045300000BF6846FFF7C5F800B115E004F11400AC
:10454000FFF7D9F8607A00F0020060B1607A00F0FD
:10455000010040B1607A20F001006072204600F056
:1045600085F800E005E000BF0448FFF7AAF800283E
:10457000ADD000BF3046FBF7FBFD7CBD88020020BC
:104580009C020020A00200202DE9F04104460E46C6
:104590001546FBF7E9FD0746052E1ED2DFE806F0BB
:1045A0000603090E1300606A286017E0286860623D
:1045B00014E0607A20F0020060720FE0607A40F050
:1045C000020060720AE0607A00F0010010B1012080
:1045D000286001E00020286000E000BF00BF3846EE
:1045E000FBF7C6FD0020BDE8F08170B50446FBF77F
:1045F000BBFD05462046FEF7C0FB607A20F00100B7
:1046000060722846FBF7B4FD2046FFF7B9F9002099
:1046100070BD2DE9F84307460C4615461E46DDE9F8
:10462000088922460A213846FFF7D8F94346324620
:1046300029463846CDF80090FEF77EFBBDE8F883AA
:104640002DE9F04104464FF0FF36FBF78DFD07469C
:104650002046FFF736F818B92068A0F11405AE6AB5
:104660003846FBF785FD3046BDE8F0812DE9F8437B
:104670000546FBF779FD80462846FEF77EFB687A03
:1046800020F00100687200BF4248006818B1284657
:1046900040490968884700BFFFF7F0FE696A08448F
:1046A000A862687A00F0040008B13B4E00E03B4E7F
:1046B000009600242AE019E05DF8242011681422F5
:1046C00002EBC402881A826AAB6AD21A00D108E0EF
:1046D000826AAB6AD21A6FF000439A4200D20CE0B1
:1046E00000BF5DF8240000684DF824005DF8240048
:1046F00006EBC40149688842DED100BF2CB15DF8E9
:1047000024000830611C4DF82100641C002CD2D01C
:1047100023480068401C224908600846076805F1E4
:1047200014010098FEF7B7FF022412E007F003001F
:1047300060B9C4F1010305F1140202EBC301C4F135
:1047400001025DF82200FEF7A6FF00E003E0BF08CB
:10475000641C012CEAD900BF687A40F0010068723D
:104760004046FBF705FD687A00F0040078B10D487B
:10477000007801280BD10C4890F8340000F00F00AD
:10478000022804D10848FFF763FDFFF767F900200E
:10479000BDE8F8835802002094020020880200201F
:1047A000A4020020900200203042002070B5044690
:1047B000607A00F0010010B94FF0FF3070BD00BF0B
:1047C0000B48006818B1204609490968884700BFAE
:1047D000FBF7CAFC05462046FEF7CFFA607A20F0C8
:1047E000010060722846FBF7C3FC0020E6E70000EA
:1047F0005C0200202DE9FF4F89B081464C460A98A3
:1048000009EB00064E4504D24FF0FF36A6EB090037
:104810000A9077E10B980078252806D0B44202D29E
:104820000B9800782070641C69E1002526E00B9845
:10483000401C0B900B9800782D2802D145F01005F4
:104840001CE00B9800782B2802D145F0040515E0F8
:104850000B980078202802D145F008050EE00B984F
:104860000078232802D145F0200507E00B98007856
:10487000302802D145F0010500E000E0D7E700BF95
:104880004FF0FF370B98007830380A2804D20BA875
:1048900000F06DF907460EE00B9800782A280AD13F
:1048A0000B98401C0B900C9880C80C90002F02DADB
:1048B0007F4245F010054FF0FF3A0B9800782E2804
:1048C0001CD10B98401C0B900B98007830380A28AC
:1048D00004D20BA800F04BF982460AE00B9800784E
:1048E0002A2806D10B98401C0B900C9850F804AB6A
:1048F0000C90BAF1000F01DA4FF0000A002004908A
:104900000B980078682803D00B9800786C2805D1A4
:104910000B98007804900B98401C0B900A2005908F
:104920000B9800786F2873D00CDC632813D004DC5C
:1049300025286ED058286DD195E064286BD0692861
:10494000F9D197E0702873D0732825D075286ED0E0
:104950007828F0D18AE005F0100040B904E0B442B4
:1049600001D220202070641C781E071EF7DC0C98F2
:1049700010F8041B0C90C8B20790B44201D20798FB
:104980002070641C04E0B44201D220202070641C1A
:10499000781E071EF7DCB2E00C98006806900C98B1
:1049A000001D0C90069808B960A006904FF0000812
:1049B00001E008F10108B84504D0069810F8080095
:1049C0000028F6D1BAF1000F02DDD04500DDD04657
:1049D00005F0100048B904E0B44201D22020207054
:1049E000641C38467F1E4045F6DC002008900BE032
:1049F000B44202D2069800782070641C0698401CCD
:104A000006900898401C089008984045F0DB09E0A3
:104A100026E01FE032E02CE00AE0B44201D2202080
:104A20002070641C38467F1E4045F6DC67E024E0B9
:104A3000781C10B9082745F00105CDE9007A0295E8
:104A40000C9804C8102331460C902046FEF758FA03
:104A5000044654E0B44201D225202070641C4EE08C
:104A6000082005901DE045F0400500BF102005908E
:104A700017E000BF45F0020500BF12E0B44201D2CA
:104A800025202070641C0B98007830B1B44202D20B
:104A90000B9800782070641C02E00B98401E0B906D
:104AA0002DE000BF04986C2807D10C9850F804BB87
:104AB0000C9005F00200B8B116E0049868280BD1FC
:104AC0000C9830F8041B1FFA81FB0C9005F00200D3
:104AD00050B10FFA8BFB07E00C9850F804BB0C9018
:104AE00005F0020000B100BFCDE9007A02955A46F8
:104AF00031462046059BFEF703FA044600BF0B989B
:104B0000401C0B900B98007800287FF483AE0A9825
:104B100038B1B44202D20020207002E0002006F832
:104B2000010CA4EB09000DB0BDE8F08F284E554CE8
:104B30004C2900000020704700207047002070477B
:104B40000020704710B5FBF70FFBFEF78FFBFFF758
:104B5000BDF8FFF765FAFFF725FAFEF79DFAFFF7B4
:104B60006DFAFFF733FBFFF743FA002010BD014653
:104B7000002009E00B685A1C0A601A7800EB8003D9
:104B800002EB4302A2F130000A681278303A0A2A96
:104B9000F0D3704700B585B00020019002900390DB
:104BA000049000BF2248806940F480402049886119
:104BB0000846806900F48040009000BF00BF00BF3D
:104BC0000846806940F0040088610846806900F06A
:104BD0000400009000BF00BF481501900220029021
:104BE0000320049001A91348FBF7B4FE4FF4806042
:104BF000019000200290039001A90E48FBF7AAFE45
:104C00000D480E4908604FF4E130486000210B4820
:104C10008160C16001610C21416100218161C1613C
:104C2000FCF7C4FC08B100BFFEE7002005B000BDE2
:104C3000001002400008014000380140C03E002042
:104C4000000000000000000001020304060708093C
:104C50000000000001020304000001000200010046
:104C60000300010002000100040001000200010035
:104C70000300010002000100050001000200010024
:104C80000300010002000100040001000200010015
:104C90000300010002000100060001000200010003
:104CA00003000100020001000400010002000100F5
:104CB00003000100020001000500010002000100E4
:104CC00003000100020001000400010002000100D5
:104CD00003000100020001000700010002000100C2
:104CE00003000100020001000400010002000100B5
:104CF00003000100020001000500010002000100A4
:104D00000300010002000100040001000200010094
:104D10000300010002000100060001000200010082
:104D20000300010002000100040001000200010074
:104D30000300010002000100050001000200010063
:104D40000300010002000100040001000200010054
:104D500003000100020001003031323334353637B0
:104D60003839616263646566003031323334353618
:104D7000373839414243444546000000414B000862
:104D8000394B0008954B0008354B00083D4B000897
:104D9000B04D000800000020C0020000BE0700085F
:104DA0005C4E0008C0020020F0470000D823000835
:104DB00051222072014203541401401906091318AC
:104DC0000A1580181A38086AC21A61022B0C12449C
:104DD000740240101963E119A401241A584481F99E
:104DE0004401273A01010110B264A2323A02035190
:104DF00042034B080180A204A9183A010DA129F031
:104E0000396B0B3024F4A83113C0012A200429EC9B
:104E100029881AD00C29045A20781AE00C29045A3F
:104E200024931AF00C290429204A05C02A200432B0
:104E3000302A0690190C2904323C32071A200C291A
:104E40000429FE32082A302C19043234320A1A405E
:0C4E50000C290402472C29D4012C00007E
:0400000508000131BD
:00000001FF
