:020000040800F2
:10000000205D0020450100082D3600080D02000883
:100010002936000803120008416F000800000000A4
:10002000000000000000000000000000B1420008D5
:10003000451200080000000097010008256600082E
:100040005F0100085F0100085F0100085F01000810
:100050005F0100085F0100085F0100085F01000800
:100060005F0100085F0100085F0100085F010008F0
:10007000091200085F0100085F0100085F01000825
:100080005F0100085F0100085F0100085F010008D0
:100090005F0100085F0100085F0100087F1700088A
:1000A0005F0100085F0100085F0100085F010008B0
:1000B000DB660008DD660008DF6600085F010008F7
:1000C0005F0100085F0100085F0100085F01000890
:1000D0005F010008E56E0008016F0008256F000849
:1000E0007D1700085F0100085F0100085F0100083C
:1000F0005F0100085F0100085F0100085F01000860
:100100005F0100085F010008E16600085F01000868
:10011000296B00082B6B0008E3660008E566000801
:100120005F0100085F0100085F0100085F0100082F
:10013000DFF80CD000F0E4FC004800477B0B00081F
:10014000205D00200648804706480047FEE7FEE79E
:10015000FEE7FEE7FEE7FEE7FEE7FEE7FEE7FEE777
:10016000D966000831010008EFF3108072B67047BD
:1001700080F310887047324A1368012B04D04FF087
:10018000010313602F4A10602F4A11602F484FF06F
:10019000805101607047EFF3108272B62848016801
:1001A00091B14FF0000101602648016829B1EFF3D9
:1001B000098121E9F00F0068016023490968096895
:1001C000B1E8F00F81F3098882F310884EF0040E35
:1001D00070471D4908601B494FF00000086018492E
:1001E0004FF0010008601A481A49D0F8002041EA8F
:1001F0000201016015484FF0805101601648006807
:10020000006880F3088861B662B670471EF0040F7C
:100210000CBFEFF30880EFF3098020E9F00F40F8FE
:1002200004ED1EF0040F0CBF80F3088880F30988EA
:1002300000B507F017FF5DF804EB4EF0040E7047B1
:10024000B8100020B0100020B410002004ED00E031
:1002500020ED00E00000FFFF08ED00E02DE9F04197
:100260000024061B254671F1000605DA012400274B
:10027000D0EB070067EB0101161E73F1000605DAEB
:100280000027D2EB0702012567EB030300F022FBF6
:1002900086460E4617469C46AC4204D00025D0EB5D
:1002A000050E65EB010624B10020D2EB000760EBE0
:1002B000030C704631463A466346BDE8F081202A79
:1002C00004DB203A21FA02F00021704721FA02F300
:1002D000D040C2F12002914008431946704740EADD
:1002E00001039B0703D009E008C9121F08C0042AB4
:1002F000FAD203E011F8013B00F8013B521EF9D29B
:100300007047D2B201E000F8012B491EFBD27047C2
:100310000022F6E710B513460A4604461946FFF7D1
:10032000F0FF204610BD10B54843044607F030FCEE
:10033000002805D00021002C02D0641E0155FAE7E8
:1003400010BDF0B480EA0102D40F4200B2EB410FBD
:1003500002D20246084611464A0042D0C30DDDB221
:10036000C1F3C752AD1A202D35DAC1F3160141F49D
:10037000000204B15242C5F1200602FA06F12A41F8
:100380001044B3EBD05F23D0C4B1012DA0EBC35018
:1003900009DCF0BC4FF0004202EAC352DBB200F5C8
:1003A000000000F0F2BA400000F1807000EBC35092
:1003B000A0F1807040EAD170490009E0490841EAA3
:1003C000C071A0EBC35000F50000400800EBC35023
:1003D000F0BC00F0D1BA6142012202EB4101001BE6
:1003E000F6E7F0BC704781F00041AAE780F00040DA
:1003F000A7E780EA010210B502F00043400022D0D6
:100400004A001FD0010E01EB1261C0F35600C2F387
:10041000560240F4000042F40002A0FB0220000457
:100420007F39140400D0401C50EA124001D440002F
:10043000491EC2B20C0604EBD010401C4008802AB2
:1004400002D003E0002010BD20F00100002900DAF6
:100450000020184310BD30B480EA010202F00045CC
:1004600030F0004221F0004013D090B1C30DD40D04
:10047000C2F31601C0F31600E41A41F4000140F47F
:1004800000027D34914201D3641C00E04900002C3D
:1004900002DA30BC002070474FF400000023914284
:1004A00001D3891A034340084FEA4101F7D151B102
:1004B000914202D14FF0004105E002D24FF001011C
:1004C00001E06FF0010103EBC450284430BC00F0A0
:1004D00053BA2DE9FE4F804681EA0300C00F0C4657
:1004E000009021F0004123F00045B8EB0200A94143
:1004F00005D24046214690461C460B46024623F054
:100500000040104347D0270DC7F30A00C3F30A5138
:100510000290401A019040286BDAC3F3130040F4B4
:10052000801B0098924620B10023D2EB030A63EBB4
:100530000B0B01985946C0F14002504600F0FBF900
:1005400006460D4650465946019A00F003FA10EB54
:1005500008006141002487EA115284EAE7731A43D4
:1005600040D0009A62B3019A012A4FEA075215DC83
:10057000001B61EB02014FF0004202EA0752CDE995
:100580000042001C41F5801132462B4600F03AFA39
:1005900003B0BDE8F08F40462146F9E7001B61EB50
:1005A0000201001C41F5801300185B412018A2F5E0
:1005B000001747EB030140EAD570B6196D4111E011
:1005C0006D084FEA360645EAC0754FEA0752001B30
:1005D00061EB0201001C41F5801149084FEA30002F
:1005E0000019514132462B4603B0BDE8F04F00F0F0
:1005F000FAB90098012240000023D0EB020263EB1D
:10060000E073009821464FEAE074B8EB000061EB1C
:100610000401E9E783F000435BE781F0004158E71C
:100620002DE9FE4F81EA030404F0004421F000416B
:1006300000944FF0000B23F0004350EA01045ED019
:1006400052EA03045BD0C3F30A54C1F30A552C44A5
:10065000A4F2F3340194A0FB0254C1F3130141F45A
:100660008011C3F3130343F4801301FB024400FB26
:10067000034E840A970A44EA815447EA8357A4FB4D
:10068000076802958D0A05FB07854FEA932C04FB4A
:100690000C542705029D4FEA065847EA1637B5EB7A
:1006A00008056EEB070C870E920E47EA811742EAA7
:1006B0008312A7FB0201B6EB0B0164EB00042B0DC8
:1006C00043EA0C335E1844EB1C50DA465146E7FB14
:1006D0000201C5F313044FEA0B3343EA14534FEA04
:1006E0000432019C43EA0603A4F10C040294009C2A
:1006F000CDE900B400F086F903B0BDE8F08F00202A
:100700000146F9E72DE9F04D81EA030404F0004BBE
:1007100021F0004514464FF0000A23F0004150EA52
:10072000050220D054EA01021DD0C5F30A57024643
:10073000C5F31303C1F31300C1F30A5640F4801547
:1007400043F48013A7EB0608101BD64608F2FD38C9
:1007500073EB050002D308F1010801E092185B4138
:10076000B8F1000F03DA00200146BDE8F08D00204B
:100770004FF48011064684460EE0171B73EB050705
:1007800005D3121B63EB050306434CEA010C490831
:100790004FEA300092185B4150EA0107EDD152EA6E
:1007A000030012D082EA040083EA0501084305D061
:1007B000101BAB4106D20122002306E000224FF0BD
:1007C000004302E06FF0010253101AEB06004CEBFD
:1007D000085110EB0A0041EB0B01BDE8F04D00F0B1
:1007E00002B9C10F80EAE0700844CA0796230021CD
:1007F00000F0CBB896230022114600F0C6B8F0B442
:10080000CA17CB0F50405140C61841F100054FEABE
:10081000C372314628004FF0960303D0B623F0BCD4
:1008200000F0B3B830460021F9E70EB540F233418D
:1008300002910021CDE900110A460B4600F0E2F8D2
:1008400003B000BD20F00040C10DC0F3160040F41D
:1008500000007F2901DA00207047962903DCC1F1EE
:100860009601C840704796398840704700F00042B2
:1008700030F000400AD0C10D01F56071C0F31600E0
:1008800042EA0151C2084007114370470020014667
:1008900070470000002801DBC0F10040002901DBA7
:1008A000C1F100418142704730B50B46014600203E
:1008B0002022012409E021FA02F59D4205D303FA22
:1008C00002F5491B04FA02F52844151EA2F10102A3
:1008D000F1DC30BD2DE9F05F0546002092469B46D5
:1008E00088460646814640241BE028464146474646
:1008F0002246FFF7E4FC53465A46C01A914110D3F2
:1009000011461846224600F016F82D1A67EB01082A
:100910004F4622460120002100F00DF817EB000998
:100920004E41201EA4F10104DFDC484631462A4630
:100930004346BDE8F09F202A04DB203A00FA02F18A
:10094000002070479140C2F1200320FA03F31943BD
:1009500090407047202A06DBCB17203A41FA02F07C
:1009600043EAE07306E041FA02F3D040C2F120020C
:1009700091400843194670470029A8BF7047401CA2
:10098000490008BF20F00100704710B4B0FA80FCA5
:1009900000FA0CF050EA010404BF10BC704749B1E2
:1009A000CCF1200421FA04F411FA0CF118BF012152
:1009B00021430843A3EB0C01CB1D4FEA00614FEA32
:1009C000102042BF002010BC704700EBC350104401
:1009D0000029A4BF10BC7047401C490008BF20F08C
:1009E000010010BC704710B5141E73F1000408DA42
:1009F000401C41F1000192185B411A4301D120F0E3
:100A0000010010BD2DE9F04D92469B4611B1B1FA9F
:100A100081F202E0B0FA80F220329046FFF78BFFBD
:100A200004460F4640EA0A0041EA0B0153465A4683
:100A3000084313D0114653EA010019D0C8F140020F
:100A40005046FFF73CFC05460E4650465946424686
:100A5000FFF771FF084305D0012004E02046394626
:100A6000BDE8F08D0020054346EAE0762C4337438D
:100A70000A986305E40AA0EB08000022FD0A44EA94
:100A800047540A3002D500200146E9E70105101954
:100A90006941DDE9084500196941BDE8F04DA2E76B
:100AA000C1F30A52C1F3130140F2FF3341F4801144
:100AB0009A4202DA00200146704740F233439A42DC
:100AC000A2F2334202DC5242FFF7F9BBFFF733BF19
:100AD00030B5041E71F1000404DB4FF000444042C5
:100AE00064EB0101141E73F1000405DB1C464FF09A
:100AF0000043524263EB0403994208BF904230BD69
:100B0000064C074D06E0E06840F0010394E807005A
:100B100098471034AC42F6D3FFF70EFB4C9B00080D
:100B20006C9B000870B58C1810F8015B15F007037A
:100B300001D110F8013B2A1106D110F8012B03E076
:100B400010F8016B01F8016B5B1EF9D12B0705D47E
:100B50000023521E0DD401F8013BFAE710F8013BC7
:100B6000CB1A921C03E013F8015B01F8015B521EE3
:100B7000F9D5A142D8D3002070BD10B508F0B0FE61
:100B8000002010BD30B502460023002018E080236D
:100B900011E014781C400CB1012400E00024C0F3E3
:100BA000C015AC4204D04406200E80F0070001E0DE
:100BB0004406200E5B10002BEBD1521C4C1EE1B200
:100BC0000029E4D130BD0246002004E013785840EB
:100BD000521C4B1ED9B20029F8D170472DE9F041C3
:100BE0000646002700BF56E106F1C00000EB4710A3
:100BF00090F8018006F1C00000EB47100578B8F1CD
:100C0000100F73D2DFE808F0081B2E4154677B8E6B
:100C1000A1B4C7DAF1EFEEED012D08D11021304675
:100C200000F040F9044648F21000606006E0102130
:100C3000304600F037F904461020606029E1012DAC
:100C400008D11121304600F02DF9044648F2300059
:100C5000606006E01121304600F024F9044630209F
:100C6000606016E1012D08D11221304600F01AF91A
:100C7000044648F25000606006E01221304600F061
:100C800011F904465020606003E1012D08D11321C1
:100C9000304600F007F9044648F27000606006E054
:100CA0001321304600F0FEF8044670206060F0E04A
:100CB000012D08D11421304600F0F4F8044648F222
:100CC0009000606006E01421304600F0EBF8044626
:100CD00090206060DDE0012D09D11521304600F043
:100CE000E1F8044648F2B000606007E0CDE015216D
:100CF000304600F0D7F80446B0206060C9E0012D0E
:100D000008D11621304600F0CDF8044648F2D00054
:100D1000606006E01621304600F0C4F80446D0209A
:100D20006060B6E0012D08D11721304600F0BAF816
:100D3000044648F2F000606006E01721304600F0FB
:100D4000B1F80446F0206060A3E0012D08D118211D
:100D5000304600F0A7F8044648F22000606006E044
:100D60001821304600F09EF804462020606090E094
:100D7000012D08D11921304600F094F8044648F2BC
:100D80006200606006E01921304600F08BF80446EE
:100D9000622060607DE0012D08D11A21304600F00C
:100DA00081F8044648F2A400606006E01A2130464B
:100DB00000F078F80446A42060606AE0012D08D1B4
:100DC0001B21304600F06EF8044648F2E6006060F1
:100DD00006E01B21304600F065F80446E62060601E
:100DE00057E03EE029E014E0FFE7012D08D11C2187
:100DF000304600F057F8044648F2E810606007E01B
:100E00001C21304600F04EF804464FF4F470606048
:100E10003FE0012D08D11D21304600F043F8044683
:100E200048F2C910606007E01D21304600F03AF832
:100E3000044640F2C91060602BE0012D08D11E214C
:100E4000304600F02FF8044648F2AA10606007E030
:100E50001E21304600F026F804464FF4D57060603D
:100E600017E0012D08D11F21304600F01BF8044681
:100E700048F28B10606007E01F21304600F012F846
:100E8000044640F28B10606003E06FF01A00BDE88A
:100E9000F08100BF7F1C96F84002B8423FF7A4AE35
:100EA0000020F4E730B502460B46002412B1D2F818
:100EB000B80008B9002030BD002110E001EB410569
:100EC000D2F8B80050F82500984206D101EB410550
:100ED000D2F8B80000EB850405E0481CC1B292F8D6
:100EE000BC008842EADC00BF2046E4E770B5054656
:100EF00000240721284600F015F804460CB12046CE
:100F000070BD0748C06C4FF6F071084043F2D00145
:100F1000884201D10020F3E74FF0FF30F0E70000F6
:100F2000C01000202DE9FF47064688460027002014
:100F300002900390002581468246009001901EB9E0
:100F4000401E04B0BDE8F08741463046FFF7AAFFD7
:100F5000044614B94FF0FF30F3E7207800F03F006B
:100F600040F040008DF808009DF80810304600F071
:100F700023FB47B217B16FF00100E2E796F8BD001E
:100F800020B1207A801C00F0FF0903E0207A401C89
:100F900000F0FF09002508E00021304600F018FBB2
:100FA00002AA691C5054681CC5B24D45F4DB96F882
:100FB000BD00012819D1207800F03F0040F040002A
:100FC0008DF80000012505E002A8405D0DF8050040
:100FD000681CC5B2A068801CA842F5DC207A801C81
:100FE000C1B26846FFF7CEFD824696F8BD000228E2
:100FF00019D1207800F03F0040F040008DF800004B
:10100000012505E002A8405D0DF80500681CC5B289
:10101000A068801CA842F5DC207A801CC1B268461A
:10102000FFF7D1FD8246BAF1000F02D06FF0010048
:1010300087E700206060012509E0606800026060C9
:1010400002A9495D606808446060681CC5B2A06878
:10105000401CA842F1DC384673E770B50446002511
:1010600000260CB9681E70BD002505E0FF21204652
:1010700000F0A2FA06466D1C092DF7DB3046F2E7B8
:1010800030B5044614B1D4F8B80010B94FF0FF30B1
:1010900030BD02212046FFF705FF054615B94FF088
:1010A000FF30F5E7287900F00800082803D1012077
:1010B00084F8BD000BE0287900F00400042803D177
:1010C000022084F8BD0002E0002084F8BD0000206A
:1010D000DEE72DE9F04105460E464FF0000815B158
:1010E000D5F8B80018B94FF0FF30BDE8F081002105
:1010F0002846FFF7D7FE044614B94FF0FF30F4E757
:101100000DE000212846FFF70DFF07460FB13846D6
:10111000EBE7207900F0800008B94FF00108B8F142
:10112000000F03D13000A6F10106EAD10EB1002074
:10113000DBE76FF00200D8E72DE9FC5F0646894641
:101140004FF0000A00270020009001900025834600
:10115000804616B9401EBDE8FC9F49463046FFF761
:10116000A1FE044614B94FF0FF30F4E7207800F0F8
:101170003F008DF800006768002507E0F8B2A1681D
:10118000491B0DF801003F12681CC5B2A068A842B7
:10119000F4DC207A401C00F0FF0B96F8BD0001281B
:1011A0000ED1207A401CC1B26846FFF7EBFC8046A6
:1011B000A068401C0DF80080207A801C00F0FF0B16
:1011C00096F8BD0002280ED1207A401CC1B26846B4
:1011D000FFF7F9FC8046A068401C0DF80080207ADB
:1011E000801C00F0FF0B002507E01DF805103046BD
:1011F00000F0E2F98246681CC5B25D45F5DB504659
:10120000A9E700BFFEE7000010B5024800F03DFA74
:1012100010BD00002C03002030B590F84050012490
:10122000AC40C56B6C60046863604468102C04D1EA
:101230000468A2600468E16003E00468A1600468D7
:10124000E26030BD704710B50446204607F0C4FE8A
:1012500010BD32280AD2002105E0002200E0521C15
:10126000082AFCDB491C8142F7D319E000EBC002DD
:101270004FF0E0235A6100229A6101221A6100BFF7
:101280004FF0E022116901F001021AB101F480323D
:10129000002AF5D000224FF0E0231A619A6100BFC6
:1012A0007047000070B505460E4600242BE004EBA5
:1012B000440105EBC10003F093F804EB440105EB96
:1012C000C10003F096F904EB440005EBC000406850
:1012D0000E4988420FD004EB440005EBC000406883
:1012E0000B49884207D004EB440005EBC00040687E
:1012F0000849884205D104EB440105EBC10003F025
:10130000FFF8601CC4B2B442D1DB70BD00002110F4
:10131000000011100000311070B504460D4604A005
:1013200005F072FE2A46214606A005F06DFE70BD4E
:101330002D3E48617070656E204572726F7221217A
:10134000210D0A002D3E4572726F7220506172614C
:101350006D65746572732056616C75653A206669B7
:101360006C65202573206F6E206C696E6520256486
:101370000D0A000010B500F01BFF03F041F903F067
:1013800072F910BD0FB47CB504460D4616460AA886
:1013900001904FF480710948019B099A05F044FEC1
:1013A000064833462A462146009005A005F02CFE4B
:1013B000002001907CBC5DF814FB00002A14002082
:1013C0005B25735D5B257328293A253034645D20E5
:1013D00025730D0A0000000010B5044602212046C6
:1013E000FFF760FF10BD2DE9F04107460D460024D0
:1013F000384603F074F9002615E0384603F05DF92D
:10140000022003F043F9384603F04EF96006040E5B
:10141000384603F041F908B1601CC4B2012003F062
:1014200035F9701CC6B2082EE7DB1DB1384603F053
:1014300086F902E0384603F09AF92046BDE8F081CB
:1014400070B506460C46304603F065F9304603F0A9
:1014500034F900251CE004F0800018B1304603F098
:1014600035F902E0304603F04DF96006040E022023
:1014700003F00CF9304603F017F9022003F006F9E7
:10148000304603F01AF9022003F000F9681CC5B2D7
:10149000082DE0DB70BD10B50446204603F03BF993
:1014A000204603F013F9204603F0FEF8042003F071
:1014B000EDF8204603F026F9042003F0E7F8204673
:1014C00003F0FBF810BD10B50446204603F023F9E5
:1014D000204603F0F2F8204603F014F9042003F04C
:1014E000D5F8204603F0E0F8204603F0EFF804209A
:1014F00003F0CCF810BD70B505460024284603F073
:10150000EEF8284603F0E2F8012003F0BFF8284681
:1015100003F0CAF8012003F0B9F808E0601CC4B277
:10152000FA2C04DD2846FFF7CEFF012070BD2846C7
:1015300003F0B2F80028F1D1284603F0BEF80020ED
:10154000F4E7000070B505460E4618210020FEF7AE
:10155000EAFE12490860002419E004EB041105EBCF
:10156000C10003F0D1FC04EB041105EBC10003F052
:10157000DBFA04EB041105EBC10003F04FFB04EBB5
:10158000041105EBC10003F063FC601CC4B2B4425B
:10159000E3DB0248006806F0B9FA70BD800F002056
:1015A00010B50446204604F073FA204604F0B0FA61
:1015B000204604F0E7FA10BD73B504464FF47A7381
:1015C000012201A9204601F0ABFA054628467CBD60
:1015D00013B582B00446002001904FF47A700123C5
:1015E00001AA03A90090204601F071FB9DF80400B8
:1015F00004B010BD10B5044604F0B4FB204604F05E
:101600006FFE204604F048FC204604F0B7FC20465C
:1016100004F012FC204604F0A7FB204604F038FD3D
:10162000204604F0E9FD204604F03EFE94F8C9008F
:10163000012819D100BF04F184006063A82004517F
:1016400000BFDE21085B06F0A3FAE0210851206804
:10165000C06840F010002168C860DE20025BE02016
:101660000159204601F0BAFE94F8C80001280BD1B8
:1016700000BF04F140002063646600BFEA21085BFC
:1016800006F086FAEC21085110BD10B5044694F816
:10169000C80018B104F1400000F076F994F8C900D0
:1016A00018B104F1840000F06FF910BD38B504469C
:1016B00020680068C0F30010C8B100BF002000908F
:1016C00020680068009020684068009000BF00BF5C
:1016D000204601F06BFDDE20005B616B0968496804
:1016E000401A81B2DC2001530121E5200155DE20A2
:1016F000025BE0200159204601F070FE38BD10B5B4
:101700000446204601F086FD10BD70B504460E4625
:10171000E520005D012801D0002070BDDC20055BC4
:1017200029463046FEF7F4FDE02001592A463046AE
:10173000FEF7D5FD0021E52001552846EDE770B5FF
:1017400004460D461646FF2332462946204601F040
:10175000A9FE70BD70B504460E46154600BF04F1E3
:10176000400000F00DF90128F9D1A4F8E850B4F8D0
:10177000E8203146204601F0FFFE70BD70477047FB
:101780000146002291F82100022808D00420886335
:1017900000BF002081F8200000BF012070470868CA
:1017A000006820F00E000B6818600868006820F0E0
:1017B00001000B68186091F8403001209840CB6B15
:1017C0005860012081F8210000BF002081F820002E
:1017D00000BF1046E2E7000070B50446002594F80B
:1017E0002100022803D00420A0630125C1E0206865
:1017F000006820F00E00216808602068006820F072
:101800000100216808605C492068884252D95A4921
:1018100078392068884201D1012047E0564964396F
:101820002068884201D1102040E053495039206897
:10183000884201D1801539E04F493C3920688842FF
:1018400001D1801432E04C4928392068884202D105
:101850004FF480302AE0484914392068884202D188
:101860004FF4801022E044492068884201D14004AE
:101870001CE042492068884201D1012016E03F491E
:1018800014312068884201D110200FE03B492831F3
:101890002068884201D1801508E038493C31206831
:1018A000884201D1801401E04FF480303349091F90
:1018B000086051E0304978392068884201D1012020
:1018C00047E02D4964392068884201D1102040E06A
:1018D000294950392068884201D1801539E02649CC
:1018E0003C392068884201D1801432E022492839ED
:1018F0002068884202D14FF480302AE01E49143912
:101900002068884202D14FF4801022E01A492068F2
:10191000884201D140041CE018492068884201D166
:10192000012016E0154914312068884201D11020A9
:101930000FE0124928312068884201D1801508E063
:101940000E493C312068884201D1801401E04FF4F7
:101950008030094980394860012084F8210000BFA7
:10196000002084F8200000BF606B10B12046616B3E
:101970008847284670BD00008000024008040240ED
:10198000014691F82100704770B50446E06B056888
:101990002068066894F840100420884028400028F9
:1019A00075D006F004000028FAD02068006800F026
:1019B000200028B92068006820F004002168086031
:1019C000D5492068884254D9D3497839206888425B
:1019D00001D1042049E0D04964392068884201D10E
:1019E000402042E0CC4950392068884201D100159E
:1019F0003BE0C9493C392068884202D14FF480401D
:101A000033E0C54928392068884202D14FF480204C
:101A10002BE0C14914392068884202D14FF480007C
:101A200023E0BD492068884201D1C0041DE0BB49C4
:101A30002068884201D1042017E0B8491431206899
:101A4000884201D1402010E0B44928312068884202
:101A500001D1001509E0B1493C312068884202D12A
:101A60004FF4804001E04FF48020AC49091F08602A
:101A700054E0A94978392068884201D104204AE01D
:101A8000A54964392068884202D1402043E04CE0F7
:101A9000A14950392068884201D100153BE09E4998
:101AA0003C392068884202D14FF4804033E09A49A3
:101AB00028392068884202D14FF480202BE09649D3
:101AC00014392068884202D14FF4800023E0924903
:101AD0002068884201D1C0041DE0904920688842F6
:101AE00001D1042017E08D4914312068884201D1CA
:101AF000402010E0894928312068884201D1001532
:101B000009E086493C312068884202D14FF4804088
:101B100001E04FF48020804980394860E06A002865
:101B200002D02046E16A8847F4E094F84010022091
:101B300088402840002871D006F002000028FAD022
:101B40002068006800F0200040B92068006820F09C
:101B50000A0021680860012084F821006E4920688D
:101B6000884254D96C4978392068884201D10220D2
:101B700049E0694964392068884201D1202042E067
:101B8000654950392068884201D140153BE06249DF
:101B90003C392068884202D14FF4005033E05E495E
:101BA00028392068884202D14FF400302BE05A498E
:101BB00014392068884202D14FF4001023E05649BE
:101BC0002068884201D180041DE054492068884281
:101BD00001D1022017E0514914312068884201D117
:101BE000202010E04D4928312068884201D140155D
:101BF00009E04A493C312068884202D14FF4005044
:101C000001E04FF400304549091F086054E04249A3
:101C100078392068884202D102204AE057E03E49E4
:101C200064392068884201D1202042E03A49503985
:101C30002068884201D140153BE037493C39206893
:101C4000884202D14FF4005033E0334928392068EC
:101C5000884202D14FF400302BE02F49143920681C
:101C6000884202D14FF4001023E02B4920688842BB
:101C700001D180041DE029492068884201D1022059
:101C800017E0264914312068884201D1202010E055
:101C9000224928312068884201D1401509E01F49B6
:101CA0003C312068884202D14FF4005001E04FF4EB
:101CB000003019498039486000BF002084F82000B6
:101CC00000BFA06A30B32046A16A884722E094F89A
:101CD0004010082088402840E0B106F00800C8B154
:101CE0002068006820F00E002168086094F8401019
:101CF00001208840E16B48600120A06384F8210046
:101D000000BF002084F8200000BF206B10B12046E7
:101D1000216B884770BD000080000240080402402B
:101D20000146002209B9012070471E4B08689842FD
:101D30000BD21D4B0868C01A1423B0FBF3F08000CF
:101D4000086419480838C8630AE0164B0868C01AC6
:101D50001423B0FBF3F08000086412480838C8630D
:101D6000022081F821000868026843F6F07082437F
:101D7000D1E901031843CB6818430B6918434B6939
:101D800018438B691843CB69184302430868026003
:101D900000208863012081F82100002081F82000C4
:101DA00000BFC1E708040240080002402DE9F041ED
:101DB00004460D4616461F464FF0000800BF94F833
:101DC0002000012802D10220BDE8F081012084F822
:101DD000200000BF94F8210001282CD1022084F8B3
:101DE00021000020A0632068006820F00100216825
:101DF00008603B46324629462046FFF70DFAE06A66
:101E000030B12068006840F00E00216808600BE0E7
:101E10002068006820F004002168086020680068DD
:101E200040F00A00216808602068006840F0010066
:101E30002168086006E000BF002084F8200000BF91
:101E40004FF002084046BFE72DE9F847024600235D
:101E50009C467BE14FF0010808FA03F4D1F80080BA
:101E600008EA0400A0427DD1DFF8F4A2D1F8048092
:101E7000A8EB0A09D0453AD014DCB8F1030F50D0D2
:101E800009DCB8F1000F31D0B8F1010F1CD0B8F166
:101E9000020F49D120E0B8F1110F18D0B8F1120F9C
:101EA00042D11EE0B9F5881F25D006DCB9F5803F88
:101EB00020D0B9F5801F37D11AE0B9F5001F18D02E
:101EC000B9F5041F30D117E0D1F80CC02DE0D1F8DE
:101ED0000C8008F1040C28E0D1F80C8008F1080C03
:101EE00023E0D1F80C8008F10C0C1EE000BF00BF0D
:101EF00000BF00BF00BF00BFD1F80880B8F1000FDD
:101F000002D14FF0040C0BE0D1F80880B8F1010FBA
:101F100003D14FF0080C146102E04FF0080C54613B
:101F200003E04FF0000C00E000BF00BFFF2801D825
:101F3000904601E002F104084646FF2802D84FEA25
:101F4000830803E0A3F108084FEA88084746D6F85B
:101F500000804FF00F0909FA07F928EA09080CFA7E
:101F600007F900E07AE048EA0908C6F80080D1F8ED
:101F7000048008F08058B8F1805F6FD100BFDFF8AF
:101F8000E481D8F8188048F00108DFF8D891C9F842
:101F90001880C846D8F8188008F00108CDF80080ED
:101FA00000BF00BF4FEAB9384FEA930958F82950EB
:101FB0004FEA83784FEA18794FF00F0808FA09F8CA
:101FC00025EA0805DFF8A081424502D14FF000085C
:101FD00024E0DFF89881424502D14FF001081DE06E
:101FE000DFF88C81424502D14FF0020816E0DFF89D
:101FF0008481424502D14FF003080FE0DFF8788179
:10200000424502D14FF0040808E0DFF870814245F4
:1020100002D14FF0050801E04FF006084FEA83793E
:102020004FEA197908FA09F848EA0505DFF85081FE
:102030004FEA930948F82950D1F8048008F4803811
:10204000B8F5803F0BD1DFF83C81D8F8008048EA32
:102050000008DFF83091C9F800800AE075E0DFF889
:102060002481D8F8008028EA0008DFF81891C9F820
:102070000080D1F8048008F40038B8F5003F0ED194
:10208000DFF8008108F10408D8F8008048EA000869
:10209000DFF8F09009F10409C9F800800DE0DFF8DD
:1020A000E48008F10408D8F8008028EA0008DFF886
:1020B000D49009F10409C9F80080D1F8048008F42B
:1020C0008018B8F5801F0ED1DFF8B88008F1080835
:1020D000D8F8008048EA0008DFF8A89009F108095C
:1020E000C9F800800DE0DFF89C8008F10808D8F8F6
:1020F000008028EA0008DFF88C9009F10809C9F887
:102100000080D1F8048008F40018B8F5001F0ED143
:10211000DFF8708008F10C08D8F8008048EA000861
:10212000DFF8609009F10C09C9F800800DE0DFF8D4
:10213000548008F10C08D8F8008028EA0008DFF87D
:10214000449009F10C09C9F800805B1CD1F80080AB
:1021500028FA03F8B8F1000F7FF47CAEBDE8F887E9
:10216000000011100010024000080140000C014066
:10217000001001400014014000180140001C014003
:102180000800014000040140024693680B400BB177
:10219000012000E0002070470AB1016101E00B045A
:1021A000036170470148006870470000840F0020F9
:1021B00010B50848006840F0100006490860032088
:1021C00000F0D2F8002000F007F800F02BF8002013
:1021D00010BD00000020024070B504460E48007893
:1021E0004FF47A71B1FBF0F00C490968B1FBF0F5DE
:1021F000284600F095FE08B1012070BD102C07D2D2
:1022000000222146501E00F071F80548046001E0EC
:102210000120F2E70020F0E78C0F0020900F002053
:10222000880F002008B5032000F09EF800BF254865
:10223000806940F00100234988610846806900F008
:102240000100009000BF00BF00BF0846C06940F019
:102250008050C8610846C06900F08050009000BFFF
:1022600000BF002211466FF00B0000F03FF8002283
:1022700011466FF00A0000F039F8002211466FF0A5
:10228000090000F033F800221146501F00F02EF82C
:1022900000221146101F00F029F800220F21901E85
:1022A00000F024F800220F21501E00F01FF800BF9C
:1022B0000549486820F0E06040F00070486000BFC9
:1022C00008BD000000100240000001400146084621
:1022D000002809DB00F01F0301229A4043099B00FC
:1022E00003F1E023C3F8002100BF70472DE9F05F40
:1022F00080460D461646002704F0ACFE07463946D8
:102300002A46334601F00700C0F1070ABAF1040F6C
:1023100002D94FF0040A01E0C0F1070AD14600F1EA
:10232000040ABAF1070F02D24FF0000A01E0A0F14F
:10233000030AD4464FF0010A0AFA09FAAAF1010A7F
:102340000AEA020A0AFA0CFA4FF0010B0BFA0CFB2C
:10235000ABF1010B0BEA030B4AEA0B0421464046A2
:1023600004F080FEBDE8F09F00BF00F00702064BBE
:1023700019684FF6FF031940044B0B4343EA02214F
:10238000014B196000BF70470CED00E00000FA053A
:1023900070B504460D460CB9012070BD5A4800685E
:1023A00000F00700A8420ED25748006820F007004E
:1023B0002843554908600846006800F00700A84215
:1023C00001D00120E9E7207800F0020002281DD1A9
:1023D000207800F00400042805D14C48406840F4FF
:1023E000E0604A494860207800F00800082805D1DC
:1023F0004648406840F4605044494860434840685B
:1024000020F0F000A168084340494860207800F0BF
:10241000010078B36068012806D13C48006800F4E8
:10242000003090B90120B8E76068022806D137482B
:10243000006800F0007040B90120AEE73348006842
:1024400000F0020008B90120A7E73048406820F0FA
:102450000300616808432D494860FFF7A3FE064664
:1024600009E0FFF79FFE801B41F28831884202D9C4
:10247000032092E707E02548406800F00C006168FF
:10248000B0EB810FEDD12048006800F00700A842B2
:102490000ED91D48006820F0070028431A4908603B
:1024A0000846006800F00700A84201D0012074E748
:1024B000207800F00400042807D11448406820F474
:1024C000E060E168084311494860207800F00800A6
:1024D000082808D10D48406820F46050216940EA7E
:1024E000C1000A49486000F03FF808494968C1F353
:1024F0000311074A515CC840064908600648006855
:10250000FFF76AFE002048E700200240001002406A
:10251000FC990008900F0020880F002001480068F7
:1025200070470000900F002000B5FFF7F7FF044947
:102530004968C1F30221034A515CC84000BD000054
:10254000001002400C9A000800B5FFF7E7FF0449AD
:102550004968C1F3C221034A515CC84000BD000074
:10256000001002400C9A0008F0B585B00FF26C0C18
:102570009CE8E01001A8A0E8E0101CA52D680095DB
:1025800000210022002300240020194D696801F079
:102590000C05F5B1042D02D0082D19D101E0154824
:1025A00019E001ADC1F38346AC5D01F4803555B14E
:1025B0000F4D6D68C5F340451DF805200D4D654371
:1025C000B5FBF2F302E00C4D04FB05F3184602E004
:1025D00000BF084800BF00BF05B0F0BD02030405FE
:1025E000060708090A0B0C0D0E0F1010010200005F
:1025F0000010024000127A0000093D00F8B50446C0
:102600000CB90120F8BD207800F00100002878D036
:10261000F848406800F00C0004280CD0F5484068E9
:1026200000F00C00082811D1F248406800F4803016
:10263000B0F5803F0AD1EF48006800F40030002870
:102640005FD0606800285CD10120DBE700BF6068D4
:10265000B0F5803F06D1E748006840F48030E54996
:10266000086028E0606858B9E248006820F48030CB
:10267000E04908600846006820F4802008601AE0FD
:102680006068B0F5A02F0BD1DA48006840F48020D4
:10269000D84908600846006840F4803008600AE0C5
:1026A000D448006820F48030D249086008460068A9
:1026B00020F48020086000BF606888B1FFF772FDD9
:1026C000054606E0FFF76EFD401B642801D9032094
:1026D00098E7C848006800F400300028F2D010E005
:1026E000FFF760FD054606E0FFF75CFD401B642830
:1026F00001D9032086E7BF48006800F400300028B5
:10270000F2D1207800F00200022857D1B948406881
:1027100000F00C0050B1B748406800F00C000828E9
:1027200018D1B448406800F4803098B9B1480068C6
:1027300000F0020020B12069012801D0012061E7EA
:10274000AC48006820F0F800616940EAC100A9497E
:10275000086033E02069E8B10120A7490860FFF76D
:1027600021FD054606E0FFF71DFD401B022801D9AB
:10277000032047E79F48006800F002000028F2D0DD
:102780009C48006820F0F800616940EAC10099495E
:10279000086013E0002098490860FFF703FD054634
:1027A00006E0FFF7FFFC401B022801D9032029E7C0
:1027B0009048006800F002000028F2D1207800F074
:1027C000080008282DD1A069B8B101208B49086004
:1027D000FFF7E8FC054606E0FFF7E4FC401B022893
:1027E00001D903200EE78348406A00F00200002868
:1027F000F2D0012001F0C2FC13E000207F49086004
:10280000FFF7D0FC054606E0FFF7CCFC401B022892
:1028100001D90320F6E67748406A00F0020000285C
:10282000F2D1207800F00400042873D10027714809
:10283000C06900F0805070B900BF6E48C06940F0B8
:1028400080506C49C8610846C06900F08050009013
:1028500000BF00BF01276A48006800F48070B0B96B
:102860006748006840F4807065490860FFF79AFC8B
:10287000054606E0FFF796FC401B642801D90320BB
:10288000C0E65F48006800F480700028F2D000BF06
:10289000E068012806D15748006A40F00100554918
:1028A000086227E0E06858B95248006A20F0010049
:1028B000504908620846006A20F00400086219E0E6
:1028C000E06805280BD14B48006A40F004004949F4
:1028D00008620846006A40F0010008620AE04548C4
:1028E000006A20F00100434908620846006A20F0AF
:1028F0000400086200BFE068A0B1FFF753FC054682
:1029000009E0FFF74FFC401B41F28831884202D9B1
:10291000032077E622E03748006A00F00200002832
:10292000EFD012E0FFF73EFC054608E0FFF73AFC67
:10293000401B41F28831884201D9032062E62D48CC
:10294000006A00F002000028F0D1012F05D12948CB
:10295000C06920F080502749C86100BFE069C8B352
:102960002448406800F00C00082860D0E069022884
:1029700048D1002020490866FFF714FC054606E010
:10298000FFF710FC401B022801D903203AE6194842
:10299000006800F000700028F2D1206AB0F5803F96
:1029A00007D11448406820F40030A1680843114959
:1029B0004860D4E9080108430E49496821F47411BC
:1029C00008430C49486001200B490866FFF7EAFB01
:1029D000054607E03DE0FFF7E5FB401B022801D973
:1029E00003200FE60348006800F000700028F2D0D2
:1029F0002FE00000001002400000424280044242EA
:102A000000700040002014490866FFF7CBFB054624
:102A100006E0FFF7C7FB401B022801D90320F1E5C0
:102A20000E48006800F000700028F2D111E0E06963
:102A3000012800D1E6E50948466806F48031206A9D
:102A4000814204D106F47011606A814201D00120F4
:102A5000D8E50020D6E50000000042420010024008
:102A600010B504460CB9012010BD606A38B9606821
:102A7000B0F5827F00D105E00021E16102E0002194
:102A8000216161610021A16294F8510028B9002000
:102A900084F85000204600F042F8022084F85100EB
:102AA0002068006820F0400021680860A08800F4D9
:102AB0008270218901F404410843A18901F4006175
:102AC0000843217C01F002010843217D01F001014E
:102AD0000843218B01F400710843217F01F0380184
:102AE00008432021095D01F080010843218D01F494
:102AF00000510843216808600421A06901EA1040E0
:102B0000216848602068C06920F400602168C861BD
:102B100000206065012084F851000020A4E7704780
:102B20002DE9F84F0446884616461D464FF0000A28
:102B300000BF94F85000012802D10220BDE8F88FB0
:102B4000012084F8500000BFFFF72CFB0746B14678
:102B500094F85100012802D04FF0020AADE0B8F11C
:102B6000000F00D016B94FF0010AA6E0032084F848
:102B7000510000206065C4F83080A686E686A06318
:102B8000A087E08760642064A068B0F5004F0BD197
:102B90002068006820F04000216808602068006814
:102BA00040F48040216808602068006800F0400020
:102BB000402805D02068006840F040002168086087
:102BC000E068B0F5006F2FD1606810B1B9F1010F66
:102BD00009D1206B00882168C860206B801C2063AD
:102BE000E08E401EE0861BE02068806800F0020056
:102BF00002280AD1206B00882168C860206B801CE5
:102C00002063E08E401EE0860AE0FFF7CBFAC01B8F
:102C1000A84201D3681C00B915B94FF0030A4CE073
:102C2000E08E0028E0D12EE0606810B1B9F1010F0C
:102C300009D1206B007821680873206B401C206349
:102C4000E08E401EE0861BE02068806800F00200F5
:102C500002280AD1206B007821680873206B401C81
:102C60002063E08E401EE0860AE0FFF79BFAC01B5F
:102C7000A84201D3681C00B915B94FF0030A1CE043
:102C8000E08E0028E0D13A462946204601F08FFA2E
:102C900008B120206065A06850B900BF00200090F6
:102CA0002068C068009020688068009000BF00BF66
:102CB000606D08B14FF0010A00BF012084F8510097
:102CC00000BF002084F8500000BF504636E72DE9D1
:102CD000FF5F0446884691461D460E9E01200290E5
:102CE0000020019000BF94F85000012803D1022079
:102CF00004B0BDE8F09F012084F8500000BFFFF74A
:102D000051FA074694F851B060680390AA46BBF1A7
:102D1000010F0BD00398B0F5827F04D1A06810B9E1
:102D2000BBF1040F02D002200190DBE0B8F1000FEC
:102D300003D0B9F1000F00D015B901200190D1E006
:102D400094F85100042802D0052084F85100002096
:102D50006065C4F83890E587A587C4F83080E586BB
:102D6000A586206460642068006800F04000402868
:102D700005D02068006840F0400021680860E068E5
:102D8000B0F5006F4AD1606810B1BAF1010F09D1F6
:102D9000206B00882168C860206B801C2063E08E57
:102DA000401EE08633E02068806800F002000228C0
:102DB00010D1E08E70B1029801280BD1206B0088F1
:102DC0002168C860206B801C2063E08E401EE08676
:102DD000002002902068806800F0010068B1E08F58
:102DE00058B12068C068A16B0880A06B801CA063EC
:102DF000E08F401EE08701200290FFF7D3F9C01B4F
:102E0000B04204D3701C10B1032001906AE0E08E40
:102E10000028C8D1E08F0028C5D14AE0606810B111
:102E2000BAF1010F09D1206B007821680873206B7B
:102E3000401C2063E08E401EE08634E020688068FD
:102E400000F00200022810D1E08E70B10298012833
:102E50000BD1206B007821680873206B401C206325
:102E6000E08E401EE086002002902068806800F01E
:102E7000010068B1E08F58B12068C068A16B08708C
:102E8000A06B401CA063E08F401EE08701200290F1
:102E9000FFF788F9C01BB04201D3701C00B916B906
:102EA000032001901EE0E08E0028C7D1E08F0028AB
:102EB000C4D13A463146204601F079F920B10120CB
:102EC0000190202060650DE0A06850B900BF00208F
:102ED00000902068C068009020688068009000BF63
:102EE00000BF00BF012084F8510000BF002084F81B
:102EF000500000BF0198FBE6042808D14FF0E02104
:102F0000096941F004014FF0E022116107E04FF040
:102F1000E021096921F004014FF0E02211617047BE
:102F200070B504462546681EB0F1807F01D30120AC
:102F30000FE0681E4FF0E02148610F214FF0FF3095
:102F400004F090F800204FF0E0218861072008612C
:102F5000002070BD70B504460D46164600BF94F8BB
:102F60003C00012801D1022070BD012084F83C0002
:102F700000BF36B1042E1BD0082E31D00C2E5ED1EE
:102F800045E02946206803F00FFC2068806940F086
:102F90000800216888612068806920F004002168A9
:102FA000886120688069296908432168886147E051
:102FB0002946206803F030FC2068806940F40060F6
:102FC000216888612068806920F4806021688861B8
:102FD00020688069296940EA0120216888612FE022
:102FE0002946206803F056FC2068C06940F00800BC
:102FF0002168C8612068C06920F004002168C861A8
:103000002068C069296908432168C86118E0294619
:10301000206803F07BFC2068C06940F400602168F0
:10302000C8612068C06920F480602168C861206898
:10303000C069296940EA01202168C86100E000BF39
:1030400000BF00BF002084F83C0000BF00BF8BE73A
:1030500010B504460CB9012010BD94F83D0028B904
:10306000002084F83C00204600F025F8022084F877
:103070003D00211D206803F037FB012084F8460045
:1030800000BF84F83E0001213F200155402001553A
:103090004120015500BF00BF012084F842004320B9
:1030A0000155442001554520015500BF012084F8F9
:1030B0003D000020D0E7704770B504460D4615B9B5
:1030C00094F83E000BE0042D02D13F20005D06E0A5
:1030D000082D02D14020005D01E04120005D012863
:1030E00001D0012070BD1DB9022084F83E000EE021
:1030F000042D03D102213F20015508E0082D03D102
:1031000002214020015502E0022141200155012207
:103110002946206803F036FB1F492068884203D007
:103120001E492068884201D1012000E0002028B11A
:103130002068406C40F400402168486416492068CB
:10314000884213D01549206888420FD02068B0F11A
:10315000804F0BD012492068884207D0114920685F
:10316000884203D01049206888420CD120688068CA
:1031700000F00706062E0CD02068006840F0010021
:103180002168086005E02068006840F001002168BF
:1031900008600020A6E70000002C01400034014038
:1031A0000004004000080040000C004070B50446D8
:1031B000002520684069C0F3C01594F83900212823
:1031C0000ED16DB12068406920F08000216848610F
:1031D000206B10B1206BFEF7D3FA204603F044FDBC
:1031E00020684069C0F3801594F83A0022280ED177
:1031F0006DB12068406920F0400021684861606B33
:1032000010B1606BFEF7BCFA204603F00DFD002004
:1032100070BD70472DE9F0470446206805682068B6
:10322000C668206847694FF00008C14605F00F08DE
:10323000B8F1000F0AD105F0200038B106F02000E7
:1032400020B1204603F01AFDBDE8F087B8F1000F69
:1032500071D007F0010018B906F4907000286AD008
:1032600005F0010030B106F4807018B1E06B40F059
:103270000100E06305F0040030B107F0010018B16F
:10328000E06B40F00200E06305F0020030B107F0AF
:10329000010018B1E06B40F00400E06305F00800A5
:1032A00048B106F0200010B907F0010018B1E06B3A
:1032B00040F00800E063E06B68B305F0200028B13F
:1032C00006F0200010B1204603F0D8FC20684069C9
:1032D000C0F38019E06B00F0080010B9B9F1000FDD
:1032E00022D0204603F0A0FC2068406900F0400096
:1032F000B0B12068406920F0400021684861606BEF
:1033000050B11848616B4863606BFEF765FA10B105
:10331000606B416B88470CE02046FFF77AFF08E0BE
:103320002046FFF776FF04E02046FFF772FF0020FB
:10333000E06389E7FFE705F0800030B106F0800028
:1033400018B1204603F068FD7EE705F0400030B17B
:1033500006F0400018B1204603F076FC74E700BF89
:1033600072E700002D6B000810B504460CB901206F
:1033700010BDA06900B100E000BF94F8390028B981
:10338000002084F83800204600F027F8242084F834
:1033900039002068C06820F400502168C8602046C9
:1033A00003F0BCFC2068006920F4904021680861AB
:1033B0002068406920F02A00216848612068C068C0
:1033C00040F400502168C8600020E063202084F8A9
:1033D000390084F83A000020CAE7704777B581B019
:1033E0000446154694F83A00202850D1029800B1BE
:1033F00015B9012004B070BD00BF94F83800012851
:1034000001D10220F6E7012084F8380000BF0298BD
:10341000A062A5850020E063222084F83A001D48C0
:10342000616B88621C48616BC8621C48616B0863F1
:103430000020616B486302AE32682368191D2B4679
:10344000606BFEF7B3FC00BF0020009020680068AE
:10345000009020684068009000BF00BF00BF0020BF
:1034600084F8380000BF2068C06840F4807021688C
:10347000C8602068406940F0010021684861206808
:10348000406940F04000216848610020B2E7022016
:10349000B0E70000916B0008D76B0008416B000893
:1034A000704770472DE9F84F04460E461746994677
:1034B0004FF0000A94F8390020285AD106B117B904
:1034C0000120BDE8F88F00BF94F83800012801D131
:1034D0000220F6E7012084F8380000BF0020E063F6
:1034E000212084F83900FEF75DFE8246A784E78438
:1034F000A068B0F5805F04D1206910B90025B046FE
:1035000002E035464FF0000800BF002084F8380084
:1035100000BF1BE05346002280212046CDF80090DA
:1035200003F0AAFC08B10320CBE745B9B8F80000C6
:10353000C0F308002168486008F1020803E0287819
:10354000216848606D1CE08C401EE084E08C0028FF
:10355000E0D15346002240212046CDF8009003F0F0
:103560008BFC08B10320ACE7202084F83900002050
:10357000A7E70220A5E70000F7B50446154694F832
:10358000390020283DD1019800B10DB90120FEBDC0
:1035900000BF94F83800012801D10220F7E701208C
:1035A00084F8380000BF01982062A584E5840020DB
:1035B000E063212084F839001348216B88621348A6
:1035C000216BC8621248216B08630020216B48639D
:1035D00001AE23681A1D31682B46206BFEF7E6FB0F
:1035E0006FF040002168086000BF002084F83800B8
:1035F00000BF2068406940F08000216848610020D9
:10360000C5E70220C3E70000E56B00081B6C00085B
:10361000416B00087047704705E003F0A1F94FF4D3
:10362000C870FDF710FEF8E700BFFEE700BFFEE739
:1036300070B5044614B94FF0FF3070BD4148C4F86E
:10364000B800372084F8BC00002084F8BD004FF497
:10365000827060600021A160E1600221216101218E
:1036600061614902A1610021E16121626162A1629F
:103670000721E1622046FDF793FF00F01AFE204685
:10368000FDF7EBFC05460DB12846D6E700F011FE2C
:103690002046FDF72BFC054615B16FF01400CCE772
:1036A00002212046FDF748FD05460DB12846C4E736
:1036B00000F0FFFD2046FDF7E3FC05460DB128466E
:1036C000BBE700F0F6FD06212046FDF7EBFB0646C2
:1036D00016B94FF0FF30B0E72046FDF77FFA0546F8
:1036E00015B14FF0FF30A8E70FE03068072801D18F
:1036F0000C360AE000F0DDFD31782046FDF71CFDB8
:10370000054605B105E00C3600BF16B1306830281B
:10371000EBD100BF00F0CDFD38212046FDF70CFDB8
:1037200005460DB1284688E700F0C3FD012120467B
:10373000FDF702FD05460DB128467EE700F0B9FD14
:1037400028467AE7C01000202DE9F04F95B00446D6
:103750008B460025002009900890079014B1D4F8FA
:10376000B80020B96FF0150015B0BDE8F08FFEF776
:1037700019FD089000260CE0002104F1C00000EBC8
:103780004610416004F1C00202EB46129161D16122
:10379000761C94F84002B042EEDC00BF00263FE009
:1037A00041F288312046FDF794FC1390139810B134
:1037B0006FF01900D8E704212046FDF773FB82461D
:1037C000BAF1000F02D16FF01500CDE704212046B9
:1037D000FDF7A8FB139908431390139810B16FF0ED
:1037E0001600C1E7DAF8049009F0FF0012904FEAE2
:1037F000192900BF00250EE004F1C00000EB4510C0
:1038000041781298814205D104F1C00000EB4510C7
:10381000C0F804906D1C94F84002A842ECDC761CC1
:1038200094F84002B042BBDC002573E004F1C00014
:1038300000EB4510D0F80490B9F1000F0BD1FEF762
:10384000B1FC0899401A07900798584502D96FF0C3
:103850001B0089E7A2E704F1C00000EB45104078A7
:103860000C2817DA4846FCF7E0FF0022324BCDE97E
:103870000001FCF7D5FE0022304BCDE90201FCF738
:1038800041FF00222C4BCDE90401FCF7C3FE0746A3
:10389000884616E04846FCF7C8FF294A294BCDE97F
:1038A0000001FCF7BDFE0022244BCDE90201FCF72C
:1038B00029FF234A234BCDE90401FCF7ABFE074661
:1038C000884604F1C00000EB4510C1688068CDE96E
:1038D0000C0104F1C00000EB451041690069CDE91D
:1038E0000E01DDE90C013A464346CDE90201FCF741
:1038F00097FECDE90401DDE90E01CDE90201DDE924
:103900000423FCF7E6FD04F1C00202EB4512C2E914
:1039100006016D1C94F84002A84287DCFEF742FCC9
:103920000899401A07900798584502D96FF01B0074
:103930001AE7002018E7000000003940000060414D
:103940009A9999999999A93F1CB5044606A103C96A
:10395000CDE9000140F22D10005D8DF803006946AD
:10396000204600F093FF1CBDFFAA240000000000C9
:1039700010B50446204600F017FF2046FDF73AFE3A
:10398000204600F0B7F9204600F0C8F9204600F0C4
:10399000D9F9204600F09AF92046FFF7D5FF00211B
:1039A000204600F081F910BD70B504464FF49570C3
:1039B000005B00F4007090B3B4F93801FCF711FF1C
:1039C00006464FF08E41FCF746FD05464FF0834119
:1039D000FCF70FFD4FF4A0710851B4F93A01FCF760
:1039E00000FF06464FF08E41FCF735FD05464FF0CF
:1039F0008341FCF7FEFC4FF4A2710851B4F93C017D
:103A0000FCF7EFFE06464FF08E41FCF724FD05461D
:103A10004FF08341FCF7EDFC4FF4A47108514FF4D3
:103A20009570005B00F4806078B3B4F94C01FCF74A
:103A3000D8FE06464FF08E41FCF70DFD054657496E
:103A4000FCF7D7FC4FF4AA710851B4F94E01FCF70A
:103A5000C8FE06464FF08E41FCF7FDFC05464F4977
:103A6000FCF7C7FC4FF4AC710851B4F95001FCF7F6
:103A7000B8FE06464FF08E41FCF7EDFC054647497F
:103A8000FCF7B7FC4FF4AE7108514FF49570005B32
:103A900000F4006078B3B4F96001FCF7A2FE0646BA
:103AA0004FF08E41FCF7D7FC05463D49FCF7A1FCE1
:103AB0004FF4B4710851B4F96201FCF792FE064666
:103AC0004FF08E41FCF7C7FC05463549FCF791FCE9
:103AD0004FF4B6710851B4F96401FCF782FE064652
:103AE0004FF08E41FCF7B7FC05462D49FCF781FCF1
:103AF0004FF4B87108514FF49570005B00F480509A
:103B0000A0B1B4F97401FCF76CFE4FF4BE7108511A
:103B1000B4F97601FCF765FE4FF4C0710851B4F9B1
:103B20007801FCF75EFE4FF4C27108514FF49570B6
:103B3000005D00F0020078B3B4F98801FCF751FE93
:103B400005464FF08E41FCF786FC4FF4C8710851D2
:103B5000B4F98A01FCF745FE05464FF08E41FCF7AB
:103B60007AFC4FF4CA710851B4F98C01FCF739FEA4
:103B700005464FF08E41FCF76EFC4FF4CC710851B6
:103B8000B4F98E01FCF72DFE05464FF08E41FCF78F
:103B900062FC4FF4CE71085170BD00000000FA4481
:103BA0000000344330B50146E520405C002879D060
:103BB00000206DE0E0225258125C552A66D10023A5
:103BC000002206E0E02464588518645D1C44E3B2DA
:103BD000521C0A2AF6DBE022545800F10A02A25CC9
:103BE0009A4251D1E0225458421CA25C503A0A2A0F
:103BF00048D2DFE802F005101B2631474747473C13
:103C0000E0225458821C14442568C1F82E5164687F
:103C1000C1F8324137E0E0225458821C1444256830
:103C2000C1F838516468C1F83C412CE0E022545896
:103C3000821C14442568C1F84C516468C1F8504195
:103C400021E0E0225458821C14442568C1F86051D8
:103C50006468C1F8644116E0E0225458821C1444A0
:103C60002568C1F874516468C1F878410BE0E0221E
:103C70005458821C14442568C1F888516468C1F8FE
:103C80008C4100E000BF00E001E000BF00BF401C2D
:103C9000DC22525A82428DDC0022E520425401206F
:103CA00030BDFFE70020FBE77CB505460C4605A1CB
:103CB00003C9CDE900018DF803406946284600F0AC
:103CC000E5FD7CBDFFAA6300000000001CB50446B2
:103CD00006A103C9CDE900014FF49670005D8DF88F
:103CE00003006946204600F0D1FD1CBDFFAA230059
:103CF000000000001CB5044606A103C9CDE900017F
:103D000094F828018DF803006946204600F0BEFDB6
:103D10001CBD0000FFAA0400000000001CB5044602
:103D200006A103C9CDE9000140F22910005D8DF81C
:103D300003006946204600F0A9FD1CBDFFAA030050
:103D4000000000001CB5044609A103C9CDE900012B
:103D50004FF49570005B00128DF803004FF49570DE
:103D6000005D8DF804006946204600F08FFD1CBD03
:103D7000FFAA0200000000002DE9FC5F82469AF8CD
:103D80001800062852D2DFE800F003101D2A37443D
:103D90004021504600F03EFEDA490860502150466E
:103DA00000F038FED849086040E04221504600F05B
:103DB00031FED44908605221504600F02BFED24912
:103DC000086033E04421504600F024FECD490860ED
:103DD0005421504600F01EFECB49086026E04621E3
:103DE000504600F017FEC74908605621504600F0C3
:103DF00011FEC549086019E04821504600F00AFE4E
:103E0000C04908605821504600F004FEBE490860D1
:103E10000CE04A21504600F0FDFDBA4908605A21E5
:103E2000504600F0F7FDB849086000BF00BFB64932
:103E3000DAF830000968A1EB0020B44908600023DB
:103E4000DAF834000968CE17A0FB014703FB0171C3
:103E500000FB06114FF400022046FCF7FFF94FF477
:103E6000FA614018AA4908604FF00003A748DAF841
:103E7000281000684FEAE076A1FB004703FB0070C2
:103E800001FB06014FF480722046FCF7E7F94FF47E
:103E90000043DAF82020A2FB0323801859419D4AF1
:103EA00003C200239949DAF82C000968CE17A0FB59
:103EB000014703FB017100FB061180222046FCF73D
:103EC000CDF94FF48033DAF82420A2FB03238018C5
:103ED0005941914A03C28E480068642190FBF1F475
:103EE0002046FCF77EFCCAF80000864800680023E4
:103EF000884AD2E9001CA0FB016B03FB01B100FB67
:103F00000C114FF400123046FCF7A8F9824B0CCB91
:103F1000801A61EB03014FF400520023CDE9000148
:103F2000FCF79CF904460A220023FCF797F9804627
:103F3000FCF765FCCAF8040075480068B0F5FA6F34
:103F40005CDA03207149096880FB01236F4800682F
:103F5000C117A2FB004703FB007001FB0201002216
:103F600002232046FCF77AF96C4908606849096821
:103F7000A1F5FA6101EB4101654A1268A2F5FA6206
:103F800001FB02F000EBD0714910654A11606049F5
:103F90000968A1F5FA6101EB81015D4A1268A2F599
:103FA000FA6201FB02F0C11700EB5171C9105D4AC2
:103FB0001160574800685C4988423EDA54480068FE
:103FC00000F2DC50C0EBC0015148006800F2DC5048
:103FD000534A126801FB0020514908604C480068B0
:103FE00000F2DC5081004A48006800F2DC504D4A83
:103FF000126801FB00204B4908601EE0434800683E
:1040000040434000C117044600222023FCF726F954
:10401000424908603E490968A1F5FA613C4A1268C4
:10402000A2F5FA6201FB02F0C11700EB1171091150
:104030003B4A116000203B4908603748D0E9003016
:1040400037490968CA17591A60EB0200374AC2E9B2
:1040500000103048D0E9003032490968CA17591AAF
:1040600060EB0200324AC2E90010264800680022D4
:104070002F49D1E90031A0FB036B02FB03B201FB26
:1040800000214FF4001200233046FCF7E7F8274ADE
:10409000D2E90032C41A61EB02012046FCF7AFFB03
:1040A00081464FF08C41FCF7D6F980462149FCF758
:1040B000D2F9CAF80C0016490968184A1268881A19
:1040C000FCF78FFB04461C49FCF7C5F9CAF8080049
:1040D000DAF80800CAF814001849DAF80C00FCF7FE
:1040E00082F906461649FCF7B6F905461549FCF76C
:1040F00080F904461049FCF77CF9CAF81000BDE8C5
:10410000FC9F0000500F0020540F0020340F0020AF
:10411000380F0020480F0020400F0020600F0020C3
:10412000580F00205C0F002024FAFFFF680F0020CA
:10413000700F0020000020410000C84200407D4474
:1041400000007A44CDCC1C4110B5044604F138007F
:10415000FDF742F9204600F0CAFC1420FDF773F881
:10416000204600F0FEFB1420FDF76DF8204600F01D
:10417000ABFB08B9002010BD0120FCE708B50849D9
:104180000968C9084FF47A72B1FBF2F1414300911A
:1041900000BF00BF00994A1E00920029F9D108BD56
:1041A000900F002010B5044602F036FC10BDF8B5A3
:1041B00004460D4616462B460022802120460096D6
:1041C00000F00AF828B1606D40F02000606503201F
:1041D000F8BD0020FCE700002DE9F84F04460D462D
:1041E00090461E46DDF82890FDF7DCFFA0EB0900A5
:1041F000371AFDF7D7FF82462C480068C0F3CB3052
:104200007843009045E0701C002842D0FDF7CAFFBB
:10421000A0EB0A00B84200D2A7BB2068406820F09B
:10422000E000216848606068B0F5827F0DD1A06829
:10423000B0F5004F03D0A068B0F5806F05D12068BD
:10424000006820F0400021680860A06AB0F5005FB7
:104250000DD100BF2068006820F40050216808607C
:104260002068006840F400502168086000BF012009
:1042700084F8510000BF002084F8500000BF0320E4
:10428000BDE8F88FFFE7009800B900270098401EAE
:104290000090206880682840A84201D1012000E0F9
:1042A00000204045AFD10020EAE70000900F002039
:1042B0007047002005E0002100E0491C0A29FCDBD2
:1042C000401C42F210729042F5DB70472DE9F04F2E
:1042D0008FB08246C8215046FFF736FA00F0FF0B38
:1042E000BBF1000F07D024A320222C492CA0CDF82D
:1042F00000B0FDF747F80AF1C000D0E90623CDE988
:104300000C23D0E90E45D0E91667D0E91E23CDE98C
:104310000A23DAF85C91DAF85881A030C169806923
:10432000CDE908010AF5C070D0E90623CDE90623DE
:104330002030C1698069CDE904018DE8F0001AA040
:10434000DDE90C2302F060FEDDE90801CDE900891A
:10435000CDE9020119A0DDE90A2302F055FEDDE9ED
:104360000401CDE900011AA0DDE9062302F04CFEAC
:104370000FB0BDE8F08F00004F43445F414432343A
:104380006269745F476574526573756C74206572F9
:10439000726F723A25640D0A00000000DC99000873
:1043A0004552524F520000005630202566205631AB
:1043B0002025662056322025660D0A00563320251A
:1043C000662056342025662056352025660D0A00C5
:1043D00056362025662056372025660D0A0D0A0020
:1043E00008B53F4A016991420DD100BF3D49896935
:1043F00041F004013B4A91611146896901F00401D1
:10440000009100BF6BE0384A016991420DD100BFB5
:104410003449896941F00801324A9161114689693C
:1044200001F00801009100BF59E0304A0169914252
:104430000DD100BF2B49896941F01001294A9161D2
:104440001146896901F01001009100BF47E0284A38
:10445000016991420DD100BF2249896941F02001D3
:10446000204A91611146896901F02001009100BF45
:1044700035E0204A016991420DD100BF194989698F
:1044800041F04001174A91611146896901F04001EC
:10449000009100BF23E0184A016991420DD100BF8D
:1044A0001049896941F080010E4A9161114689697C
:1044B00001F08001009100BF11E0104A01699142B2
:1044C0000DD100BF0749896941F48071054A9161A6
:1044D0001146896901F48071009100BF00BF08BDD9
:1044E0000008014000100240000C01400010014093
:1044F0000014014000180140001C01400020014050
:1045000010B504462068012808D1627D217D06206F
:10451000FDF7ECFE0620FDF7D9FE69E020680228D1
:1045200008D1627D217D0720FDF7E0FE0720FDF721
:10453000CDFE5DE02068042808D1627D217D082041
:10454000FDF7D4FE0820FDF7C1FE51E020680828E1
:1045500008D1627D217D0920FDF7C8FE0920FDF705
:10456000B5FE45E02068102808D1627D217D0A2033
:10457000FDF7BCFE0A20FDF7A9FE39E020682028DF
:104580000DD0206840280AD02068802807D02068F5
:10459000B0F5807F03D02068B0F5007F08D1627D40
:1045A000217D1720FDF7A2FE1720FDF78FFE1FE0EB
:1045B0002068B0F5806F13D02068B0F5006F0FD081
:1045C0002068B0F5805F0BD02068B0F5005F07D0A1
:1045D0002068B0F5804F03D02068B0F5004F07D1B8
:1045E000627D217D2820FDF781FE2820FDF76EFEEB
:1045F00010BD10B5044621462069FDF725FC10BD0D
:1046000000B58FB0282105A8FBF782FE142168466B
:10461000FBF77EFE01200590000406900020079025
:104620000120099002200C90C1030D914FF4E0117C
:104630000E9105A8FDF7E2FF08B100BFFEE70F20CD
:10464000009002200190002002904FF480600390BF
:104650000020049002216846FDF79AFE08B100BFD1
:10466000FEE70FB000BD10B5FDF758FF4FF47A71AB
:10467000B0FBF1F42046FEF753FC0420FEF73CFCAF
:1046800000220F21501EFDF731FE10BD10B504466B
:104690002046FCF7DEFD10BD10B50446228B91B21A
:1046A000A06AFDF771FD10BD10B50446228891B2D5
:1046B00001222069FDF770FD10BD10B50446228867
:1046C00091B200222069FDF767FD10BD10B50446C8
:1046D000228B91B20122A06AFDF75EFD10BD1FB5CD
:1046E000044600200090019002900390A069009081
:1046F000002001900290032003906946A06AFDF714
:10470000A3FB1FBD10B50446228B91B20022A06A04
:10471000FDF742FD10BD1FB504460020009001903A
:1047200002900390A0690090012001900020029067
:10473000032003906946A06AFDF786FB1FBD10B5F4
:1047400004462046FFF7B9FF2046FFF7E4FF204666
:10475000FFF7D8FF0220FFF799FF2046FFF7A4FFDD
:104760000220FFF793FF2046FFF7A7FF10BD10B50B
:1047700004462046FFF7A1FF2046FFF7CCFF204666
:10478000FFF7A4FF0220FFF781FF2046FFF78CFF11
:104790000220FFF77BFF2046FFF78FFF10BD10B50B
:1047A0001420FCF750FD10BD90F828110A292ED2D4
:1047B000DFE801F005090D1115191D2125294FF418
:1047C0001661416023E04FF4965141601FE04FF4C1
:1047D000165141601BE04FF49641416017E04FF4E1
:1047E0001641416013E04FF4614141600FE04FF426
:1047F000E13141600BE04FF46131416007E04FF47B
:10480000E121416003E04FF46121416000BF00BF3E
:1048100000BF016809B90849016000BF074A016883
:10482000914207D000BF90F8C91011B9012280F859
:10483000C92000BF70470000004400400050004005
:104840007CB505460C460FA103C9CDE9000124B192
:10485000012C06D0FF2C0CD107E000208DF80300BE
:1048600008E001208DF8030004E0FF208DF803002C
:1048700000BF00BF00BF052269462846FCF75FFF66
:104880007CBD0000FFAA00000000000070B50446D7
:104890000D46204600F00EF8FFF781FF052229465D
:1048A0002046FCF74CFFFFF77AFF00212046FFF778
:1048B000C7FF70BD10B50446052202492046FCF72B
:1048C0003EFF10BDED990008F0B588B00446002108
:1048D00000260027002306E004F11C0050F8230006
:1048E0004DF823005B1C072BF6DB0098C0F30B0090
:1048F000009000200790002224E0104602EBD07CBC
:104900004FEA6C0CA2EB4C0CBCF1010F04D150101F
:104910001DF82000414005E050105DF82000C0F374
:104920000F20414008250AE001F4004020B14FF477
:10493000405080EA410100E04900681EC5B2002DE8
:10494000F2DC521C102AD8DBC1F303310E46E069B9
:10495000C0F30737BE4202D1012008B0F0BD0020ED
:10496000FBE72DE9F0410446204600F0C0F8142092
:10497000FCF769FC002549E004F13800FCF78BFDE9
:10498000EC2104F13800FCF75BFD04F13800FCF782
:10499000B2FDA02000EB4500C1B204F13800FCF7E5
:1049A0004FFD04F13800FCF7A6FD04F13800FCF7D8
:1049B0008AFD0520FCF74DFC04F13800FCF76BFD87
:1049C000ED2104F13800FCF73BFD0520FCF741FC2C
:1049D00004F13800FCF78FFD012104F13800FCF7E9
:1049E00002FD06460520FCF734FC002104F13800E6
:1049F000FCF7F9FC074604F13800FCF764FD47EAD0
:104A0000062104F11C0040F825106D1C072DB3DBB6
:104A1000BDE8F081F8B504460E46002504F13800E3
:104A2000FCF739FDEC2104F13800FCF709FD04F135
:104A30003800FCF760FD314604F13800FCF700FD5A
:104A400004F13800FCF757FD04F13800FCF73BFD9A
:104A50000A20FCF7F8FB04F13800FCF71CFDEC2100
:104A600004F13800FCF7ECFC04F13800FCF743FDDE
:104A7000002104F13800FCF7E3FC04F13800FCF7F6
:104A80003AFD04F13800FCF71EFD04F13800FCF794
:104A900002FDED2104F13800FCF7D2FC04F13800EE
:104AA000FCF729FD012104F13800FCF79CFC8DF88E
:104AB0000000012104F13800FCF795FC8DF801009D
:104AC000002104F13800FCF78EFC8DF8020004F19F
:104AD0003800FCF7F8FC9DF800509DF8010000EB51
:104AE00005259DF8020000EB05252846F8BD10B508
:104AF000044604F13800FCF7CEFCEC2104F1380048
:104B0000FCF79EFC04F13800FCF7F5FC1E2104F1D3
:104B10003800FCF795FC04F13800FCF7ECFC04F1DC
:104B20003800FCF7D0FC10BD08B5364A0168914248
:104B30000DD100BF3449896941F40061324A916165
:104B40001146896901F40061009100BF59E00168D4
:104B5000B1F1804F0DD100BF2B49C96941F001016E
:104B6000294AD1611146C96901F00101009100BFD4
:104B700047E0264A016891420DD100BF2249C96928
:104B800041F00201204AD1611146C96901F00201D8
:104B9000009100BF35E01E4A016891420DD100BF6F
:104BA0001949C96941F00401174AD1611146C9691F
:104BB00001F00401009100BF23E0164A0168914210
:104BC0000DD100BF1049C96941F008010E4AD161F9
:104BD0001146C96901F00801009100BF11E00E4AB9
:104BE000016891420DD100BF0749896941F4005124
:104BF000054A91611146896901F40051009100BF95
:104C000000BF08BD002C014000100240000400401D
:104C100000080040000C00400034014038B5044654
:104C2000022161670121A1670321E16700BF82487A
:104C3000806940F00100804988610846806900F081
:104C40000100009000BF00BF7C492068884230D13D
:104C50008620005D48B900BF7949486820F0C0004F
:104C600040F0E06000BF4860E0E08620005D012881
:104C70000AD100BF7249486820F0C00040F0E060EF
:104C800040F040004860D1E08620005D022801D15C
:104C900000BFFEE78620005D0328E5D100BF68491C
:104CA000486820F0C00040F0E06040F0C00048607C
:104CB000BCE02068B0F1804F39D18620005D48B952
:104CC00000BF5F49486820F4407040F0E06000BFDA
:104CD0004860ABE08620005D01280AD100BF58493A
:104CE000486820F4407040F0E06040F48070486014
:104CF0009CE08620005D02280AD100BF5049486828
:104D000020F4407040F0E06040F4007048608DE0B6
:104D10008620005D0328A7D100BF4949486820F4D8
:104D2000407040F0E06040F4407048607EE04549EB
:104D30002068884230D18620005D48B900BF4049D4
:104D4000486820F4406040F0E06000BF48606DE0DB
:104D50008620005D01280AD100BF3949486820F447
:104D6000406040F0E06040F4006048605EE0862013
:104D7000005D022801D100BFFEE78620005D032808
:104D800054D100BF2E49486820F4406040F0E060F4
:104D900040F44060486049E02B492068884224D1B3
:104DA0008620005D40B900BF2549486840F0E060BA
:104DB00020F48050486039E08620005D012801D150
:104DC00000BFFEE78620005D022801D100BFFEE79C
:104DD0008620005D032829D100BF1949486840F0AA
:104DE000E06040F48050486020E018492068884224
:104DF0001CD194F86C000C2818D18620005D40B9B5
:104E000000BF0F49486840F0E06020F480304860FF
:104E10000CE08620005D032808D100BF08494868DF
:104E200040F0E06040F48030486000BF012104F1B0
:104E30007000FCF737FA38BD00100240002C01402A
:104E4000000001400004004000080040000C004049
:104E50002DE9F0410446472060600021A16021490E
:104E6000606EB1FBF0F0401EE06000212161A161A5
:104E70002046FEF7EDF818B168211BA0FCF74CFAAC
:104E80006020A0641749606EB1FBF0F0A0F101084A
:104E90004046FBF7AFFC0746A16EFBF7AAFA0646B1
:104EA0001849FBF7D8FA0546FBF7CCFCE064002173
:104EB000216594F86C2004F148012046FEF74AF879
:104EC00018B1762108A0FCF727FA94F86C10204658
:104ED000FEF7F2F818B17A2103A0FCF71DFABDE83D
:104EE000F081000040420F002E2E5C44726976650E
:104EF000725C5372635C6472765F68616C5F70773A
:104F00006D2E63000000C84210B5044600BF0021AA
:104F1000A06EFBF7BFFC01D1FC48A06600BF00BF3C
:104F2000606E08B93220606600BF206800B110BD15
:104F300080200059F649884273D1206F802871D0B3
:104F40000CDC042844D004DC012819D002286AD1E2
:104F50002AE0082850D04028F9D165E0B0F5806FEC
:104F600076D006DCB0F5807F73D0B0F5007FEED14F
:104F700099E0B0F5006F6DD0B0F5004FE7D1CEE00D
:104F8000E4482060002084F86C0000218620015550
:104F9000E1480068007C10B1E0A002F035F8012083
:104FA000DD4909680874D3E0DA482060042084F8F9
:104FB0006C00002186200155D7480068407C10B164
:104FC000DEA002F021F80120D34909684874BFE04F
:104FD000D0482060082084F86C000021862001550C
:104FE000CD480068807C10B1DCA002F00DF80120F3
:104FF000C94909688874ABE04FF0804020600C20FC
:1050000084F86C00002186200155C3480068C079EF
:1050100010B1DAA001F0F8FF0120BF490968C8719A
:1050200096E096E017E08FE0DC482060002084F8EE
:105030006C00002186200155B7480068007A10B145
:10504000D7A001F0E1FF0120B349096808727FE0B1
:105050003DE014E04FE0D1482060042084F86C006B
:10506000002186200155AC480068407A10B1D4A0D8
:1050700001F0CAFF0120A8490968487268E0D848D1
:105080002060002084F86C00002186200155A24891
:105090000068007810B1D3A001F0B6FF01209E494E
:1050A0000968087054E0CE482060042084F86C0041
:1050B00000218620015598480068407810B1D1A0A1
:1050C00001F0A2FF012094490968487040E0C448FB
:1050D0002060082084F86C000021862001558E484D
:1050E0000068807810B1CFA001F08EFF01208A49BE
:1050F000096888702CE0BA4820600C2084F86C00A5
:1051000000218620015584480068C07810B1CDA0E8
:1051100001F07AFF012080490968C87018E04FF05B
:1051200080402060002084F86C0003218620015517
:1051300079480068007910B1CAA001F065FF01202C
:1051400075490968087103E0CEA001F05DFF00BF5A
:105150009DE380200059D349884272D1206F4028B6
:1051600070D00CDC082843D004DC012818D00228B9
:1051700069D129E0102850D02028F9D164E0B0F599
:10518000007F75D005DC802873D0B0F5807FEFD12B
:1051900099E0B0F5806F6DD0B0F5006FE8D122E2F4
:1051A0007E482060082084F86C000021862001558C
:1051B00059480068807A10B1BBA001F025FF01209A
:1051C00055490968887228E2744820600C2084F8E8
:1051D0006C000021862001554F480068C07A10B14C
:1051E000B9A001F011FF01204B490968C87214E20F
:1051F0004FF080402060042084F86C00032186205A
:10520000015545480068407910B1B7A001F0FCFE97
:105210000120414909684871FFE160482060002091
:1052200084F86C000121862001553B480068007A13
:1052300010B1B5A001F0E8FE0120374909680872F5
:10524000EBE1EBE117E0E3E154482060042084F84F
:105250006C000121862001552F480068407A10B16A
:10526000B1A001F0D1FE01202B4909684872D4E1B8
:105270003DE014E0A2E1B4482060002084F86C0016
:1052800000218620015524480068007B10B1AFA0A2
:1052900001F0BAFE0120204909680873BDE1AA485F
:1052A0002060042084F86C000021862001551A48F3
:1052B0000068407B10B1ADA001F0A6FE01201649A8
:1052C00009684873A9E1A0482060082084F86C00B0
:1052D00000218620015510480068807B10B1ABA0EA
:1052E00001F092FE01200C490968887395E1964807
:1052F00020600C2084F86C000021862001550648AF
:105300000068C07B00B151E153E100000000F040B3
:1053100000080140000C0040800F002054494D352A
:105320005F434831206973206F6E6C792075736517
:1053300064206279205041300D0A000054494D35F7
:105340005F434832206973206F6E6C7920757365F6
:1053500064206279205041310D0A000054494D35D6
:105360005F434833206973206F6E6C7920757365D5
:1053700064206279205041320D0A000054494D32B8
:105380005F434834206973206F6E6C7920757365B4
:1053900064206279205041330D0A0000000400406F
:1053A00054494D335F434831206973206F6E6C79E7
:1053B0002075736564206279205041360D0A000023
:1053C00054494D335F434832206973206F6E6C79C6
:1053D0002075736564206279205041370D0A000002
:1053E000002C014054494D315F43483120697320FE
:1053F0006F6E6C7920757365642062792050413836
:105400000D0A000054494D315F4348322069732032
:105410006F6E6C7920757365642062792050413914
:105420000D0A000054494D315F4348332069732011
:105430006F6E6C79207573656420627920504131FC
:10544000300D0A0054494D315F43483420697320C0
:105450006F6E6C79207573656420627920504131DC
:10546000310D0A0054494D325F43483120697320A1
:105470006F6E6C79207573656420627920504131BC
:10548000350D0A0054686520492F4F20706F7274E3
:105490002063616E6E6F74206F7574707574205028
:1054A000574D0000000C014054494D335F434833D1
:1054B000206973206F6E6C79207573656420627942
:1054C000205042300D0A000054494D335F434834A8
:1054D000206973206F6E6C79207573656420627922
:1054E000205042310D0A000054494D325F4348328A
:1054F000206973206F6E6C79207573656420627902
:10550000205042330D0A000054494D335F43483167
:10551000206973206F6E6C792075736564206279E1
:10552000205042340D0A000054494D335F43483245
:10553000206973206F6E6C792075736564206279C1
:10554000205042350D0A00000008004054494D34F7
:105550005F434831206973206F6E6C7920757365E5
:1055600064206279205042360D0A000054494D34BF
:105570005F434832206973206F6E6C7920757365C4
:1055800064206279205042370D0A000054494D349E
:105590005F434833206973206F6E6C7920757365A3
:1055A00064206279205042380D0A0000B9A001F051
:1055B0002BFD0120BF490968C8732EE04FF08040E1
:1055C0002060082084F86C00022186200155B9482B
:1055D0000068807910B1B8A001F016FD0120B5492E
:1055E0000968887119E04FF0804020600C2084F831
:1055F0006C00022186200155AE480068C07910B1C8
:10560000B5A001F001FD0120AA490968C87104E0B4
:10561000AFF2901001F0F8FC00BF38E18020005993
:10562000B549884261D1206F402808D080281AD01F
:10563000B0F5807F2BD0B0F5007F50D13BE0AF4874
:105640002060002084F86C000021862001559948D4
:105650000068007D10B1AAA001F0D6FC0120954998
:105660000968087540E0A5482060042084F86C00B3
:105670000021862001558F480068407D10B1A8A008
:1056800001F0C2FC01208B49096848752CE09B4859
:105690002060082084F86C00002186200155854890
:1056A0000068807D10B1A6A001F0AEFC0120814908
:1056B0000968887518E0914820600C2084F86C0017
:1056C0000021862001557B480068C07D10B1A4A050
:1056D00001F09AFC012077490968C87504E0AFF22F
:1056E0005C2001F091FC00BFD1E080200059A4496A
:1056F000884263D1206FB0F5805F09D0B0F5005FBC
:105700001AD0B0F5804F2BD0B0F5004F50D13BE010
:105710009C482060002084F86C00032186200155FD
:1057200064480068007B10B197A001F06DFC012077
:1057300060490968087340E092482060042084F8BA
:105740006C000321862001555A480068407B10B147
:1057500095A001F059FC01205649096848732CE0D6
:1057600088482060082084F86C00032186200155B9
:1057700050480068807B10B193A001F045FC0120E7
:105780004C490968887318E07E4820600C2084F832
:105790006C0003218620015546480068C07B10B18B
:1057A00091A001F031FC012042490968C87304E06E
:1057B000AFF2303001F028FC00BF68E080200059D3
:1057C0009149884263D1206FB0F5007F09D0B0F5D0
:1057D000006F1AD0B0F5005F2BD0B0F5804F50D1DC
:1057E0003BE08A482060002084F86C00032186207A
:1057F000015530480068007810B185A001F004FC24
:1058000001202C490968087040E08048206004208D
:1058100084F86C00032186200155264800684078F2
:1058200010B183A001F0F0FB012022490968487003
:105830002CE076482060082084F86C000321862044
:1058400001551C480068807810B181A001F0DCFB94
:10585000012018490968887018E06C4820600C2005
:1058600084F86C0003218620015512480068C07836
:1058700010B17FA001F0C8FB01200E490968C87073
:1058800004E0AFF2004001F0BFFB00BF00BF00BF6B
:10589000FFF74DBB54494D345F43483420697320B2
:1058A0006F6E6C792075736564206279205042397F
:1058B0000D0A0000800F002054494D325F434833E9
:1058C000206973206F6E6C7920757365642062792E
:1058D00020504231300D0A0054494D325F43483464
:1058E000206973206F6E6C7920757365642062790E
:1058F00020504231310D0A000010014000340140B7
:1059000054494D385F434831206973206F6E6C797C
:105910002075736564206279205043360D0A0000BB
:1059200054494D385F434832206973206F6E6C795B
:105930002075736564206279205043370D0A00009A
:1059400054494D385F434833206973206F6E6C793A
:105950002075736564206279205043380D0A000079
:1059600054494D385F434834206973206F6E6C7919
:105970002075736564206279205043390D0A000058
:10598000001401400008004054494D345F43483141
:10599000206973206F6E6C7920757365642062795D
:1059A00020504431320D0A0054494D345F4348328F
:1059B000206973206F6E6C7920757365642062793D
:1059C00020504431330D0A0054494D345F4348336D
:1059D000206973206F6E6C7920757365642062791D
:1059E00020504431340D0A0054494D345F4348344B
:1059F000206973206F6E6C792075736564206279FD
:105A000020504431350D0A0000180140002C01409F
:105A100054494D315F434831206973206F6E6C7972
:105A20002075736564206279205045390D0A0000A5
:105A300054494D315F434832206973206F6E6C7951
:105A4000207573656420627920504531310D0A005C
:105A500054494D315F434833206973206F6E6C7930
:105A6000207573656420627920504531330D0A003A
:105A700054494D315F434834206973206F6E6C790F
:105A8000207573656420627920504531340D0A0019
:105A900008B51B4A016891420DD100BF19498969B7
:105AA00041F48051174A91611146896901F480518E
:105AB000009100BF23E0144A016891420DD100BF5C
:105AC0001049C96941F480410E4AD1611146C96942
:105AD00001F48041009100BF11E00C4A016891423D
